{
  "contractName": "PledgerBridgeBSC",
  "abi": [
    {
      "inputs": [
        {
          "internalType": "address",
          "name": "_plgr_address",
          "type": "address"
        },
        {
          "internalType": "address",
          "name": "_bridge_address",
          "type": "address"
        },
        {
          "internalType": "address",
          "name": "_handler_address",
          "type": "address"
        },
        {
          "internalType": "uint8",
          "name": "_cb_ddid",
          "type": "uint8"
        },
        {
          "internalType": "bytes32",
          "name": "_cb_rid",
          "type": "bytes32"
        }
      ],
      "stateMutability": "nonpayable",
      "type": "constructor"
    },
    {
      "anonymous": false,
      "inputs": [
        {
          "indexed": false,
          "internalType": "bytes32",
          "name": "txid",
          "type": "bytes32"
        },
        {
          "indexed": false,
          "internalType": "address",
          "name": "owner",
          "type": "address"
        },
        {
          "indexed": false,
          "internalType": "uint256",
          "name": "amount",
          "type": "uint256"
        },
        {
          "indexed": false,
          "internalType": "uint256",
          "name": "time",
          "type": "uint256"
        }
      ],
      "name": "DepositPLGR",
      "type": "event"
    },
    {
      "anonymous": false,
      "inputs": [
        {
          "indexed": false,
          "internalType": "address",
          "name": "owner",
          "type": "address"
        },
        {
          "indexed": false,
          "internalType": "uint256",
          "name": "amount",
          "type": "uint256"
        }
      ],
      "name": "WithdrawPLGR",
      "type": "event"
    },
    {
      "inputs": [
        {
          "internalType": "address",
          "name": "",
          "type": "address"
        }
      ],
      "name": "balances",
      "outputs": [
        {
          "internalType": "uint256",
          "name": "",
          "type": "uint256"
        }
      ],
      "stateMutability": "view",
      "type": "function"
    },
    {
      "inputs": [],
      "name": "bridge_address",
      "outputs": [
        {
          "internalType": "address",
          "name": "",
          "type": "address"
        }
      ],
      "stateMutability": "view",
      "type": "function"
    },
    {
      "inputs": [],
      "name": "bridge_gas_fee",
      "outputs": [
        {
          "internalType": "uint256",
          "name": "",
          "type": "uint256"
        }
      ],
      "stateMutability": "view",
      "type": "function"
    },
    {
      "inputs": [
        {
          "internalType": "bytes32",
          "name": "",
          "type": "bytes32"
        }
      ],
      "name": "can_release",
      "outputs": [
        {
          "internalType": "address",
          "name": "owner",
          "type": "address"
        },
        {
          "internalType": "uint256",
          "name": "amount",
          "type": "uint256"
        }
      ],
      "stateMutability": "view",
      "type": "function"
    },
    {
      "inputs": [],
      "name": "cb_ddid",
      "outputs": [
        {
          "internalType": "uint8",
          "name": "",
          "type": "uint8"
        }
      ],
      "stateMutability": "view",
      "type": "function"
    },
    {
      "inputs": [],
      "name": "cb_rid",
      "outputs": [
        {
          "internalType": "bytes32",
          "name": "",
          "type": "bytes32"
        }
      ],
      "stateMutability": "view",
      "type": "function"
    },
    {
      "inputs": [],
      "name": "factor",
      "outputs": [
        {
          "internalType": "uint256",
          "name": "",
          "type": "uint256"
        }
      ],
      "stateMutability": "view",
      "type": "function"
    },
    {
      "inputs": [],
      "name": "handler_address",
      "outputs": [
        {
          "internalType": "address",
          "name": "",
          "type": "address"
        }
      ],
      "stateMutability": "view",
      "type": "function"
    },
    {
      "inputs": [
        {
          "internalType": "uint256",
          "name": "",
          "type": "uint256"
        }
      ],
      "name": "locked_infos",
      "outputs": [
        {
          "internalType": "bytes32",
          "name": "txid",
          "type": "bytes32"
        },
        {
          "internalType": "uint256",
          "name": "time",
          "type": "uint256"
        }
      ],
      "stateMutability": "view",
      "type": "function"
    },
    {
      "inputs": [
        {
          "internalType": "bytes32",
          "name": "",
          "type": "bytes32"
        }
      ],
      "name": "locked_plgr_tx",
      "outputs": [
        {
          "internalType": "address",
          "name": "owner",
          "type": "address"
        },
        {
          "internalType": "uint256",
          "name": "amount",
          "type": "uint256"
        }
      ],
      "stateMutability": "view",
      "type": "function"
    },
    {
      "inputs": [],
      "name": "owner",
      "outputs": [
        {
          "internalType": "address",
          "name": "",
          "type": "address"
        }
      ],
      "stateMutability": "view",
      "type": "function"
    },
    {
      "inputs": [],
      "name": "plgr_address",
      "outputs": [
        {
          "internalType": "address",
          "name": "",
          "type": "address"
        }
      ],
      "stateMutability": "view",
      "type": "function"
    },
    {
      "inputs": [
        {
          "internalType": "address",
          "name": "",
          "type": "address"
        }
      ],
      "name": "plgr_amounts",
      "outputs": [
        {
          "internalType": "uint256",
          "name": "",
          "type": "uint256"
        }
      ],
      "stateMutability": "view",
      "type": "function"
    },
    {
      "inputs": [],
      "name": "total_mplgr_release",
      "outputs": [
        {
          "internalType": "uint256",
          "name": "",
          "type": "uint256"
        }
      ],
      "stateMutability": "view",
      "type": "function"
    },
    {
      "inputs": [],
      "name": "total_plgr_locked",
      "outputs": [
        {
          "internalType": "uint256",
          "name": "",
          "type": "uint256"
        }
      ],
      "stateMutability": "view",
      "type": "function"
    },
    {
      "inputs": [
        {
          "internalType": "address",
          "name": "_bridge_address",
          "type": "address"
        },
        {
          "internalType": "address",
          "name": "_handler_address",
          "type": "address"
        },
        {
          "internalType": "uint8",
          "name": "_cb_ddid",
          "type": "uint8"
        },
        {
          "internalType": "bytes32",
          "name": "_cb_rid",
          "type": "bytes32"
        }
      ],
      "name": "admin_update_bridge",
      "outputs": [],
      "stateMutability": "nonpayable",
      "type": "function"
    },
    {
      "inputs": [
        {
          "internalType": "uint256",
          "name": "_bridge_gas_fee",
          "type": "uint256"
        }
      ],
      "name": "set_bridge_gas_fee",
      "outputs": [],
      "stateMutability": "nonpayable",
      "type": "function"
    },
    {
      "inputs": [
        {
          "internalType": "uint256",
          "name": "_total_mplgr_release",
          "type": "uint256"
        }
      ],
      "name": "set_total_release",
      "outputs": [],
      "stateMutability": "nonpayable",
      "type": "function"
    },
    {
      "inputs": [
        {
          "internalType": "address",
          "name": "_owner",
          "type": "address"
        },
        {
          "internalType": "uint256",
          "name": "amount",
          "type": "uint256"
        }
      ],
      "name": "deposit_plgr",
      "outputs": [
        {
          "internalType": "bytes32",
          "name": "",
          "type": "bytes32"
        }
      ],
      "stateMutability": "payable",
      "type": "function"
    },
    {
      "inputs": [
        {
          "internalType": "uint256",
          "name": "amount",
          "type": "uint256"
        }
      ],
      "name": "widthdraw_plgr",
      "outputs": [],
      "stateMutability": "nonpayable",
      "type": "function"
    },
    {
      "inputs": [
        {
          "internalType": "bytes",
          "name": "data",
          "type": "bytes"
        }
      ],
      "name": "deposit_mplgr_bridge",
      "outputs": [],
      "stateMutability": "nonpayable",
      "type": "function"
    },
    {
      "inputs": [],
      "name": "is_release_all_locked_plgr",
      "outputs": [
        {
          "internalType": "bool",
          "name": "",
          "type": "bool"
        }
      ],
      "stateMutability": "view",
      "type": "function"
    },
    {
      "inputs": [],
      "name": "execute_upkeep",
      "outputs": [],
      "stateMutability": "nonpayable",
      "type": "function"
    }
  ],
  "bytecode": "0x6080604052670de0b6b3a764000060055566b1a2bc2ec5000060065560036008556000600f553480156200003257600080fd5b50604051620028ea380380620028ea8339818101604052810190620000589190620001cd565b336000806101000a81548173ffffffffffffffffffffffffffffffffffffffff021916908373ffffffffffffffffffffffffffffffffffffffff16021790555084600160006101000a81548173ffffffffffffffffffffffffffffffffffffffff021916908373ffffffffffffffffffffffffffffffffffffffff16021790555083600260006101000a81548173ffffffffffffffffffffffffffffffffffffffff021916908373ffffffffffffffffffffffffffffffffffffffff16021790555082600360006101000a81548173ffffffffffffffffffffffffffffffffffffffff021916908373ffffffffffffffffffffffffffffffffffffffff16021790555081600360146101000a81548160ff021916908360ff160217905550806004819055505050505050620002e8565b60008151905062000199816200029a565b92915050565b600081519050620001b081620002b4565b92915050565b600081519050620001c781620002ce565b92915050565b600080600080600060a08688031215620001e657600080fd5b6000620001f68882890162000188565b9550506020620002098882890162000188565b94505060406200021c8882890162000188565b93505060606200022f88828901620001b6565b925050608062000242888289016200019f565b9150509295509295909350565b60006200025c826200026d565b9050919050565b6000819050919050565b600073ffffffffffffffffffffffffffffffffffffffff82169050919050565b600060ff82169050919050565b620002a5816200024f565b8114620002b157600080fd5b50565b620002bf8162000263565b8114620002cb57600080fd5b50565b620002d9816200028d565b8114620002e557600080fd5b50565b6125f280620002f86000396000f3fe6080604052600436106101405760003560e01c8063585fb29d116100b6578063add8bb961161006f578063add8bb9614610442578063bb83797914610459578063c7b4c5bf14610484578063c970bdf4146104ad578063dfad049e146104eb578063ef6c79291461052857610140565b8063585fb29d146103445780635ca650601461036f5780637742cffa1461039857806383080704146103c35780638da5cb5b146103ec578063ab7272ea1461041757610140565b80632068a843116101085780632068a8431461022d57806327e235e3146102585780632e7e0c29146102955780633219c4df146102c557806344434d94146102f057806354f703f81461031957610140565b806302c0ab3b1461014557806304ecb8441461016e5780631255c18914610199578063176a78bb146101c457806319e54812146101ef575b600080fd5b34801561015157600080fd5b5061016c60048036038101906101679190611ad4565b610566565b005b34801561017a57600080fd5b5061018361068d565b6040516101909190612189565b60405180910390f35b3480156101a557600080fd5b506101ae6106a0565b6040516101bb9190611ec8565b60405180910390f35b3480156101d057600080fd5b506101d96106c6565b6040516101e6919061216e565b60405180910390f35b3480156101fb57600080fd5b5061021660048036038101906102119190611aab565b6106cc565b604051610224929190611f1a565b60405180910390f35b34801561023957600080fd5b50610242610710565b60405161024f9190611fa3565b60405180910390f35b34801561026457600080fd5b5061027f600480360381019061027a91906119ba565b610716565b60405161028c919061216e565b60405180910390f35b6102af60048036038101906102aa9190611a46565b61072e565b6040516102bc9190611fa3565b60405180910390f35b3480156102d157600080fd5b506102da610991565b6040516102e79190611ec8565b60405180910390f35b3480156102fc57600080fd5b5061031760048036038101906103129190611b15565b6109b7565b005b34801561032557600080fd5b5061032e610a4f565b60405161033b919061216e565b60405180910390f35b34801561035057600080fd5b50610359610a55565b604051610366919061216e565b60405180910390f35b34801561037b57600080fd5b5061039660048036038101906103919190611b15565b610a5b565b005b3480156103a457600080fd5b506103ad610b37565b6040516103ba9190611f88565b60405180910390f35b3480156103cf57600080fd5b506103ea60048036038101906103e59190611b15565b610b56565b005b3480156103f857600080fd5b50610401610c9d565b60405161040e9190611ec8565b60405180910390f35b34801561042357600080fd5b5061042c610cc1565b6040516104399190611ec8565b60405180910390f35b34801561044e57600080fd5b50610457610ce7565b005b34801561046557600080fd5b5061046e611364565b60405161047b919061216e565b60405180910390f35b34801561049057600080fd5b506104ab60048036038101906104a691906119e3565b61136a565b005b3480156104b957600080fd5b506104d460048036038101906104cf9190611b15565b6114a2565b6040516104e2929190612003565b60405180910390f35b3480156104f757600080fd5b50610512600480360381019061050d91906119ba565b6114d6565b60405161051f919061216e565b60405180910390f35b34801561053457600080fd5b5061054f600480360381019061054a9190611aab565b6114ee565b60405161055d929190611f1a565b60405180910390f35b600360009054906101000a900473ffffffffffffffffffffffffffffffffffffffff1673ffffffffffffffffffffffffffffffffffffffff163373ffffffffffffffffffffffffffffffffffffffff16146105f6576040517f08c379a00000000000000000000000000000000000000000000000000000000081526004016105ed906120ae565b60405180910390fd5b600061060c60008361153290919063ffffffff16565b905060006106246014846115a890919063ffffffff16565b90506003816106339190612302565b600b60008473ffffffffffffffffffffffffffffffffffffffff1673ffffffffffffffffffffffffffffffffffffffff1681526020019081526020016000206000828254610681919061227b565b92505081905550505050565b600360149054906101000a900460ff1681565b600260009054906101000a900473ffffffffffffffffffffffffffffffffffffffff1681565b60065481565b600c6020528060005260406000206000915090508060000160009054906101000a900473ffffffffffffffffffffffffffffffffffffffff16908060010154905082565b60045481565b60076020528060005260406000206000915090505481565b6000600654341015610775576040517f08c379a000000000000000000000000000000000000000000000000000000000815260040161076c9061206e565b60405180910390fd5b34600760008060009054906101000a900473ffffffffffffffffffffffffffffffffffffffff1673ffffffffffffffffffffffffffffffffffffffff1673ffffffffffffffffffffffffffffffffffffffff16815260200190815260200160002060008282546107e5919061227b565b925050819055506000838342600f546040516020016108079493929190611f43565b604051602081830303815290604052805190602001209050600f600081548092919061083290612431565b919050555083600c600083815260200190815260200160002060000160006101000a81548173ffffffffffffffffffffffffffffffffffffffff021916908373ffffffffffffffffffffffffffffffffffffffff16021790555082600c6000838152602001908152602001600020600101819055506108d5600160009054906101000a900473ffffffffffffffffffffffffffffffffffffffff1685308661160f565b60006040518060400160405280838152602001428152509050600a819080600181540180825580915050600190039060005260206000209060020201600090919091909150600082015181600001556020820151816001015550508360096000828254610942919061227b565b925050819055507f1008429730dc0e33a6e63ee42972c220ab8becaf21d29983a99a80f45efa060b8286864260405161097e9493929190611fbe565b60405180910390a1819250505092915050565b600160009054906101000a900473ffffffffffffffffffffffffffffffffffffffff1681565b60008054906101000a900473ffffffffffffffffffffffffffffffffffffffff1673ffffffffffffffffffffffffffffffffffffffff163373ffffffffffffffffffffffffffffffffffffffff1614610a45576040517f08c379a0000000000000000000000000000000000000000000000000000000008152600401610a3c9061214e565b60405180910390fd5b8060068190555050565b60085481565b60055481565b60008054906101000a900473ffffffffffffffffffffffffffffffffffffffff1673ffffffffffffffffffffffffffffffffffffffff163373ffffffffffffffffffffffffffffffffffffffff1614610ae9576040517f08c379a0000000000000000000000000000000000000000000000000000000008152600401610ae09061214e565b60405180910390fd5b6001811015610b2d576040517f08c379a0000000000000000000000000000000000000000000000000000000008152600401610b24906120ce565b60405180910390fd5b8060058190555050565b600080600190506005546009541115610b4f57600090505b8091505090565b6000600b60003373ffffffffffffffffffffffffffffffffffffffff1673ffffffffffffffffffffffffffffffffffffffff16815260200190815260200160002054905081811015610bdd576040517f08c379a0000000000000000000000000000000000000000000000000000000008152600401610bd49061210e565b60405180910390fd5b81600b60003373ffffffffffffffffffffffffffffffffffffffff1673ffffffffffffffffffffffffffffffffffffffff1681526020019081526020016000206000828254610c2c919061235c565b92505081905550610c60600160009054906101000a900473ffffffffffffffffffffffffffffffffffffffff163384611627565b7f67081655db492a9224c5bc8d7d3ccadb8bb37d603b8697c1cb2081a6825138543383604051610c91929190611f1a565b60405180910390a15050565b60008054906101000a900473ffffffffffffffffffffffffffffffffffffffff1681565b600360009054906101000a900473ffffffffffffffffffffffffffffffffffffffff1681565b60008054906101000a900473ffffffffffffffffffffffffffffffffffffffff1673ffffffffffffffffffffffffffffffffffffffff163373ffffffffffffffffffffffffffffffffffffffff1614610d75576040517f08c379a0000000000000000000000000000000000000000000000000000000008152600401610d6c9061214e565b60405180910390fd5b60016005541015610dbb576040517f08c379a0000000000000000000000000000000000000000000000000000000008152600401610db2906120ce565b60405180910390fd5b6000610dc5610b37565b90506000600a80549050905060005b81811015610f67576000600a8281548110610e18577f4e487b7100000000000000000000000000000000000000000000000000000000600052603260045260246000fd5b90600052602060002090600202016000015490506000600c6000838152602001908152602001600020600101549050600085610e6e5760055460095483610e5f91906122d1565b610e699190612302565b610e70565b815b9050600060085482610e8291906122d1565b9050600c600085815260200190815260200160002060000160009054906101000a900473ffffffffffffffffffffffffffffffffffffffff16600d600086815260200190815260200160002060000160006101000a81548173ffffffffffffffffffffffffffffffffffffffff021916908373ffffffffffffffffffffffffffffffffffffffff16021790555080600d6000868152602001908152602001600020600101819055508183610f36919061235c565b600c600086815260200190815260200160002060010181905550505050508080610f5f90612431565b915050610dd4565b5081610f8257600554600954610f7d919061235c565b610f85565b60005b600981905550600081604051602001610f9e919061216e565b604051602081830303815290604052905060005b828110156110de576000600a8281548110610ff6577f4e487b7100000000000000000000000000000000000000000000000000000000600052603260045260246000fd5b90600052602060002090600202016000015490506000600d600083815260200190815260200160002060000160009054906101000a900473ffffffffffffffffffffffffffffffffffffffff166040516020016110539190611e96565b6040516020818303038152906040529050611077818561163d90919063ffffffff16565b93506000600d6000848152602001908152602001600020600101546040516020016110a2919061216e565b60405160208183030381529060405290506110c6818661163d90919063ffffffff16565b945050505080806110d690612431565b915050610fb2565b5060005b82811015611253576000600a8281548110611126577f4e487b7100000000000000000000000000000000000000000000000000000000600052603260045260246000fd5b9060005260206000209060020201600001549050600d6000828152602001908152602001600020600080820160006101000a81549073ffffffffffffffffffffffffffffffffffffffff0219169055600182016000905550506000600c600083815260200190815260200160002060010154141561123f57600c6000828152602001908152602001600020600080820160006101000a81549073ffffffffffffffffffffffffffffffffffffffff021916905560018201600090555050600a828154811061121d577f4e487b7100000000000000000000000000000000000000000000000000000000600052603260045260246000fd5b9060005260206000209060020201600080820160009055600182016000905550505b50808061124b90612431565b9150506110e2565b50600081604051602001611267919061202c565b60405160208183030381529060405290506000815160405160200161128c919061216e565b604051602081830303815290604052905060006112b2838361163d90919063ffffffff16565b90506000600260009054906101000a900473ffffffffffffffffffffffffffffffffffffffff1690508073ffffffffffffffffffffffffffffffffffffffff166305e2ca17600360149054906101000a900460ff16600454856040518463ffffffff1660e01b8152600401611329939291906121a4565b600060405180830381600087803b15801561134357600080fd5b505af1158015611357573d6000803e3d6000fd5b5050505050505050505050565b60095481565b60008054906101000a900473ffffffffffffffffffffffffffffffffffffffff1673ffffffffffffffffffffffffffffffffffffffff163373ffffffffffffffffffffffffffffffffffffffff16146113f8576040517f08c379a00000000000000000000000000000000000000000000000000000000081526004016113ef9061214e565b60405180910390fd5b83600260006101000a81548173ffffffffffffffffffffffffffffffffffffffff021916908373ffffffffffffffffffffffffffffffffffffffff16021790555082600360006101000a81548173ffffffffffffffffffffffffffffffffffffffff021916908373ffffffffffffffffffffffffffffffffffffffff16021790555081600360146101000a81548160ff021916908360ff1602179055508060048190555050505050565b600a81815481106114b257600080fd5b90600052602060002090600202016000915090508060000154908060010154905082565b600b6020528060005260406000206000915090505481565b600d6020528060005260406000206000915090508060000160009054906101000a900473ffffffffffffffffffffffffffffffffffffffff16908060010154905082565b6000601482611541919061227b565b83511015611584576040517f08c379a000000000000000000000000000000000000000000000000000000000815260040161157b9061212e565b60405180910390fd5b60006c01000000000000000000000000836020860101510490508091505092915050565b60006020826115b7919061227b565b835110156115fa576040517f08c379a00000000000000000000000000000000000000000000000000000000081526004016115f1906120ee565b60405180910390fd5b60008260208501015190508091505092915050565b6000849050611620818585856116c7565b5050505050565b6000839050611637818484611750565b50505050565b6060806040519050835180825260208201818101602087015b818310156116735780518352602083019250602081019050611656565b50855192508351830184528091508282019050602086015b818310156116a8578051835260208301925060208101905061168b565b50601f19601f8851850115830101166040525050508091505092915050565b61174a846323b872dd60e01b8585856040516024016116e893929190611ee3565b604051602081830303815290604052907bffffffffffffffffffffffffffffffffffffffffffffffffffffffff19166020820180517bffffffffffffffffffffffffffffffffffffffffffffffffffffffff83818316178352505050506117d6565b50505050565b6117d18363a9059cbb60e01b848460405160240161176f929190611f1a565b604051602081830303815290604052907bffffffffffffffffffffffffffffffffffffffffffffffffffffffff19166020820180517bffffffffffffffffffffffffffffffffffffffffffffffffffffffff83818316178352505050506117d6565b505050565b6000808373ffffffffffffffffffffffffffffffffffffffff16836040516117fe9190611eb1565b6000604051808303816000865af19150503d806000811461183b576040519150601f19603f3d011682016040523d82523d6000602084013e611840565b606091505b509150915081611885576040517f08c379a000000000000000000000000000000000000000000000000000000000815260040161187c9061208e565b60405180910390fd5b6000815111156118e357808060200190518101906118a39190611a82565b6118e2576040517f08c379a00000000000000000000000000000000000000000000000000000000081526004016118d99061204e565b60405180910390fd5b5b50505050565b60006118fc6118f784612213565b6121e2565b90508281526020810184848401111561191457600080fd5b61191f8482856123ef565b509392505050565b60008135905061193681612549565b92915050565b60008151905061194b81612560565b92915050565b60008135905061196081612577565b92915050565b600082601f83011261197757600080fd5b81356119878482602086016118e9565b91505092915050565b60008135905061199f8161258e565b92915050565b6000813590506119b4816125a5565b92915050565b6000602082840312156119cc57600080fd5b60006119da84828501611927565b91505092915050565b600080600080608085870312156119f957600080fd5b6000611a0787828801611927565b9450506020611a1887828801611927565b9350506040611a29878288016119a5565b9250506060611a3a87828801611951565b91505092959194509250565b60008060408385031215611a5957600080fd5b6000611a6785828601611927565b9250506020611a7885828601611990565b9150509250929050565b600060208284031215611a9457600080fd5b6000611aa28482850161193c565b91505092915050565b600060208284031215611abd57600080fd5b6000611acb84828501611951565b91505092915050565b600060208284031215611ae657600080fd5b600082013567ffffffffffffffff811115611b0057600080fd5b611b0c84828501611966565b91505092915050565b600060208284031215611b2757600080fd5b6000611b3584828501611990565b91505092915050565b611b4781612390565b82525050565b611b5e611b5982612390565b61247a565b82525050565b611b6d816123a2565b82525050565b611b7c816123ae565b82525050565b6000611b8d82612243565b611b97818561224e565b9350611ba78185602086016123fe565b611bb08161252b565b840191505092915050565b6000611bc682612243565b611bd0818561225f565b9350611be08185602086016123fe565b80840191505092915050565b6000611bf960208361226a565b91507f45524332303a206f7065726174696f6e20646964206e6f7420737563636565646000830152602082019050919050565b6000611c39601e8361226a565b91507f427269646765206761732066656520697320696e73756666696369656e7400006000830152602082019050919050565b6000611c7960128361226a565b91507f45524332303a2063616c6c206661696c656400000000000000000000000000006000830152602082019050919050565b6000611cb960218361226a565b91507f546869732066756e6374696f6e206f6e6c7920627920636861696e627269646760008301527f65000000000000000000000000000000000000000000000000000000000000006020830152604082019050919050565b6000611d1f60228361226a565b91507f746f74616c5f6d706c67725f72656c65617365206973206c657373207468616e60008301527f20310000000000000000000000000000000000000000000000000000000000006020830152604082019050919050565b6000611d8560158361226a565b91507f746f55696e743235365f6f75744f66426f756e647300000000000000000000006000830152602082019050919050565b6000611dc560178361226a565b91507f596f752068617665206e6f20656e6f75676820504c47520000000000000000006000830152602082019050919050565b6000611e0560158361226a565b91507f746f416464726573735f6f75744f66426f756e647300000000000000000000006000830152602082019050919050565b6000611e4560148361226a565b91507f4f6e6c792063616c6c6564206279206f776e65720000000000000000000000006000830152602082019050919050565b611e81816123d8565b82525050565b611e90816123e2565b82525050565b6000611ea28284611b4d565b60148201915081905092915050565b6000611ebd8284611bbb565b915081905092915050565b6000602082019050611edd6000830184611b3e565b92915050565b6000606082019050611ef86000830186611b3e565b611f056020830185611b3e565b611f126040830184611e78565b949350505050565b6000604082019050611f2f6000830185611b3e565b611f3c6020830184611e78565b9392505050565b6000608082019050611f586000830187611b3e565b611f656020830186611e78565b611f726040830185611e78565b611f7f6060830184611e78565b95945050505050565b6000602082019050611f9d6000830184611b64565b92915050565b6000602082019050611fb86000830184611b73565b92915050565b6000608082019050611fd36000830187611b73565b611fe06020830186611b3e565b611fed6040830185611e78565b611ffa6060830184611e78565b95945050505050565b60006040820190506120186000830185611b73565b6120256020830184611e78565b9392505050565b600060208201905081810360008301526120468184611b82565b905092915050565b6000602082019050818103600083015261206781611bec565b9050919050565b6000602082019050818103600083015261208781611c2c565b9050919050565b600060208201905081810360008301526120a781611c6c565b9050919050565b600060208201905081810360008301526120c781611cac565b9050919050565b600060208201905081810360008301526120e781611d12565b9050919050565b6000602082019050818103600083015261210781611d78565b9050919050565b6000602082019050818103600083015261212781611db8565b9050919050565b6000602082019050818103600083015261214781611df8565b9050919050565b6000602082019050818103600083015261216781611e38565b9050919050565b60006020820190506121836000830184611e78565b92915050565b600060208201905061219e6000830184611e87565b92915050565b60006060820190506121b96000830186611e87565b6121c66020830185611b73565b81810360408301526121d88184611b82565b9050949350505050565b6000604051905081810181811067ffffffffffffffff82111715612209576122086124fc565b5b8060405250919050565b600067ffffffffffffffff82111561222e5761222d6124fc565b5b601f19601f8301169050602081019050919050565b600081519050919050565b600082825260208201905092915050565b600081905092915050565b600082825260208201905092915050565b6000612286826123d8565b9150612291836123d8565b9250827fffffffffffffffffffffffffffffffffffffffffffffffffffffffffffffffff038211156122c6576122c561249e565b5b828201905092915050565b60006122dc826123d8565b91506122e7836123d8565b9250826122f7576122f66124cd565b5b828204905092915050565b600061230d826123d8565b9150612318836123d8565b9250817fffffffffffffffffffffffffffffffffffffffffffffffffffffffffffffffff04831182151516156123515761235061249e565b5b828202905092915050565b6000612367826123d8565b9150612372836123d8565b9250828210156123855761238461249e565b5b828203905092915050565b600061239b826123b8565b9050919050565b60008115159050919050565b6000819050919050565b600073ffffffffffffffffffffffffffffffffffffffff82169050919050565b6000819050919050565b600060ff82169050919050565b82818337600083830152505050565b60005b8381101561241c578082015181840152602081019050612401565b8381111561242b576000848401525b50505050565b600061243c826123d8565b91507fffffffffffffffffffffffffffffffffffffffffffffffffffffffffffffffff82141561246f5761246e61249e565b5b600182019050919050565b60006124858261248c565b9050919050565b60006124978261253c565b9050919050565b7f4e487b7100000000000000000000000000000000000000000000000000000000600052601160045260246000fd5b7f4e487b7100000000000000000000000000000000000000000000000000000000600052601260045260246000fd5b7f4e487b7100000000000000000000000000000000000000000000000000000000600052604160045260246000fd5b6000601f19601f8301169050919050565b60008160601b9050919050565b61255281612390565b811461255d57600080fd5b50565b612569816123a2565b811461257457600080fd5b50565b612580816123ae565b811461258b57600080fd5b50565b612597816123d8565b81146125a257600080fd5b50565b6125ae816123e2565b81146125b957600080fd5b5056fea264697066735822122039e7da288ef2120a5145489e90be72da917250d713cfffcf97353f14b65ae47664736f6c63430008000033",
  "immutableReferences": {},
  "source": "// SPDX-License-Identifier: LGPL-3.0-only\npragma solidity ^0.8.0;\n\nimport './ERC20Safe.sol';\nimport 'solidity-bytes-utils/contracts/BytesLib.sol';\n\ninterface IBridge {\n    function deposit(uint8 destinationDomainID, bytes32 resourceID, bytes calldata data) external payable;\n}\n\ncontract PledgerBridgeBSC is ERC20Safe {\n    using BytesLib for bytes;\n\n    // \n    address public owner;\n\n    // []\n    // \n    address public plgr_address;\n    address public bridge_address;\n    address public handler_address;\n    // ETH bridgeID\n    uint8 public cb_ddid; \n    // resourceID\n    bytes32 public cb_rid;\n\n    // []\n    // MPLGR\n    // 1MPLGR \n    uint256 public total_mplgr_release = 1 * 10 ** 18; \n\n    // []\n    // fee\n    // 0.05 BNB\n    uint256 public bridge_gas_fee = 0.05 * 10 ** 18;\n    // bridge gas fee\n    mapping(address => uint256) public balances;\n\n    // PLGR  MPLGR \n    // PLGR <=> mplgr | 3 <=> 1 \n    uint256 public factor = 3; \n\n    // PLGR\n    uint256 public total_plgr_locked;\n\n    struct LockedPLGRTx {\n        address owner;\n        uint256 amount;\n    }\n    struct LockInfo {\n        bytes32 txid;\n        uint256 time;\n    }\n    LockInfo[] public locked_infos;\n\n    mapping (address => uint256) public plgr_amounts;\n    mapping (bytes32 => LockedPLGRTx) public locked_plgr_tx;\n    mapping (bytes32 => LockedPLGRTx) public can_release;\n    mapping(bytes32 => uint256) txid_release_amount;\n\n    uint256 plgr_lock_nonce = 0;\n\n    event DepositPLGR(bytes32 txid, address owner, uint256 amount, uint time);\n    event WithdrawPLGR(address owner, uint256 amount);\n\n    constructor(address _plgr_address, address _bridge_address, address _handler_address, uint8 _cb_ddid, bytes32 _cb_rid) {\n        owner = msg.sender;\n\n        plgr_address = _plgr_address;\n        bridge_address = _bridge_address;\n        handler_address = _handler_address;\n        cb_ddid = _cb_ddid;\n        cb_rid = _cb_rid;\n    }\n\n    // : Bridge\n    function admin_update_bridge(address _bridge_address, address _handler_address, uint8 _cb_ddid, bytes32 _cb_rid) external {\n        require(msg.sender == owner, \"Only called by owner\");\n\n        bridge_address = _bridge_address;\n        handler_address = _handler_address;\n        cb_ddid = _cb_ddid;\n        cb_rid = _cb_rid;\n    }\n\n    // gas fee\n    function set_bridge_gas_fee(uint256 _bridge_gas_fee) public {\n        require(msg.sender == owner, \"Only called by owner\");\n\n        bridge_gas_fee = _bridge_gas_fee;    \n    }\n\n    //  MPLGR \n    function set_total_release(uint256 _total_mplgr_release) external {\n        require(msg.sender == owner, \"Only called by owner\");\n        require(_total_mplgr_release >= 1, \"total_mplgr_release is less than 1\");\n\n        total_mplgr_release = _total_mplgr_release;\n    }\n\n    // User call this function on BSC to deposit PLGR.\n    // gas fee\n    function deposit_plgr(address _owner, uint256 amount) external payable returns(bytes32) {\n        require(msg.value >= bridge_gas_fee, \"Bridge gas fee is insufficient\");\n        balances[owner] += msg.value;\n\n        bytes32 txid = keccak256(abi.encode(_owner, amount, block.timestamp, plgr_lock_nonce));\n        plgr_lock_nonce ++;\n\n        locked_plgr_tx[txid].owner = _owner;\n        locked_plgr_tx[txid].amount = amount;\n\n        lockERC20(plgr_address, _owner, address(this), amount);\n\n        LockInfo memory lock_info = LockInfo (txid, block.timestamp);\n        locked_infos.push(lock_info);\n\n        // PLGR\n        total_plgr_locked += amount;\n\n        emit DepositPLGR(txid, _owner, amount, block.timestamp);\n\n        return txid;\n    }\n\n    // User call this function on BSC to widthdraw PLGR.\n    function widthdraw_plgr(uint256 amount) external {\n        uint256 value = plgr_amounts[msg.sender];\n        require(value >= amount, \"You have no enough PLGR\");\n\n        plgr_amounts[msg.sender] -= amount;\n\n        releaseERC20(plgr_address, msg.sender, amount);\n\n        emit WithdrawPLGR(msg.sender, amount);\n    }\n\n    // Chainbridge call this function on BSC\n    function deposit_mplgr_bridge(bytes memory data) external {\n        require(msg.sender == handler_address, \"This function only by chainbridge\");\n\n        address addr = data.toAddress(0);\n        uint256 amount = data.toUint256(20);\n\n        //  MPLGR  PLGR\n        plgr_amounts[addr] += amount * 3;\n    }\n\n    //  [PLGR] <= [MPLGR ] => PLGR\n    //  [PLGR] > [MPLGR ] =>  ( [PLGR] / [PLGR]) * [MPLGR ] \n    function is_release_all_locked_plgr() public view returns (bool) {\n        bool release_all_locked_plgr = true;\n        if (total_plgr_locked > total_mplgr_release) {\n            release_all_locked_plgr = false;\n        }\n\n        return release_all_locked_plgr;\n    }\n\n    function execute_upkeep() external {\n        require(msg.sender == owner, \"Only called by owner\");\n        require(total_mplgr_release >= 1, \"total_mplgr_release is less than 1\");\n        \n        bool release_all_locked_plgr = is_release_all_locked_plgr();\n\n        uint256 count = locked_infos.length;\n        for (uint i = 0; i < count; i++) {\n            bytes32 txid = locked_infos[i].txid;\n\n            // PLGR\n            uint256 user_plgr_locked = locked_plgr_tx[txid].amount;\n\n            // PLGR\n            uint256 user_plgr_crossed = release_all_locked_plgr ? user_plgr_locked : (user_plgr_locked / total_plgr_locked) * total_mplgr_release;\n\n            //  MPLGR \n            uint256 user_mplgr_crossed = user_plgr_crossed / factor;\n            \n            // PLGR[PLGR - PLGR]\n            can_release[txid].owner = locked_plgr_tx[txid].owner;\n            can_release[txid].amount = user_mplgr_crossed;\n\n            // update locked_plgr_tx\n            locked_plgr_tx[txid].amount = user_plgr_locked - user_plgr_crossed;\n        }\n        // PLGR\n        total_plgr_locked = release_all_locked_plgr ? 0 : (total_plgr_locked - total_mplgr_release);\n\n        // ABI\n        bytes memory rdata = abi.encode(count);\n        for (uint i = 0; i < count; i ++) {\n            bytes32 txid = locked_infos[i].txid;\n\n            bytes memory addr = abi.encodePacked(can_release[txid].owner);\n            rdata = rdata.concat(addr);\n\n            bytes memory amount = abi.encode(can_release[txid].amount);\n            rdata = rdata.concat(amount);\n        }\n\n        // \n        for (uint i=0; i<count;i++) {\n            bytes32 txid = locked_infos[i].txid;\n\n            // MPLGR\n            delete can_release[txid];\n\n            // PLGR\n            if (locked_plgr_tx[txid].amount == 0) {\n                delete locked_plgr_tx[txid];\n                delete locked_infos[i];\n            }\n        }\n\n        // \n        bytes memory args_bytes = abi.encode(rdata);\n        bytes memory length = abi.encode(args_bytes.length);\n        bytes memory args = length.concat(args_bytes);\n        \n        IBridge bridge = IBridge(bridge_address);\n        bridge.deposit(cb_ddid, cb_rid, args);\n    }\n}",
  "sourcePath": "/home/u20/codespace/pledge-backend/bridge-backend/contracts/BridgeBSC.sol",
  "compiler": {
    "name": "solc",
    "version": "0.8.0+commit.c7dfd78e.Emscripten.clang"
  },
  "schemaVersion": "3.3.1",
  "updatedAt": "2022-01-19T03:26:55.219Z",
  "devdoc": {
    "kind": "dev",
    "methods": {},
    "version": 1
  },
  "userdoc": {
    "kind": "user",
    "methods": {},
    "version": 1
  }
}