{
  "contractName": "PledgerBridgeBSC",
  "abi": [
    {
      "inputs": [
        {
          "internalType": "address",
          "name": "_plgr_address",
          "type": "address"
        },
        {
          "internalType": "address",
          "name": "_bridge_address",
          "type": "address"
        },
        {
          "internalType": "address",
          "name": "_handler_address",
          "type": "address"
        },
        {
          "internalType": "uint8",
          "name": "_cb_ddid",
          "type": "uint8"
        },
        {
          "internalType": "bytes32",
          "name": "_cb_rid",
          "type": "bytes32"
        }
      ],
      "stateMutability": "nonpayable",
      "type": "constructor"
    },
    {
      "anonymous": false,
      "inputs": [
        {
          "indexed": false,
          "internalType": "bytes32",
          "name": "txid",
          "type": "bytes32"
        },
        {
          "indexed": false,
          "internalType": "address",
          "name": "owner",
          "type": "address"
        },
        {
          "indexed": false,
          "internalType": "uint256",
          "name": "amount",
          "type": "uint256"
        },
        {
          "indexed": false,
          "internalType": "uint256",
          "name": "time",
          "type": "uint256"
        }
      ],
      "name": "DepositPLGR",
      "type": "event"
    },
    {
      "anonymous": false,
      "inputs": [
        {
          "indexed": false,
          "internalType": "address",
          "name": "owner",
          "type": "address"
        },
        {
          "indexed": false,
          "internalType": "uint256",
          "name": "amount",
          "type": "uint256"
        }
      ],
      "name": "WithdrawPLGR",
      "type": "event"
    },
    {
      "inputs": [],
      "name": "base",
      "outputs": [
        {
          "internalType": "uint256",
          "name": "",
          "type": "uint256"
        }
      ],
      "stateMutability": "view",
      "type": "function"
    },
    {
      "inputs": [],
      "name": "bridge_address",
      "outputs": [
        {
          "internalType": "address",
          "name": "",
          "type": "address"
        }
      ],
      "stateMutability": "view",
      "type": "function"
    },
    {
      "inputs": [
        {
          "internalType": "bytes32",
          "name": "",
          "type": "bytes32"
        }
      ],
      "name": "can_release",
      "outputs": [
        {
          "internalType": "address",
          "name": "owner",
          "type": "address"
        },
        {
          "internalType": "uint256",
          "name": "amount",
          "type": "uint256"
        }
      ],
      "stateMutability": "view",
      "type": "function"
    },
    {
      "inputs": [],
      "name": "cb_ddid",
      "outputs": [
        {
          "internalType": "uint8",
          "name": "",
          "type": "uint8"
        }
      ],
      "stateMutability": "view",
      "type": "function"
    },
    {
      "inputs": [],
      "name": "cb_rid",
      "outputs": [
        {
          "internalType": "bytes32",
          "name": "",
          "type": "bytes32"
        }
      ],
      "stateMutability": "view",
      "type": "function"
    },
    {
      "inputs": [],
      "name": "handler_address",
      "outputs": [
        {
          "internalType": "address",
          "name": "",
          "type": "address"
        }
      ],
      "stateMutability": "view",
      "type": "function"
    },
    {
      "inputs": [
        {
          "internalType": "uint256",
          "name": "",
          "type": "uint256"
        }
      ],
      "name": "locked_infos",
      "outputs": [
        {
          "internalType": "bytes32",
          "name": "txid",
          "type": "bytes32"
        },
        {
          "internalType": "uint256",
          "name": "time",
          "type": "uint256"
        }
      ],
      "stateMutability": "view",
      "type": "function"
    },
    {
      "inputs": [
        {
          "internalType": "bytes32",
          "name": "",
          "type": "bytes32"
        }
      ],
      "name": "locked_plgr_tx",
      "outputs": [
        {
          "internalType": "address",
          "name": "owner",
          "type": "address"
        },
        {
          "internalType": "uint256",
          "name": "amount",
          "type": "uint256"
        }
      ],
      "stateMutability": "view",
      "type": "function"
    },
    {
      "inputs": [],
      "name": "owner",
      "outputs": [
        {
          "internalType": "address",
          "name": "",
          "type": "address"
        }
      ],
      "stateMutability": "view",
      "type": "function"
    },
    {
      "inputs": [],
      "name": "plgr_address",
      "outputs": [
        {
          "internalType": "address",
          "name": "",
          "type": "address"
        }
      ],
      "stateMutability": "view",
      "type": "function"
    },
    {
      "inputs": [
        {
          "internalType": "address",
          "name": "",
          "type": "address"
        }
      ],
      "name": "plgr_amounts",
      "outputs": [
        {
          "internalType": "uint256",
          "name": "",
          "type": "uint256"
        }
      ],
      "stateMutability": "view",
      "type": "function"
    },
    {
      "inputs": [],
      "name": "totalLockedAmounts",
      "outputs": [
        {
          "internalType": "uint256",
          "name": "",
          "type": "uint256"
        }
      ],
      "stateMutability": "view",
      "type": "function"
    },
    {
      "inputs": [],
      "name": "total_pledge",
      "outputs": [
        {
          "internalType": "uint256",
          "name": "",
          "type": "uint256"
        }
      ],
      "stateMutability": "view",
      "type": "function"
    },
    {
      "inputs": [],
      "name": "wait_time",
      "outputs": [
        {
          "internalType": "uint256",
          "name": "",
          "type": "uint256"
        }
      ],
      "stateMutability": "view",
      "type": "function"
    },
    {
      "inputs": [],
      "name": "x",
      "outputs": [
        {
          "internalType": "uint256",
          "name": "",
          "type": "uint256"
        }
      ],
      "stateMutability": "view",
      "type": "function"
    },
    {
      "inputs": [
        {
          "internalType": "uint256",
          "name": "_wait_time",
          "type": "uint256"
        }
      ],
      "name": "admin_update_configure",
      "outputs": [],
      "stateMutability": "nonpayable",
      "type": "function"
    },
    {
      "inputs": [
        {
          "internalType": "uint256",
          "name": "_x",
          "type": "uint256"
        }
      ],
      "name": "set_x",
      "outputs": [],
      "stateMutability": "nonpayable",
      "type": "function"
    },
    {
      "inputs": [
        {
          "internalType": "uint256",
          "name": "_base",
          "type": "uint256"
        }
      ],
      "name": "set_base",
      "outputs": [],
      "stateMutability": "nonpayable",
      "type": "function"
    },
    {
      "inputs": [
        {
          "internalType": "address",
          "name": "_bridge_address",
          "type": "address"
        },
        {
          "internalType": "address",
          "name": "_handler_address",
          "type": "address"
        },
        {
          "internalType": "uint8",
          "name": "_cb_ddid",
          "type": "uint8"
        },
        {
          "internalType": "bytes32",
          "name": "_cb_rid",
          "type": "bytes32"
        }
      ],
      "name": "admin_update_bridge",
      "outputs": [],
      "stateMutability": "nonpayable",
      "type": "function"
    },
    {
      "inputs": [
        {
          "internalType": "address",
          "name": "_owner",
          "type": "address"
        },
        {
          "internalType": "uint256",
          "name": "amount",
          "type": "uint256"
        }
      ],
      "name": "deposit_plgr",
      "outputs": [
        {
          "internalType": "bytes32",
          "name": "",
          "type": "bytes32"
        }
      ],
      "stateMutability": "nonpayable",
      "type": "function"
    },
    {
      "inputs": [
        {
          "internalType": "uint256",
          "name": "amount",
          "type": "uint256"
        }
      ],
      "name": "widthdraw_plgr",
      "outputs": [],
      "stateMutability": "nonpayable",
      "type": "function"
    },
    {
      "inputs": [
        {
          "internalType": "bytes",
          "name": "data",
          "type": "bytes"
        }
      ],
      "name": "deposit_mplgr_bridge",
      "outputs": [],
      "stateMutability": "nonpayable",
      "type": "function"
    },
    {
      "inputs": [],
      "name": "execute_upkeep",
      "outputs": [],
      "stateMutability": "nonpayable",
      "type": "function"
    }
  ],
  "bytecode": "0x60806040526103e860055569152d02c7e14af6800000600655600060075560006011553480156200002f57600080fd5b50604051620028a7380380620028a78339818101604052810190620000559190620001ca565b336000806101000a81548173ffffffffffffffffffffffffffffffffffffffff021916908373ffffffffffffffffffffffffffffffffffffffff16021790555084600160006101000a81548173ffffffffffffffffffffffffffffffffffffffff021916908373ffffffffffffffffffffffffffffffffffffffff16021790555083600260006101000a81548173ffffffffffffffffffffffffffffffffffffffff021916908373ffffffffffffffffffffffffffffffffffffffff16021790555082600360006101000a81548173ffffffffffffffffffffffffffffffffffffffff021916908373ffffffffffffffffffffffffffffffffffffffff16021790555081600960006101000a81548160ff021916908360ff16021790555080600a819055505050505050620002e5565b600081519050620001968162000297565b92915050565b600081519050620001ad81620002b1565b92915050565b600081519050620001c481620002cb565b92915050565b600080600080600060a08688031215620001e357600080fd5b6000620001f38882890162000185565b9550506020620002068882890162000185565b9450506040620002198882890162000185565b93505060606200022c88828901620001b3565b92505060806200023f888289016200019c565b9150509295509295909350565b600062000259826200026a565b9050919050565b6000819050919050565b600073ffffffffffffffffffffffffffffffffffffffff82169050919050565b600060ff82169050919050565b620002a2816200024c565b8114620002ae57600080fd5b50565b620002bc8162000260565b8114620002c857600080fd5b50565b620002d6816200028a565b8114620002e257600080fd5b50565b6125b280620002f56000396000f3fe608060405234801561001057600080fd5b506004361061014d5760003560e01c80638b6866aa116100c3578063c7b4c5bf1161007c578063c7b4c5bf14610359578063c970bdf414610375578063dc2993f8146103a6578063dfad049e146103c2578063e8af214a146103f2578063ef6c7929146104105761014d565b80638b6866aa146102bb5780638da5cb5b146102d95780638f5899bc146102f7578063a5f2857814610315578063ab7272ea14610331578063add8bb961461034f5761014d565b80632068a843116101155780632068a843146101f95780632e7e0c29146102175780633219c4df146102475780634582a8c5146102655780635001f3b514610281578063830807041461029f5761014d565b806302c0ab3b1461015257806304ecb8441461016e5780630c55699c1461018c5780631255c189146101aa57806319e54812146101c8575b600080fd5b61016c60048036038101906101679190611a24565b610441565b005b6101766105ae565b6040516101839190612149565b60405180910390f35b6101946105c1565b6040516101a1919061212e565b60405180910390f35b6101b26105c7565b6040516101bf9190611e63565b60405180910390f35b6101e260048036038101906101dd91906119fb565b6105ed565b6040516101f0929190611eb5565b60405180910390f35b610201610631565b60405161020e9190611f23565b60405180910390f35b610231600480360381019061022c9190611996565b610637565b60405161023e9190611f23565b60405180910390f35b61024f6107dd565b60405161025c9190611e63565b60405180910390f35b61027f600480360381019061027a9190611a65565b610803565b005b61028961089b565b604051610296919061212e565b60405180910390f35b6102b960048036038101906102b49190611a65565b6108a1565b005b6102c3610a27565b6040516102d0919061212e565b60405180910390f35b6102e1610a2d565b6040516102ee9190611e63565b60405180910390f35b6102ff610a51565b60405161030c919061212e565b60405180910390f35b61032f600480360381019061032a9190611a65565b610a57565b005b610339610b32565b6040516103469190611e63565b60405180910390f35b610357610b58565b005b610373600480360381019061036e9190611933565b611197565b005b61038f600480360381019061038a9190611a65565b6112cf565b60405161039d929190611f83565b60405180910390f35b6103c060048036038101906103bb9190611a65565b611303565b005b6103dc60048036038101906103d7919061190a565b6113de565b6040516103e9919061212e565b60405180910390f35b6103fa6113f6565b604051610407919061212e565b60405180910390f35b61042a600480360381019061042591906119fb565b6113fc565b604051610438929190611eb5565b60405180910390f35b600360009054906101000a900473ffffffffffffffffffffffffffffffffffffffff1673ffffffffffffffffffffffffffffffffffffffff163373ffffffffffffffffffffffffffffffffffffffff16146104d1576040517f08c379a00000000000000000000000000000000000000000000000000000000081526004016104c89061202e565b60405180910390fd5b60006104e760008361144090919063ffffffff16565b905060006104ff6014846114b690919063ffffffff16565b905061056661051860038361151d90919063ffffffff16565b600b60008573ffffffffffffffffffffffffffffffffffffffff1673ffffffffffffffffffffffffffffffffffffffff1681526020019081526020016000205461153390919063ffffffff16565b600b60008473ffffffffffffffffffffffffffffffffffffffff1673ffffffffffffffffffffffffffffffffffffffff16815260200190815260200160002081905550505050565b600960009054906101000a900460ff1681565b60055481565b600260009054906101000a900473ffffffffffffffffffffffffffffffffffffffff1681565b600c6020528060005260406000206000915090508060000160009054906101000a900473ffffffffffffffffffffffffffffffffffffffff16908060010154905082565b600a5481565b6000808383426011546040516020016106539493929190611ede565b6040516020818303038152906040528051906020012090506011600081548092919061067e906123f1565b919050555083600c600083815260200190815260200160002060000160006101000a81548173ffffffffffffffffffffffffffffffffffffffff021916908373ffffffffffffffffffffffffffffffffffffffff16021790555082600c600083815260200190815260200160002060010181905550610721600160009054906101000a900473ffffffffffffffffffffffffffffffffffffffff16853086611549565b60006040518060400160405280838152602001428152509050601081908060018154018082558091505060019003906000526020600020906002020160009091909190915060008201518160000155602082015181600101555050836008600082825461078e919061223b565b925050819055507f1008429730dc0e33a6e63ee42972c220ab8becaf21d29983a99a80f45efa060b828686426040516107ca9493929190611f3e565b60405180910390a1819250505092915050565b600160009054906101000a900473ffffffffffffffffffffffffffffffffffffffff1681565b60008054906101000a900473ffffffffffffffffffffffffffffffffffffffff1673ffffffffffffffffffffffffffffffffffffffff163373ffffffffffffffffffffffffffffffffffffffff1614610891576040517f08c379a00000000000000000000000000000000000000000000000000000000081526004016108889061206e565b60405180910390fd5b8060048190555050565b60065481565b6000600b60003373ffffffffffffffffffffffffffffffffffffffff1673ffffffffffffffffffffffffffffffffffffffff16815260200190815260200160002054905081811015610928576040517f08c379a000000000000000000000000000000000000000000000000000000000815260040161091f906120ae565b60405180910390fd5b61097a82600b60003373ffffffffffffffffffffffffffffffffffffffff1673ffffffffffffffffffffffffffffffffffffffff1681526020019081526020016000205461156190919063ffffffff16565b600b60003373ffffffffffffffffffffffffffffffffffffffff1673ffffffffffffffffffffffffffffffffffffffff168152602001908152602001600020819055506109ea600160009054906101000a900473ffffffffffffffffffffffffffffffffffffffff163384611577565b7f67081655db492a9224c5bc8d7d3ccadb8bb37d603b8697c1cb2081a6825138543383604051610a1b929190611eb5565b60405180910390a15050565b60085481565b60008054906101000a900473ffffffffffffffffffffffffffffffffffffffff1681565b60045481565b60008054906101000a900473ffffffffffffffffffffffffffffffffffffffff1673ffffffffffffffffffffffffffffffffffffffff163373ffffffffffffffffffffffffffffffffffffffff1614610ae5576040517f08c379a0000000000000000000000000000000000000000000000000000000008152600401610adc9061206e565b60405180910390fd5b60008111610b28576040517f08c379a0000000000000000000000000000000000000000000000000000000008152600401610b1f906120ee565b60405180910390fd5b8060058190555050565b600360009054906101000a900473ffffffffffffffffffffffffffffffffffffffff1681565b60006010805490509050600060065411610ba7576040517f08c379a0000000000000000000000000000000000000000000000000000000008152600401610b9e90611fce565b60405180910390fd5b600060055411610bec576040517f08c379a0000000000000000000000000000000000000000000000000000000008152600401610be39061204e565b60405180910390fd5b60006004600554600654610c0091906122c2565b610c0a9190612291565b90506000600190508160085411610c245760019050610c29565b600090505b60005b83811015610dbc57600060108281548110610c70577f4e487b7100000000000000000000000000000000000000000000000000000000600052603260045260246000fd5b90600052602060002090600202016000015490506000600c6000838152602001908152602001600020600101549050600084610cc4578560085483610cb59190612291565b610cbf91906122c2565b610cc6565b815b90506000600382610cd79190612291565b9050600c600085815260200190815260200160002060000160009054906101000a900473ffffffffffffffffffffffffffffffffffffffff16600d600086815260200190815260200160002060000160006101000a81548173ffffffffffffffffffffffffffffffffffffffff021916908373ffffffffffffffffffffffffffffffffffffffff16021790555080600d6000868152602001908152602001600020600101819055508083610d8b919061231c565b600c600086815260200190815260200160002060010181905550505050508080610db4906123f1565b915050610c2c565b50600083604051602001610dd0919061212e565b604051602081830303815290604052905060005b84811015610f1057600060108281548110610e28577f4e487b7100000000000000000000000000000000000000000000000000000000600052603260045260246000fd5b90600052602060002090600202016000015490506000600d600083815260200190815260200160002060000160009054906101000a900473ffffffffffffffffffffffffffffffffffffffff16604051602001610e859190611e31565b6040516020818303038152906040529050610ea9818561158d90919063ffffffff16565b93506000600d600084815260200190815260200160002060010154604051602001610ed4919061212e565b6040516020818303038152906040529050610ef8818661158d90919063ffffffff16565b94505050508080610f08906123f1565b915050610de4565b5060005b8481101561108557600060108281548110610f58577f4e487b7100000000000000000000000000000000000000000000000000000000600052603260045260246000fd5b9060005260206000209060020201600001549050600d6000828152602001908152602001600020600080820160006101000a81549073ffffffffffffffffffffffffffffffffffffffff0219169055600182016000905550506000600c600083815260200190815260200160002060010154141561107157600c6000828152602001908152602001600020600080820160006101000a81549073ffffffffffffffffffffffffffffffffffffffff0219169055600182016000905550506010828154811061104f577f4e487b7100000000000000000000000000000000000000000000000000000000600052603260045260246000fd5b9060005260206000209060020201600080820160009055600182016000905550505b50808061107d906123f1565b915050610f14565b506000816040516020016110999190611fac565b6040516020818303038152906040529050600081516040516020016110be919061212e565b604051602081830303815290604052905060006110e4838361158d90919063ffffffff16565b90506000600260009054906101000a900473ffffffffffffffffffffffffffffffffffffffff1690508073ffffffffffffffffffffffffffffffffffffffff166305e2ca17600960009054906101000a900460ff16600a54856040518463ffffffff1660e01b815260040161115b93929190612164565b600060405180830381600087803b15801561117557600080fd5b505af1158015611189573d6000803e3d6000fd5b505050505050505050505050565b60008054906101000a900473ffffffffffffffffffffffffffffffffffffffff1673ffffffffffffffffffffffffffffffffffffffff163373ffffffffffffffffffffffffffffffffffffffff1614611225576040517f08c379a000000000000000000000000000000000000000000000000000000000815260040161121c9061206e565b60405180910390fd5b83600260006101000a81548173ffffffffffffffffffffffffffffffffffffffff021916908373ffffffffffffffffffffffffffffffffffffffff16021790555082600360006101000a81548173ffffffffffffffffffffffffffffffffffffffff021916908373ffffffffffffffffffffffffffffffffffffffff16021790555081600960006101000a81548160ff021916908360ff16021790555080600a8190555050505050565b601081815481106112df57600080fd5b90600052602060002090600202016000915090508060000154908060010154905082565b60008054906101000a900473ffffffffffffffffffffffffffffffffffffffff1673ffffffffffffffffffffffffffffffffffffffff163373ffffffffffffffffffffffffffffffffffffffff1614611391576040517f08c379a00000000000000000000000000000000000000000000000000000000081526004016113889061206e565b60405180910390fd5b600081116113d4576040517f08c379a00000000000000000000000000000000000000000000000000000000081526004016113cb9061210e565b60405180910390fd5b8060068190555050565b600b6020528060005260406000206000915090505481565b60075481565b600d6020528060005260406000206000915090508060000160009054906101000a900473ffffffffffffffffffffffffffffffffffffffff16908060010154905082565b600060148261144f919061223b565b83511015611492576040517f08c379a0000000000000000000000000000000000000000000000000000000008152600401611489906120ce565b60405180910390fd5b60006c01000000000000000000000000836020860101510490508091505092915050565b60006020826114c5919061223b565b83511015611508576040517f08c379a00000000000000000000000000000000000000000000000000000000081526004016114ff9061208e565b60405180910390fd5b60008260208501015190508091505092915050565b6000818361152b9190612291565b905092915050565b60008183611541919061223b565b905092915050565b600084905061155a81858585611617565b5050505050565b6000818361156f919061231c565b905092915050565b60008390506115878184846116a0565b50505050565b6060806040519050835180825260208201818101602087015b818310156115c357805183526020830192506020810190506115a6565b50855192508351830184528091508282019050602086015b818310156115f857805183526020830192506020810190506115db565b50601f19601f8851850115830101166040525050508091505092915050565b61169a846323b872dd60e01b85858560405160240161163893929190611e7e565b604051602081830303815290604052907bffffffffffffffffffffffffffffffffffffffffffffffffffffffff19166020820180517bffffffffffffffffffffffffffffffffffffffffffffffffffffffff8381831617835250505050611726565b50505050565b6117218363a9059cbb60e01b84846040516024016116bf929190611eb5565b604051602081830303815290604052907bffffffffffffffffffffffffffffffffffffffffffffffffffffffff19166020820180517bffffffffffffffffffffffffffffffffffffffffffffffffffffffff8381831617835250505050611726565b505050565b6000808373ffffffffffffffffffffffffffffffffffffffff168360405161174e9190611e4c565b6000604051808303816000865af19150503d806000811461178b576040519150601f19603f3d011682016040523d82523d6000602084013e611790565b606091505b5091509150816117d5576040517f08c379a00000000000000000000000000000000000000000000000000000000081526004016117cc9061200e565b60405180910390fd5b60008151111561183357808060200190518101906117f391906119d2565b611832576040517f08c379a000000000000000000000000000000000000000000000000000000000815260040161182990611fee565b60405180910390fd5b5b50505050565b600061184c611847846121d3565b6121a2565b90508281526020810184848401111561186457600080fd5b61186f8482856123af565b509392505050565b60008135905061188681612509565b92915050565b60008151905061189b81612520565b92915050565b6000813590506118b081612537565b92915050565b600082601f8301126118c757600080fd5b81356118d7848260208601611839565b91505092915050565b6000813590506118ef8161254e565b92915050565b60008135905061190481612565565b92915050565b60006020828403121561191c57600080fd5b600061192a84828501611877565b91505092915050565b6000806000806080858703121561194957600080fd5b600061195787828801611877565b945050602061196887828801611877565b9350506040611979878288016118f5565b925050606061198a878288016118a1565b91505092959194509250565b600080604083850312156119a957600080fd5b60006119b785828601611877565b92505060206119c8858286016118e0565b9150509250929050565b6000602082840312156119e457600080fd5b60006119f28482850161188c565b91505092915050565b600060208284031215611a0d57600080fd5b6000611a1b848285016118a1565b91505092915050565b600060208284031215611a3657600080fd5b600082013567ffffffffffffffff811115611a5057600080fd5b611a5c848285016118b6565b91505092915050565b600060208284031215611a7757600080fd5b6000611a85848285016118e0565b91505092915050565b611a9781612350565b82525050565b611aae611aa982612350565b61243a565b82525050565b611abd8161236e565b82525050565b6000611ace82612203565b611ad8818561220e565b9350611ae88185602086016123be565b611af1816124eb565b840191505092915050565b6000611b0782612203565b611b11818561221f565b9350611b218185602086016123be565b80840191505092915050565b6000611b3a600c8361222a565b91507f62617365206973207a65726f00000000000000000000000000000000000000006000830152602082019050919050565b6000611b7a60208361222a565b91507f45524332303a206f7065726174696f6e20646964206e6f7420737563636565646000830152602082019050919050565b6000611bba60128361222a565b91507f45524332303a2063616c6c206661696c656400000000000000000000000000006000830152602082019050919050565b6000611bfa60218361222a565b91507f546869732066756e6374696f6e206f6e6c7920627920636861696e627269646760008301527f65000000000000000000000000000000000000000000000000000000000000006020830152604082019050919050565b6000611c6060098361222a565b91507f78206973207a65726f00000000000000000000000000000000000000000000006000830152602082019050919050565b6000611ca0601a8361222a565b91507f41646d696e206f6e6c792063616c6c6564206279206f776e65720000000000006000830152602082019050919050565b6000611ce060158361222a565b91507f746f55696e743235365f6f75744f66426f756e647300000000000000000000006000830152602082019050919050565b6000611d2060178361222a565b91507f596f752068617665206e6f20656e6f75676820504c47520000000000000000006000830152602082019050919050565b6000611d6060158361222a565b91507f746f416464726573735f6f75744f66426f756e647300000000000000000000006000830152602082019050919050565b6000611da060098361222a565b91507f696e76616c6964207800000000000000000000000000000000000000000000006000830152602082019050919050565b6000611de0600c8361222a565b91507f696e76616c6964206261736500000000000000000000000000000000000000006000830152602082019050919050565b611e1c81612398565b82525050565b611e2b816123a2565b82525050565b6000611e3d8284611a9d565b60148201915081905092915050565b6000611e588284611afc565b915081905092915050565b6000602082019050611e786000830184611a8e565b92915050565b6000606082019050611e936000830186611a8e565b611ea06020830185611a8e565b611ead6040830184611e13565b949350505050565b6000604082019050611eca6000830185611a8e565b611ed76020830184611e13565b9392505050565b6000608082019050611ef36000830187611a8e565b611f006020830186611e13565b611f0d6040830185611e13565b611f1a6060830184611e13565b95945050505050565b6000602082019050611f386000830184611ab4565b92915050565b6000608082019050611f536000830187611ab4565b611f606020830186611a8e565b611f6d6040830185611e13565b611f7a6060830184611e13565b95945050505050565b6000604082019050611f986000830185611ab4565b611fa56020830184611e13565b9392505050565b60006020820190508181036000830152611fc68184611ac3565b905092915050565b60006020820190508181036000830152611fe781611b2d565b9050919050565b6000602082019050818103600083015261200781611b6d565b9050919050565b6000602082019050818103600083015261202781611bad565b9050919050565b6000602082019050818103600083015261204781611bed565b9050919050565b6000602082019050818103600083015261206781611c53565b9050919050565b6000602082019050818103600083015261208781611c93565b9050919050565b600060208201905081810360008301526120a781611cd3565b9050919050565b600060208201905081810360008301526120c781611d13565b9050919050565b600060208201905081810360008301526120e781611d53565b9050919050565b6000602082019050818103600083015261210781611d93565b9050919050565b6000602082019050818103600083015261212781611dd3565b9050919050565b60006020820190506121436000830184611e13565b92915050565b600060208201905061215e6000830184611e22565b92915050565b60006060820190506121796000830186611e22565b6121866020830185611ab4565b81810360408301526121988184611ac3565b9050949350505050565b6000604051905081810181811067ffffffffffffffff821117156121c9576121c86124bc565b5b8060405250919050565b600067ffffffffffffffff8211156121ee576121ed6124bc565b5b601f19601f8301169050602081019050919050565b600081519050919050565b600082825260208201905092915050565b600081905092915050565b600082825260208201905092915050565b600061224682612398565b915061225183612398565b9250827fffffffffffffffffffffffffffffffffffffffffffffffffffffffffffffffff038211156122865761228561245e565b5b828201905092915050565b600061229c82612398565b91506122a783612398565b9250826122b7576122b661248d565b5b828204905092915050565b60006122cd82612398565b91506122d883612398565b9250817fffffffffffffffffffffffffffffffffffffffffffffffffffffffffffffffff04831182151516156123115761231061245e565b5b828202905092915050565b600061232782612398565b915061233283612398565b9250828210156123455761234461245e565b5b828203905092915050565b600061235b82612378565b9050919050565b60008115159050919050565b6000819050919050565b600073ffffffffffffffffffffffffffffffffffffffff82169050919050565b6000819050919050565b600060ff82169050919050565b82818337600083830152505050565b60005b838110156123dc5780820151818401526020810190506123c1565b838111156123eb576000848401525b50505050565b60006123fc82612398565b91507fffffffffffffffffffffffffffffffffffffffffffffffffffffffffffffffff82141561242f5761242e61245e565b5b600182019050919050565b60006124458261244c565b9050919050565b6000612457826124fc565b9050919050565b7f4e487b7100000000000000000000000000000000000000000000000000000000600052601160045260246000fd5b7f4e487b7100000000000000000000000000000000000000000000000000000000600052601260045260246000fd5b7f4e487b7100000000000000000000000000000000000000000000000000000000600052604160045260246000fd5b6000601f19601f8301169050919050565b60008160601b9050919050565b61251281612350565b811461251d57600080fd5b50565b61252981612362565b811461253457600080fd5b50565b6125408161236e565b811461254b57600080fd5b50565b61255781612398565b811461256257600080fd5b50565b61256e816123a2565b811461257957600080fd5b5056fea26469706673582212200cb3b699747cdd2837a50b3257fb37fd18b6201b1a65c33f4c977f1fb89049a864736f6c63430008000033",
  "immutableReferences": {},
  "source": "// SPDX-License-Identifier: LGPL-3.0-only\npragma solidity ^0.8.0;\n\nimport './ERC20Safe.sol';\nimport './ABDKMathQuad.sol';\nimport 'solidity-bytes-utils/contracts/BytesLib.sol';\nimport \"@openzeppelin/contracts/utils/math/SafeMath.sol\";\n\ninterface IBridge {\n    function deposit(uint8 destinationDomainID, bytes32 resourceID, bytes calldata data) external payable;\n}\n\ncontract PledgerBridgeBSC is ERC20Safe {\n    using BytesLib for bytes;\n    using SafeMath for uint256;\n\n    address public owner;\n\n    address public plgr_address;\n\n    address public bridge_address;\n\n    address public handler_address;\n\n    uint256 public wait_time;\n\n    uint256 public x = 1000;\n    //uint256 public price = 1;\n    uint256 public base = 100000 * 10 ** 18;\n    uint256 public total_pledge = 0;\n\n    uint256 public totalLockedAmounts;\n\n    // Arguments for chainbridge.\n    uint8 public cb_ddid;\n    bytes32 public cb_rid;\n\n    struct LockedPLGRTx {\n        address owner;\n        uint256 amount;\n    }\n\n    struct LockInfo {\n        bytes32 txid;\n        uint256 time;\n    }\n\n    mapping (address => uint256) public plgr_amounts;\n\n    mapping (bytes32 => LockedPLGRTx) public locked_plgr_tx;\n    mapping (bytes32 => LockedPLGRTx) public can_release;\n    mapping(bytes32 => uint256) txid_release_amount;\n    bytes32[] index_txid;\n\n    LockInfo[] public locked_infos;\n\n    uint256 plgr_lock_nonce = 0;\n\n    event DepositPLGR(bytes32 txid, address owner, uint256 amount, uint time);\n\n    event WithdrawPLGR(address owner, uint256 amount);\n\n    constructor(address _plgr_address, address _bridge_address, address _handler_address, uint8 _cb_ddid, bytes32 _cb_rid) public {\n        owner = msg.sender;\n        plgr_address = _plgr_address;\n        bridge_address = _bridge_address;\n        handler_address = _handler_address;\n        cb_ddid = _cb_ddid;\n        cb_rid = _cb_rid;\n    }\n\n    function admin_update_configure(uint256 _wait_time) external {\n        require(msg.sender == owner, \"Admin only called by owner\");\n        wait_time = _wait_time;\n    }\n\n    function set_x(uint256 _x) external {\n        require(msg.sender == owner, \"Admin only called by owner\");\n        require(_x > 0, \"invalid x\");\n        x = _x;\n    }\n\n    //function set_price(uint256 _price) external {\n    //    require(msg.sender == owner, \"Admin only called by owner\");\n    //    require(_price > 0, \"invalid price\");\n    //    price = _price;\n    //}\n\n    function set_base(uint256 _base) external {\n        require(msg.sender == owner, \"Admin only called by owner\");\n        require(_base > 0, \"invalid base\");\n        base = _base;\n    }\n\n    function admin_update_bridge(address _bridge_address, address _handler_address, uint8 _cb_ddid, bytes32 _cb_rid) external {\n        require(msg.sender == owner, \"Admin only called by owner\");\n\n        bridge_address = _bridge_address;\n        handler_address = _handler_address;\n        cb_ddid = _cb_ddid;\n        cb_rid = _cb_rid;\n    }\n\n    // User call this function on BSC to deposit PLGR.\n    function deposit_plgr(address _owner, uint256 amount) external returns(bytes32) {\n\n        bytes32 txid = keccak256(abi.encode(_owner, amount, block.timestamp, plgr_lock_nonce));\n        plgr_lock_nonce ++;\n\n        locked_plgr_tx[txid].owner = _owner;\n        locked_plgr_tx[txid].amount = amount;\n\n        lockERC20(plgr_address, _owner, address(this), amount);\n\n        LockInfo memory lock_info = LockInfo (txid, block.timestamp);\n\n        locked_infos.push(lock_info);\n\n        totalLockedAmounts += amount;\n\n        emit DepositPLGR(txid, _owner, amount, block.timestamp);\n\n        return txid;\n    }\n\n    // User call this function on BSC to widthdraw PLGR.\n    function widthdraw_plgr(uint256 amount) external {\n        uint256 value = plgr_amounts[msg.sender];\n\n        require(value >= amount, \"You have no enough PLGR\");\n\n        //plgr_amounts[msg.sender] -= amount;\n        plgr_amounts[msg.sender]= plgr_amounts[msg.sender].sub(amount);\n        releaseERC20(plgr_address, msg.sender, amount);\n\n        emit WithdrawPLGR(msg.sender, amount);\n    }\n\n    // Chainbridge call this function on BSC\n    function deposit_mplgr_bridge(bytes memory data) external {\n        require(msg.sender == handler_address, \"This function only by chainbridge\");\n\n        address addr = data.toAddress(0);\n        uint256 amount = data.toUint256(20);\n\n        //plgr_amounts[addr] += amount / 3;\n        //total_pledge += amount / 3;\n        plgr_amounts[addr] = plgr_amounts[addr].add(amount.div(3));\n        // total_pledge = total_pledge.add(amount.div(3));\n    }\n\n    function execute_upkeep() external {\n\n        uint256 count = locked_infos.length;\n\n        require(base > 0, \"base is zero\");\n        require(x > 0, \"x is zero\");\n        // base * x / 4\n\n        uint total_release = base * x / 4;\n\n        bool crossAllLocked = true;\n        //  totalLockedAmounts <= total_release => \n        if (totalLockedAmounts <= total_release) {\n            crossAllLocked = true;\n        } else {\n            //  totalLockedAmounts > total_release =>  (userLocked / totalLockedAmounts) * total_release \n            crossAllLocked = false;\n        }\n\n        for (uint i = 0; i < count; i++) {\n            bytes32 txid = locked_infos[i].txid;\n            uint256 lockedAmount = locked_plgr_tx[txid].amount;\n\n            uint256 crossedAmount = crossAllLocked ? lockedAmount : (lockedAmount / totalLockedAmounts) * total_release;\n            uint256 ruleOfRatioAmount = crossedAmount / 3;\n            \n            can_release[txid].owner = locked_plgr_tx[txid].owner;\n            can_release[txid].amount = ruleOfRatioAmount;\n\n            // update locked_plgr_tx\n            locked_plgr_tx[txid].amount = lockedAmount - ruleOfRatioAmount;\n        }\n\n        bytes memory rdata = abi.encode(count);\n        for (uint i = 0; i < count; i ++) {\n            bytes32 txid = locked_infos[i].txid;\n\n            bytes memory addr = abi.encodePacked(can_release[txid].owner);\n            rdata = rdata.concat(addr);\n\n            bytes memory amount = abi.encode(can_release[txid].amount);\n            rdata = rdata.concat(amount);\n        }\n\n        // release \n        for (uint i=0; i<count;i++) {\n            bytes32 txid = locked_infos[i].txid;\n\n            delete can_release[txid];\n\n            if (locked_plgr_tx[txid].amount == 0) {\n                delete locked_plgr_tx[txid];\n                delete locked_infos[i];\n            }\n        }\n\n        bytes memory args_bytes = abi.encode(rdata);\n        bytes memory length = abi.encode(args_bytes.length);\n        bytes memory args = length.concat(args_bytes);\n        \n        IBridge bridge = IBridge(bridge_address);\n        bridge.deposit(cb_ddid, cb_rid, args);\n    }\n}",
  "sourcePath": "/home/u20/codespace/pledge-backend/bridge-backend/contracts/BridgeBSC.sol",
  "compiler": {
    "name": "solc",
    "version": "0.8.0+commit.c7dfd78e.Emscripten.clang"
  },
  "schemaVersion": "3.3.1",
  "updatedAt": "2022-01-04T14:16:46.803Z",
  "devdoc": {
    "kind": "dev",
    "methods": {},
    "version": 1
  },
  "userdoc": {
    "kind": "user",
    "methods": {},
    "version": 1
  }
}