{
  "contractName": "PledgerBridgeBSC",
  "abi": [
    {
      "inputs": [
        {
          "internalType": "address",
          "name": "_plgr_address",
          "type": "address"
        },
        {
          "internalType": "address",
          "name": "_bridge_address",
          "type": "address"
        },
        {
          "internalType": "address",
          "name": "_handler_address",
          "type": "address"
        },
        {
          "internalType": "uint8",
          "name": "_cb_ddid",
          "type": "uint8"
        },
        {
          "internalType": "bytes32",
          "name": "_cb_rid",
          "type": "bytes32"
        }
      ],
      "stateMutability": "nonpayable",
      "type": "constructor"
    },
    {
      "anonymous": false,
      "inputs": [
        {
          "indexed": false,
          "internalType": "bytes32",
          "name": "txid",
          "type": "bytes32"
        },
        {
          "indexed": false,
          "internalType": "address",
          "name": "owner",
          "type": "address"
        },
        {
          "indexed": false,
          "internalType": "uint256",
          "name": "amount",
          "type": "uint256"
        },
        {
          "indexed": false,
          "internalType": "uint256",
          "name": "time",
          "type": "uint256"
        }
      ],
      "name": "DepositPLGR",
      "type": "event"
    },
    {
      "anonymous": false,
      "inputs": [
        {
          "indexed": false,
          "internalType": "address",
          "name": "owner",
          "type": "address"
        },
        {
          "indexed": false,
          "internalType": "uint256",
          "name": "amount",
          "type": "uint256"
        }
      ],
      "name": "WithdrawPLGR",
      "type": "event"
    },
    {
      "inputs": [],
      "name": "base",
      "outputs": [
        {
          "internalType": "uint256",
          "name": "",
          "type": "uint256"
        }
      ],
      "stateMutability": "view",
      "type": "function",
      "constant": true
    },
    {
      "inputs": [],
      "name": "bridge_address",
      "outputs": [
        {
          "internalType": "address",
          "name": "",
          "type": "address"
        }
      ],
      "stateMutability": "view",
      "type": "function",
      "constant": true
    },
    {
      "inputs": [
        {
          "internalType": "bytes32",
          "name": "",
          "type": "bytes32"
        }
      ],
      "name": "can_release",
      "outputs": [
        {
          "internalType": "address",
          "name": "owner",
          "type": "address"
        },
        {
          "internalType": "uint256",
          "name": "amount",
          "type": "uint256"
        }
      ],
      "stateMutability": "view",
      "type": "function",
      "constant": true
    },
    {
      "inputs": [],
      "name": "cb_ddid",
      "outputs": [
        {
          "internalType": "uint8",
          "name": "",
          "type": "uint8"
        }
      ],
      "stateMutability": "view",
      "type": "function",
      "constant": true
    },
    {
      "inputs": [],
      "name": "cb_rid",
      "outputs": [
        {
          "internalType": "bytes32",
          "name": "",
          "type": "bytes32"
        }
      ],
      "stateMutability": "view",
      "type": "function",
      "constant": true
    },
    {
      "inputs": [],
      "name": "handler_address",
      "outputs": [
        {
          "internalType": "address",
          "name": "",
          "type": "address"
        }
      ],
      "stateMutability": "view",
      "type": "function",
      "constant": true
    },
    {
      "inputs": [
        {
          "internalType": "uint256",
          "name": "",
          "type": "uint256"
        }
      ],
      "name": "locked_infos",
      "outputs": [
        {
          "internalType": "bytes32",
          "name": "txid",
          "type": "bytes32"
        },
        {
          "internalType": "uint256",
          "name": "time",
          "type": "uint256"
        }
      ],
      "stateMutability": "view",
      "type": "function",
      "constant": true
    },
    {
      "inputs": [
        {
          "internalType": "bytes32",
          "name": "",
          "type": "bytes32"
        }
      ],
      "name": "locked_plgr_tx",
      "outputs": [
        {
          "internalType": "address",
          "name": "owner",
          "type": "address"
        },
        {
          "internalType": "uint256",
          "name": "amount",
          "type": "uint256"
        }
      ],
      "stateMutability": "view",
      "type": "function",
      "constant": true
    },
    {
      "inputs": [],
      "name": "owner",
      "outputs": [
        {
          "internalType": "address",
          "name": "",
          "type": "address"
        }
      ],
      "stateMutability": "view",
      "type": "function",
      "constant": true
    },
    {
      "inputs": [],
      "name": "plgr_address",
      "outputs": [
        {
          "internalType": "address",
          "name": "",
          "type": "address"
        }
      ],
      "stateMutability": "view",
      "type": "function",
      "constant": true
    },
    {
      "inputs": [
        {
          "internalType": "address",
          "name": "",
          "type": "address"
        }
      ],
      "name": "plgr_amounts",
      "outputs": [
        {
          "internalType": "uint256",
          "name": "",
          "type": "uint256"
        }
      ],
      "stateMutability": "view",
      "type": "function",
      "constant": true
    },
    {
      "inputs": [],
      "name": "total_locked_amounts",
      "outputs": [
        {
          "internalType": "uint256",
          "name": "",
          "type": "uint256"
        }
      ],
      "stateMutability": "view",
      "type": "function",
      "constant": true
    },
    {
      "inputs": [],
      "name": "wait_time",
      "outputs": [
        {
          "internalType": "uint256",
          "name": "",
          "type": "uint256"
        }
      ],
      "stateMutability": "view",
      "type": "function",
      "constant": true
    },
    {
      "inputs": [],
      "name": "x",
      "outputs": [
        {
          "internalType": "uint256",
          "name": "",
          "type": "uint256"
        }
      ],
      "stateMutability": "view",
      "type": "function",
      "constant": true
    },
    {
      "inputs": [
        {
          "internalType": "uint256",
          "name": "_wait_time",
          "type": "uint256"
        }
      ],
      "name": "admin_update_configure",
      "outputs": [],
      "stateMutability": "nonpayable",
      "type": "function"
    },
    {
      "inputs": [
        {
          "internalType": "uint256",
          "name": "_x",
          "type": "uint256"
        }
      ],
      "name": "set_x",
      "outputs": [],
      "stateMutability": "nonpayable",
      "type": "function"
    },
    {
      "inputs": [
        {
          "internalType": "uint256",
          "name": "_base",
          "type": "uint256"
        }
      ],
      "name": "set_base",
      "outputs": [],
      "stateMutability": "nonpayable",
      "type": "function"
    },
    {
      "inputs": [
        {
          "internalType": "address",
          "name": "_bridge_address",
          "type": "address"
        },
        {
          "internalType": "address",
          "name": "_handler_address",
          "type": "address"
        },
        {
          "internalType": "uint8",
          "name": "_cb_ddid",
          "type": "uint8"
        },
        {
          "internalType": "bytes32",
          "name": "_cb_rid",
          "type": "bytes32"
        }
      ],
      "name": "admin_update_bridge",
      "outputs": [],
      "stateMutability": "nonpayable",
      "type": "function"
    },
    {
      "inputs": [
        {
          "internalType": "address",
          "name": "_owner",
          "type": "address"
        },
        {
          "internalType": "uint256",
          "name": "amount",
          "type": "uint256"
        }
      ],
      "name": "deposit_plgr",
      "outputs": [
        {
          "internalType": "bytes32",
          "name": "",
          "type": "bytes32"
        }
      ],
      "stateMutability": "nonpayable",
      "type": "function"
    },
    {
      "inputs": [
        {
          "internalType": "uint256",
          "name": "amount",
          "type": "uint256"
        }
      ],
      "name": "widthdraw_plgr",
      "outputs": [],
      "stateMutability": "nonpayable",
      "type": "function"
    },
    {
      "inputs": [
        {
          "internalType": "bytes",
          "name": "data",
          "type": "bytes"
        }
      ],
      "name": "deposit_mplgr_bridge",
      "outputs": [],
      "stateMutability": "nonpayable",
      "type": "function"
    },
    {
      "inputs": [],
      "name": "execute_upkeep",
      "outputs": [],
      "stateMutability": "nonpayable",
      "type": "function"
    }
  ],
  "bytecode": "0x6080604052600160055569152d02c7e14af680000060065560006010553480156200002957600080fd5b50604051620028723803806200287283398181016040528101906200004f9190620001c4565b336000806101000a81548173ffffffffffffffffffffffffffffffffffffffff021916908373ffffffffffffffffffffffffffffffffffffffff16021790555084600160006101000a81548173ffffffffffffffffffffffffffffffffffffffff021916908373ffffffffffffffffffffffffffffffffffffffff16021790555083600260006101000a81548173ffffffffffffffffffffffffffffffffffffffff021916908373ffffffffffffffffffffffffffffffffffffffff16021790555082600360006101000a81548173ffffffffffffffffffffffffffffffffffffffff021916908373ffffffffffffffffffffffffffffffffffffffff16021790555081600860006101000a81548160ff021916908360ff160217905550806009819055505050505050620002df565b600081519050620001908162000291565b92915050565b600081519050620001a781620002ab565b92915050565b600081519050620001be81620002c5565b92915050565b600080600080600060a08688031215620001dd57600080fd5b6000620001ed888289016200017f565b955050602062000200888289016200017f565b945050604062000213888289016200017f565b93505060606200022688828901620001ad565b9250506080620002398882890162000196565b9150509295509295909350565b6000620002538262000264565b9050919050565b6000819050919050565b600073ffffffffffffffffffffffffffffffffffffffff82169050919050565b600060ff82169050919050565b6200029c8162000246565b8114620002a857600080fd5b50565b620002b6816200025a565b8114620002c257600080fd5b50565b620002d08162000284565b8114620002dc57600080fd5b50565b61258380620002ef6000396000f3fe608060405234801561001057600080fd5b50600436106101425760003560e01c806383080704116100b8578063add8bb961161007c578063add8bb9614610344578063c7b4c5bf1461034e578063c970bdf41461036a578063dc2993f81461039b578063dfad049e146103b7578063ef6c7929146103e757610142565b806383080704146102b25780638da5cb5b146102ce5780638f5899bc146102ec578063a5f285781461030a578063ab7272ea1461032657610142565b80632068a8431161010a5780632068a843146101ee5780632e7e0c291461020c5780633219c4df1461023c5780634582a8c51461025a5780635001f3b514610276578063761c6fc31461029457610142565b806302c0ab3b1461014757806304ecb844146101635780630c55699c146101815780631255c1891461019f57806319e54812146101bd575b600080fd5b610161600480360381019061015c91906119f5565b610418565b005b61016b610585565b604051610178919061211a565b60405180910390f35b610189610598565b60405161019691906120ff565b60405180910390f35b6101a761059e565b6040516101b49190611e34565b60405180910390f35b6101d760048036038101906101d291906119cc565b6105c4565b6040516101e5929190611e86565b60405180910390f35b6101f6610608565b6040516102039190611ef4565b60405180910390f35b61022660048036038101906102219190611967565b61060e565b6040516102339190611ef4565b60405180910390f35b6102446107b4565b6040516102519190611e34565b60405180910390f35b610274600480360381019061026f9190611a36565b6107da565b005b61027e610872565b60405161028b91906120ff565b60405180910390f35b61029c610878565b6040516102a991906120ff565b60405180910390f35b6102cc60048036038101906102c79190611a36565b61087e565b005b6102d6610a04565b6040516102e39190611e34565b60405180910390f35b6102f4610a28565b60405161030191906120ff565b60405180910390f35b610324600480360381019061031f9190611a36565b610a2e565b005b61032e610b09565b60405161033b9190611e34565b60405180910390f35b61034c610b2f565b005b61036860048036038101906103639190611904565b61116e565b005b610384600480360381019061037f9190611a36565b6112a6565b604051610392929190611f54565b60405180910390f35b6103b560048036038101906103b09190611a36565b6112da565b005b6103d160048036038101906103cc91906118db565b6113b5565b6040516103de91906120ff565b60405180910390f35b61040160048036038101906103fc91906119cc565b6113cd565b60405161040f929190611e86565b60405180910390f35b600360009054906101000a900473ffffffffffffffffffffffffffffffffffffffff1673ffffffffffffffffffffffffffffffffffffffff163373ffffffffffffffffffffffffffffffffffffffff16146104a8576040517f08c379a000000000000000000000000000000000000000000000000000000000815260040161049f90611fff565b60405180910390fd5b60006104be60008361141190919063ffffffff16565b905060006104d660148461148790919063ffffffff16565b905061053d6104ef6003836114ee90919063ffffffff16565b600a60008573ffffffffffffffffffffffffffffffffffffffff1673ffffffffffffffffffffffffffffffffffffffff1681526020019081526020016000205461150490919063ffffffff16565b600a60008473ffffffffffffffffffffffffffffffffffffffff1673ffffffffffffffffffffffffffffffffffffffff16815260200190815260200160002081905550505050565b600860009054906101000a900460ff1681565b60055481565b600260009054906101000a900473ffffffffffffffffffffffffffffffffffffffff1681565b600b6020528060005260406000206000915090508060000160009054906101000a900473ffffffffffffffffffffffffffffffffffffffff16908060010154905082565b60095481565b60008083834260105460405160200161062a9493929190611eaf565b60405160208183030381529060405280519060200120905060106000815480929190610655906123c2565b919050555083600b600083815260200190815260200160002060000160006101000a81548173ffffffffffffffffffffffffffffffffffffffff021916908373ffffffffffffffffffffffffffffffffffffffff16021790555082600b6000838152602001908152602001600020600101819055506106f8600160009054906101000a900473ffffffffffffffffffffffffffffffffffffffff1685308661151a565b60006040518060400160405280838152602001428152509050600f819080600181540180825580915050600190039060005260206000209060020201600090919091909150600082015181600001556020820151816001015550508360076000828254610765919061220c565b925050819055507f1008429730dc0e33a6e63ee42972c220ab8becaf21d29983a99a80f45efa060b828686426040516107a19493929190611f0f565b60405180910390a1819250505092915050565b600160009054906101000a900473ffffffffffffffffffffffffffffffffffffffff1681565b60008054906101000a900473ffffffffffffffffffffffffffffffffffffffff1673ffffffffffffffffffffffffffffffffffffffff163373ffffffffffffffffffffffffffffffffffffffff1614610868576040517f08c379a000000000000000000000000000000000000000000000000000000000815260040161085f9061203f565b60405180910390fd5b8060048190555050565b60065481565b60075481565b6000600a60003373ffffffffffffffffffffffffffffffffffffffff1673ffffffffffffffffffffffffffffffffffffffff16815260200190815260200160002054905081811015610905576040517f08c379a00000000000000000000000000000000000000000000000000000000081526004016108fc9061207f565b60405180910390fd5b61095782600a60003373ffffffffffffffffffffffffffffffffffffffff1673ffffffffffffffffffffffffffffffffffffffff1681526020019081526020016000205461153290919063ffffffff16565b600a60003373ffffffffffffffffffffffffffffffffffffffff1673ffffffffffffffffffffffffffffffffffffffff168152602001908152602001600020819055506109c7600160009054906101000a900473ffffffffffffffffffffffffffffffffffffffff163384611548565b7f67081655db492a9224c5bc8d7d3ccadb8bb37d603b8697c1cb2081a68251385433836040516109f8929190611e86565b60405180910390a15050565b60008054906101000a900473ffffffffffffffffffffffffffffffffffffffff1681565b60045481565b60008054906101000a900473ffffffffffffffffffffffffffffffffffffffff1673ffffffffffffffffffffffffffffffffffffffff163373ffffffffffffffffffffffffffffffffffffffff1614610abc576040517f08c379a0000000000000000000000000000000000000000000000000000000008152600401610ab39061203f565b60405180910390fd5b60008111610aff576040517f08c379a0000000000000000000000000000000000000000000000000000000008152600401610af6906120bf565b60405180910390fd5b8060058190555050565b600360009054906101000a900473ffffffffffffffffffffffffffffffffffffffff1681565b6000600f805490509050600060065411610b7e576040517f08c379a0000000000000000000000000000000000000000000000000000000008152600401610b7590611f9f565b60405180910390fd5b600060055411610bc3576040517f08c379a0000000000000000000000000000000000000000000000000000000008152600401610bba9061201f565b60405180910390fd5b60006004600554600654610bd79190612293565b610be19190612262565b90506000600190508160075411610bfb5760019050610c00565b600090505b60005b83811015610d93576000600f8281548110610c47577f4e487b7100000000000000000000000000000000000000000000000000000000600052603260045260246000fd5b90600052602060002090600202016000015490506000600b6000838152602001908152602001600020600101549050600084610c9b578560075483610c8c9190612262565b610c969190612293565b610c9d565b815b90506000600382610cae9190612262565b9050600b600085815260200190815260200160002060000160009054906101000a900473ffffffffffffffffffffffffffffffffffffffff16600c600086815260200190815260200160002060000160006101000a81548173ffffffffffffffffffffffffffffffffffffffff021916908373ffffffffffffffffffffffffffffffffffffffff16021790555080600c6000868152602001908152602001600020600101819055508083610d6291906122ed565b600b600086815260200190815260200160002060010181905550505050508080610d8b906123c2565b915050610c03565b50600083604051602001610da791906120ff565b604051602081830303815290604052905060005b84811015610ee7576000600f8281548110610dff577f4e487b7100000000000000000000000000000000000000000000000000000000600052603260045260246000fd5b90600052602060002090600202016000015490506000600c600083815260200190815260200160002060000160009054906101000a900473ffffffffffffffffffffffffffffffffffffffff16604051602001610e5c9190611e02565b6040516020818303038152906040529050610e80818561155e90919063ffffffff16565b93506000600c600084815260200190815260200160002060010154604051602001610eab91906120ff565b6040516020818303038152906040529050610ecf818661155e90919063ffffffff16565b94505050508080610edf906123c2565b915050610dbb565b5060005b8481101561105c576000600f8281548110610f2f577f4e487b7100000000000000000000000000000000000000000000000000000000600052603260045260246000fd5b9060005260206000209060020201600001549050600c6000828152602001908152602001600020600080820160006101000a81549073ffffffffffffffffffffffffffffffffffffffff0219169055600182016000905550506000600b600083815260200190815260200160002060010154141561104857600b6000828152602001908152602001600020600080820160006101000a81549073ffffffffffffffffffffffffffffffffffffffff021916905560018201600090555050600f8281548110611026577f4e487b7100000000000000000000000000000000000000000000000000000000600052603260045260246000fd5b9060005260206000209060020201600080820160009055600182016000905550505b508080611054906123c2565b915050610eeb565b506000816040516020016110709190611f7d565b60405160208183030381529060405290506000815160405160200161109591906120ff565b604051602081830303815290604052905060006110bb838361155e90919063ffffffff16565b90506000600260009054906101000a900473ffffffffffffffffffffffffffffffffffffffff1690508073ffffffffffffffffffffffffffffffffffffffff166305e2ca17600860009054906101000a900460ff16600954856040518463ffffffff1660e01b815260040161113293929190612135565b600060405180830381600087803b15801561114c57600080fd5b505af1158015611160573d6000803e3d6000fd5b505050505050505050505050565b60008054906101000a900473ffffffffffffffffffffffffffffffffffffffff1673ffffffffffffffffffffffffffffffffffffffff163373ffffffffffffffffffffffffffffffffffffffff16146111fc576040517f08c379a00000000000000000000000000000000000000000000000000000000081526004016111f39061203f565b60405180910390fd5b83600260006101000a81548173ffffffffffffffffffffffffffffffffffffffff021916908373ffffffffffffffffffffffffffffffffffffffff16021790555082600360006101000a81548173ffffffffffffffffffffffffffffffffffffffff021916908373ffffffffffffffffffffffffffffffffffffffff16021790555081600860006101000a81548160ff021916908360ff1602179055508060098190555050505050565b600f81815481106112b657600080fd5b90600052602060002090600202016000915090508060000154908060010154905082565b60008054906101000a900473ffffffffffffffffffffffffffffffffffffffff1673ffffffffffffffffffffffffffffffffffffffff163373ffffffffffffffffffffffffffffffffffffffff1614611368576040517f08c379a000000000000000000000000000000000000000000000000000000000815260040161135f9061203f565b60405180910390fd5b600081116113ab576040517f08c379a00000000000000000000000000000000000000000000000000000000081526004016113a2906120df565b60405180910390fd5b8060068190555050565b600a6020528060005260406000206000915090505481565b600c6020528060005260406000206000915090508060000160009054906101000a900473ffffffffffffffffffffffffffffffffffffffff16908060010154905082565b6000601482611420919061220c565b83511015611463576040517f08c379a000000000000000000000000000000000000000000000000000000000815260040161145a9061209f565b60405180910390fd5b60006c01000000000000000000000000836020860101510490508091505092915050565b6000602082611496919061220c565b835110156114d9576040517f08c379a00000000000000000000000000000000000000000000000000000000081526004016114d09061205f565b60405180910390fd5b60008260208501015190508091505092915050565b600081836114fc9190612293565b905092915050565b60008183611512919061220c565b905092915050565b600084905061152b818585856115e8565b5050505050565b6000818361154091906122ed565b905092915050565b6000839050611558818484611671565b50505050565b6060806040519050835180825260208201818101602087015b818310156115945780518352602083019250602081019050611577565b50855192508351830184528091508282019050602086015b818310156115c957805183526020830192506020810190506115ac565b50601f19601f8851850115830101166040525050508091505092915050565b61166b846323b872dd60e01b85858560405160240161160993929190611e4f565b604051602081830303815290604052907bffffffffffffffffffffffffffffffffffffffffffffffffffffffff19166020820180517bffffffffffffffffffffffffffffffffffffffffffffffffffffffff83818316178352505050506116f7565b50505050565b6116f28363a9059cbb60e01b8484604051602401611690929190611e86565b604051602081830303815290604052907bffffffffffffffffffffffffffffffffffffffffffffffffffffffff19166020820180517bffffffffffffffffffffffffffffffffffffffffffffffffffffffff83818316178352505050506116f7565b505050565b6000808373ffffffffffffffffffffffffffffffffffffffff168360405161171f9190611e1d565b6000604051808303816000865af19150503d806000811461175c576040519150601f19603f3d011682016040523d82523d6000602084013e611761565b606091505b5091509150816117a6576040517f08c379a000000000000000000000000000000000000000000000000000000000815260040161179d90611fdf565b60405180910390fd5b60008151111561180457808060200190518101906117c491906119a3565b611803576040517f08c379a00000000000000000000000000000000000000000000000000000000081526004016117fa90611fbf565b60405180910390fd5b5b50505050565b600061181d611818846121a4565b612173565b90508281526020810184848401111561183557600080fd5b611840848285612380565b509392505050565b600081359050611857816124da565b92915050565b60008151905061186c816124f1565b92915050565b60008135905061188181612508565b92915050565b600082601f83011261189857600080fd5b81356118a884826020860161180a565b91505092915050565b6000813590506118c08161251f565b92915050565b6000813590506118d581612536565b92915050565b6000602082840312156118ed57600080fd5b60006118fb84828501611848565b91505092915050565b6000806000806080858703121561191a57600080fd5b600061192887828801611848565b945050602061193987828801611848565b935050604061194a878288016118c6565b925050606061195b87828801611872565b91505092959194509250565b6000806040838503121561197a57600080fd5b600061198885828601611848565b9250506020611999858286016118b1565b9150509250929050565b6000602082840312156119b557600080fd5b60006119c38482850161185d565b91505092915050565b6000602082840312156119de57600080fd5b60006119ec84828501611872565b91505092915050565b600060208284031215611a0757600080fd5b600082013567ffffffffffffffff811115611a2157600080fd5b611a2d84828501611887565b91505092915050565b600060208284031215611a4857600080fd5b6000611a56848285016118b1565b91505092915050565b611a6881612321565b82525050565b611a7f611a7a82612321565b61240b565b82525050565b611a8e8161233f565b82525050565b6000611a9f826121d4565b611aa981856121df565b9350611ab981856020860161238f565b611ac2816124bc565b840191505092915050565b6000611ad8826121d4565b611ae281856121f0565b9350611af281856020860161238f565b80840191505092915050565b6000611b0b600c836121fb565b91507f62617365206973207a65726f00000000000000000000000000000000000000006000830152602082019050919050565b6000611b4b6020836121fb565b91507f45524332303a206f7065726174696f6e20646964206e6f7420737563636565646000830152602082019050919050565b6000611b8b6012836121fb565b91507f45524332303a2063616c6c206661696c656400000000000000000000000000006000830152602082019050919050565b6000611bcb6021836121fb565b91507f546869732066756e6374696f6e206f6e6c7920627920636861696e627269646760008301527f65000000000000000000000000000000000000000000000000000000000000006020830152604082019050919050565b6000611c316009836121fb565b91507f78206973207a65726f00000000000000000000000000000000000000000000006000830152602082019050919050565b6000611c71601a836121fb565b91507f41646d696e206f6e6c792063616c6c6564206279206f776e65720000000000006000830152602082019050919050565b6000611cb16015836121fb565b91507f746f55696e743235365f6f75744f66426f756e647300000000000000000000006000830152602082019050919050565b6000611cf16017836121fb565b91507f596f752068617665206e6f20656e6f75676820504c47520000000000000000006000830152602082019050919050565b6000611d316015836121fb565b91507f746f416464726573735f6f75744f66426f756e647300000000000000000000006000830152602082019050919050565b6000611d716009836121fb565b91507f696e76616c6964207800000000000000000000000000000000000000000000006000830152602082019050919050565b6000611db1600c836121fb565b91507f696e76616c6964206261736500000000000000000000000000000000000000006000830152602082019050919050565b611ded81612369565b82525050565b611dfc81612373565b82525050565b6000611e0e8284611a6e565b60148201915081905092915050565b6000611e298284611acd565b915081905092915050565b6000602082019050611e496000830184611a5f565b92915050565b6000606082019050611e646000830186611a5f565b611e716020830185611a5f565b611e7e6040830184611de4565b949350505050565b6000604082019050611e9b6000830185611a5f565b611ea86020830184611de4565b9392505050565b6000608082019050611ec46000830187611a5f565b611ed16020830186611de4565b611ede6040830185611de4565b611eeb6060830184611de4565b95945050505050565b6000602082019050611f096000830184611a85565b92915050565b6000608082019050611f246000830187611a85565b611f316020830186611a5f565b611f3e6040830185611de4565b611f4b6060830184611de4565b95945050505050565b6000604082019050611f696000830185611a85565b611f766020830184611de4565b9392505050565b60006020820190508181036000830152611f978184611a94565b905092915050565b60006020820190508181036000830152611fb881611afe565b9050919050565b60006020820190508181036000830152611fd881611b3e565b9050919050565b60006020820190508181036000830152611ff881611b7e565b9050919050565b6000602082019050818103600083015261201881611bbe565b9050919050565b6000602082019050818103600083015261203881611c24565b9050919050565b6000602082019050818103600083015261205881611c64565b9050919050565b6000602082019050818103600083015261207881611ca4565b9050919050565b6000602082019050818103600083015261209881611ce4565b9050919050565b600060208201905081810360008301526120b881611d24565b9050919050565b600060208201905081810360008301526120d881611d64565b9050919050565b600060208201905081810360008301526120f881611da4565b9050919050565b60006020820190506121146000830184611de4565b92915050565b600060208201905061212f6000830184611df3565b92915050565b600060608201905061214a6000830186611df3565b6121576020830185611a85565b81810360408301526121698184611a94565b9050949350505050565b6000604051905081810181811067ffffffffffffffff8211171561219a5761219961248d565b5b8060405250919050565b600067ffffffffffffffff8211156121bf576121be61248d565b5b601f19601f8301169050602081019050919050565b600081519050919050565b600082825260208201905092915050565b600081905092915050565b600082825260208201905092915050565b600061221782612369565b915061222283612369565b9250827fffffffffffffffffffffffffffffffffffffffffffffffffffffffffffffffff038211156122575761225661242f565b5b828201905092915050565b600061226d82612369565b915061227883612369565b9250826122885761228761245e565b5b828204905092915050565b600061229e82612369565b91506122a983612369565b9250817fffffffffffffffffffffffffffffffffffffffffffffffffffffffffffffffff04831182151516156122e2576122e161242f565b5b828202905092915050565b60006122f882612369565b915061230383612369565b9250828210156123165761231561242f565b5b828203905092915050565b600061232c82612349565b9050919050565b60008115159050919050565b6000819050919050565b600073ffffffffffffffffffffffffffffffffffffffff82169050919050565b6000819050919050565b600060ff82169050919050565b82818337600083830152505050565b60005b838110156123ad578082015181840152602081019050612392565b838111156123bc576000848401525b50505050565b60006123cd82612369565b91507fffffffffffffffffffffffffffffffffffffffffffffffffffffffffffffffff821415612400576123ff61242f565b5b600182019050919050565b60006124168261241d565b9050919050565b6000612428826124cd565b9050919050565b7f4e487b7100000000000000000000000000000000000000000000000000000000600052601160045260246000fd5b7f4e487b7100000000000000000000000000000000000000000000000000000000600052601260045260246000fd5b7f4e487b7100000000000000000000000000000000000000000000000000000000600052604160045260246000fd5b6000601f19601f8301169050919050565b60008160601b9050919050565b6124e381612321565b81146124ee57600080fd5b50565b6124fa81612333565b811461250557600080fd5b50565b6125118161233f565b811461251c57600080fd5b50565b61252881612369565b811461253357600080fd5b50565b61253f81612373565b811461254a57600080fd5b5056fea26469706673582212205ab3bff888a926af80e18a4acce95cd8cc366cdc7811d1516544971d9d2d28f664736f6c63430008000033",
  "immutableReferences": {},
  "source": "// SPDX-License-Identifier: LGPL-3.0-only\npragma solidity ^0.8.0;\n\nimport './ERC20Safe.sol';\nimport './ABDKMathQuad.sol';\nimport 'solidity-bytes-utils/contracts/BytesLib.sol';\nimport \"@openzeppelin/contracts/utils/math/SafeMath.sol\";\n\ninterface IBridge {\n    function deposit(uint8 destinationDomainID, bytes32 resourceID, bytes calldata data) external payable;\n}\n\ncontract PledgerBridgeBSC is ERC20Safe {\n    using BytesLib for bytes;\n    using SafeMath for uint256;\n\n    address public owner;\n\n    address public plgr_address;\n\n    address public bridge_address;\n\n    address public handler_address;\n\n    uint256 public wait_time;\n\n    uint256 public x = 1;\n    uint256 public base = 100000 * 10 ** 18;\n\n    uint256 public total_locked_amounts;\n\n    // Arguments for chainbridge.\n    uint8 public cb_ddid;\n    bytes32 public cb_rid;\n\n    struct LockedPLGRTx {\n        address owner;\n        uint256 amount;\n    }\n\n    struct LockInfo {\n        bytes32 txid;\n        uint256 time;\n    }\n\n    mapping (address => uint256) public plgr_amounts;\n\n    mapping (bytes32 => LockedPLGRTx) public locked_plgr_tx;\n    mapping (bytes32 => LockedPLGRTx) public can_release;\n    mapping(bytes32 => uint256) txid_release_amount;\n    bytes32[] index_txid;\n\n    LockInfo[] public locked_infos;\n\n    uint256 plgr_lock_nonce = 0;\n\n    event DepositPLGR(bytes32 txid, address owner, uint256 amount, uint time);\n\n    event WithdrawPLGR(address owner, uint256 amount);\n\n    constructor(address _plgr_address, address _bridge_address, address _handler_address, uint8 _cb_ddid, bytes32 _cb_rid) public {\n        owner = msg.sender;\n        plgr_address = _plgr_address;\n        bridge_address = _bridge_address;\n        handler_address = _handler_address;\n        cb_ddid = _cb_ddid;\n        cb_rid = _cb_rid;\n    }\n\n    function admin_update_configure(uint256 _wait_time) external {\n        require(msg.sender == owner, \"Admin only called by owner\");\n        wait_time = _wait_time;\n    }\n\n    function set_x(uint256 _x) external {\n        require(msg.sender == owner, \"Admin only called by owner\");\n        require(_x > 0, \"invalid x\");\n        x = _x;\n    }\n\n    //function set_price(uint256 _price) external {\n    //    require(msg.sender == owner, \"Admin only called by owner\");\n    //    require(_price > 0, \"invalid price\");\n    //    price = _price;\n    //}\n\n    function set_base(uint256 _base) external {\n        require(msg.sender == owner, \"Admin only called by owner\");\n        require(_base > 0, \"invalid base\");\n        base = _base;\n    }\n\n    function admin_update_bridge(address _bridge_address, address _handler_address, uint8 _cb_ddid, bytes32 _cb_rid) external {\n        require(msg.sender == owner, \"Admin only called by owner\");\n\n        bridge_address = _bridge_address;\n        handler_address = _handler_address;\n        cb_ddid = _cb_ddid;\n        cb_rid = _cb_rid;\n    }\n\n    // User call this function on BSC to deposit PLGR.\n    function deposit_plgr(address _owner, uint256 amount) external returns(bytes32) {\n\n        bytes32 txid = keccak256(abi.encode(_owner, amount, block.timestamp, plgr_lock_nonce));\n        plgr_lock_nonce ++;\n\n        locked_plgr_tx[txid].owner = _owner;\n        locked_plgr_tx[txid].amount = amount;\n\n        lockERC20(plgr_address, _owner, address(this), amount);\n\n        LockInfo memory lock_info = LockInfo (txid, block.timestamp);\n\n        locked_infos.push(lock_info);\n\n        total_locked_amounts += amount;\n\n        emit DepositPLGR(txid, _owner, amount, block.timestamp);\n\n        return txid;\n    }\n\n    // User call this function on BSC to widthdraw PLGR.\n    function widthdraw_plgr(uint256 amount) external {\n        uint256 value = plgr_amounts[msg.sender];\n\n        require(value >= amount, \"You have no enough PLGR\");\n\n        //plgr_amounts[msg.sender] -= amount;\n        plgr_amounts[msg.sender]= plgr_amounts[msg.sender].sub(amount);\n        releaseERC20(plgr_address, msg.sender, amount);\n\n        emit WithdrawPLGR(msg.sender, amount);\n    }\n\n    // Chainbridge call this function on BSC\n    function deposit_mplgr_bridge(bytes memory data) external {\n        require(msg.sender == handler_address, \"This function only by chainbridge\");\n\n        address addr = data.toAddress(0);\n        uint256 amount = data.toUint256(20);\n\n        plgr_amounts[addr] = plgr_amounts[addr].add(amount.mul(3));\n    }\n\n    function execute_upkeep() external {\n\n        uint256 count = locked_infos.length;\n\n        require(base > 0, \"base is zero\");\n        require(x > 0, \"x is zero\");\n        // base * x / 4\n\n        uint total_release = base * x / 4;\n\n        bool crossAllLocked = true;\n        //  total_locked_amounts <= total_release => \n        if (total_locked_amounts <= total_release) {\n            crossAllLocked = true;\n        } else {\n            //  total_locked_amounts > total_release =>  (userLocked / total_locked_amounts) * total_release \n            crossAllLocked = false;\n        }\n\n        for (uint i = 0; i < count; i++) {\n            bytes32 txid = locked_infos[i].txid;\n            uint256 lockedAmount = locked_plgr_tx[txid].amount;\n\n            uint256 crossedAmount = crossAllLocked ? lockedAmount : (lockedAmount / total_locked_amounts) * total_release;\n            uint256 ruleOfRatioAmount = crossedAmount / 3;\n            \n            can_release[txid].owner = locked_plgr_tx[txid].owner;\n            can_release[txid].amount = ruleOfRatioAmount;\n\n            // update locked_plgr_tx\n            locked_plgr_tx[txid].amount = lockedAmount - ruleOfRatioAmount;\n        }\n\n        bytes memory rdata = abi.encode(count);\n        for (uint i = 0; i < count; i ++) {\n            bytes32 txid = locked_infos[i].txid;\n\n            bytes memory addr = abi.encodePacked(can_release[txid].owner);\n            rdata = rdata.concat(addr);\n\n            bytes memory amount = abi.encode(can_release[txid].amount);\n            rdata = rdata.concat(amount);\n        }\n\n        // release \n        for (uint i=0; i<count;i++) {\n            bytes32 txid = locked_infos[i].txid;\n\n            delete can_release[txid];\n\n            if (locked_plgr_tx[txid].amount == 0) {\n                delete locked_plgr_tx[txid];\n                delete locked_infos[i];\n            }\n        }\n\n        bytes memory args_bytes = abi.encode(rdata);\n        bytes memory length = abi.encode(args_bytes.length);\n        bytes memory args = length.concat(args_bytes);\n        \n        IBridge bridge = IBridge(bridge_address);\n        bridge.deposit(cb_ddid, cb_rid, args);\n    }\n}",
  "sourcePath": "/home/u20/codespace/pledge-backend/bridge-backend/contracts/BridgeBSC.sol",
  "compiler": {
    "name": "solc",
    "version": "0.8.0+commit.c7dfd78e.Emscripten.clang"
  },
  "schemaVersion": "3.3.1",
  "updatedAt": "2022-01-06T08:33:01.056Z",
  "networkType": "ethereum",
  "devdoc": {
    "kind": "dev",
    "methods": {},
    "version": 1
  },
  "userdoc": {
    "kind": "user",
    "methods": {},
    "version": 1
  }
}