{
  "contractName": "PledgerBridgeBSC",
  "abi": [
    {
      "inputs": [
        {
          "internalType": "address",
          "name": "_plgr_address",
          "type": "address"
        },
        {
          "internalType": "address",
          "name": "_bridge_address",
          "type": "address"
        },
        {
          "internalType": "address",
          "name": "_handler_address",
          "type": "address"
        },
        {
          "internalType": "uint8",
          "name": "_cb_ddid",
          "type": "uint8"
        },
        {
          "internalType": "bytes32",
          "name": "_cb_rid",
          "type": "bytes32"
        }
      ],
      "stateMutability": "nonpayable",
      "type": "constructor"
    },
    {
      "anonymous": false,
      "inputs": [
        {
          "indexed": false,
          "internalType": "bytes32",
          "name": "txid",
          "type": "bytes32"
        },
        {
          "indexed": false,
          "internalType": "address",
          "name": "owner",
          "type": "address"
        },
        {
          "indexed": false,
          "internalType": "uint256",
          "name": "amount",
          "type": "uint256"
        },
        {
          "indexed": false,
          "internalType": "uint256",
          "name": "time",
          "type": "uint256"
        }
      ],
      "name": "DepositPLGR",
      "type": "event"
    },
    {
      "anonymous": false,
      "inputs": [
        {
          "indexed": false,
          "internalType": "address",
          "name": "owner",
          "type": "address"
        },
        {
          "indexed": false,
          "internalType": "uint256",
          "name": "amount",
          "type": "uint256"
        }
      ],
      "name": "WithdrawPLGR",
      "type": "event"
    },
    {
      "inputs": [],
      "name": "bridge_address",
      "outputs": [
        {
          "internalType": "address",
          "name": "",
          "type": "address"
        }
      ],
      "stateMutability": "view",
      "type": "function",
      "constant": true
    },
    {
      "inputs": [],
      "name": "cb_ddid",
      "outputs": [
        {
          "internalType": "uint8",
          "name": "",
          "type": "uint8"
        }
      ],
      "stateMutability": "view",
      "type": "function",
      "constant": true
    },
    {
      "inputs": [],
      "name": "cb_rid",
      "outputs": [
        {
          "internalType": "bytes32",
          "name": "",
          "type": "bytes32"
        }
      ],
      "stateMutability": "view",
      "type": "function",
      "constant": true
    },
    {
      "inputs": [],
      "name": "handler_address",
      "outputs": [
        {
          "internalType": "address",
          "name": "",
          "type": "address"
        }
      ],
      "stateMutability": "view",
      "type": "function",
      "constant": true
    },
    {
      "inputs": [
        {
          "internalType": "uint256",
          "name": "",
          "type": "uint256"
        }
      ],
      "name": "locked_infos",
      "outputs": [
        {
          "internalType": "bytes32",
          "name": "txid",
          "type": "bytes32"
        },
        {
          "internalType": "uint256",
          "name": "time",
          "type": "uint256"
        }
      ],
      "stateMutability": "view",
      "type": "function",
      "constant": true
    },
    {
      "inputs": [
        {
          "internalType": "bytes32",
          "name": "",
          "type": "bytes32"
        }
      ],
      "name": "locked_plgr_tx",
      "outputs": [
        {
          "internalType": "address",
          "name": "owner",
          "type": "address"
        },
        {
          "internalType": "uint256",
          "name": "amount",
          "type": "uint256"
        }
      ],
      "stateMutability": "view",
      "type": "function",
      "constant": true
    },
    {
      "inputs": [],
      "name": "owner",
      "outputs": [
        {
          "internalType": "address",
          "name": "",
          "type": "address"
        }
      ],
      "stateMutability": "view",
      "type": "function",
      "constant": true
    },
    {
      "inputs": [],
      "name": "plgr_address",
      "outputs": [
        {
          "internalType": "address",
          "name": "",
          "type": "address"
        }
      ],
      "stateMutability": "view",
      "type": "function",
      "constant": true
    },
    {
      "inputs": [
        {
          "internalType": "address",
          "name": "",
          "type": "address"
        }
      ],
      "name": "plgr_amounts",
      "outputs": [
        {
          "internalType": "uint256",
          "name": "",
          "type": "uint256"
        }
      ],
      "stateMutability": "view",
      "type": "function",
      "constant": true
    },
    {
      "inputs": [],
      "name": "wait_time",
      "outputs": [
        {
          "internalType": "uint256",
          "name": "",
          "type": "uint256"
        }
      ],
      "stateMutability": "view",
      "type": "function",
      "constant": true
    },
    {
      "inputs": [
        {
          "internalType": "uint256",
          "name": "_wait_time",
          "type": "uint256"
        }
      ],
      "name": "admin_update_configure",
      "outputs": [],
      "stateMutability": "nonpayable",
      "type": "function"
    },
    {
      "inputs": [
        {
          "internalType": "address",
          "name": "_bridge_address",
          "type": "address"
        },
        {
          "internalType": "address",
          "name": "_handler_address",
          "type": "address"
        },
        {
          "internalType": "uint8",
          "name": "_cb_ddid",
          "type": "uint8"
        },
        {
          "internalType": "bytes32",
          "name": "_cb_rid",
          "type": "bytes32"
        }
      ],
      "name": "admin_update_bridge",
      "outputs": [],
      "stateMutability": "nonpayable",
      "type": "function"
    },
    {
      "inputs": [
        {
          "internalType": "address",
          "name": "_owner",
          "type": "address"
        },
        {
          "internalType": "uint256",
          "name": "amount",
          "type": "uint256"
        }
      ],
      "name": "deposit_plgr",
      "outputs": [
        {
          "internalType": "bytes32",
          "name": "",
          "type": "bytes32"
        }
      ],
      "stateMutability": "nonpayable",
      "type": "function"
    },
    {
      "inputs": [
        {
          "internalType": "uint256",
          "name": "amount",
          "type": "uint256"
        }
      ],
      "name": "widthdraw_plgr",
      "outputs": [],
      "stateMutability": "nonpayable",
      "type": "function"
    },
    {
      "inputs": [
        {
          "internalType": "bytes",
          "name": "data",
          "type": "bytes"
        }
      ],
      "name": "deposit_mplgr_bridge",
      "outputs": [],
      "stateMutability": "nonpayable",
      "type": "function"
    },
    {
      "inputs": [],
      "name": "check_upkeep",
      "outputs": [
        {
          "internalType": "int256",
          "name": "",
          "type": "int256"
        }
      ],
      "stateMutability": "view",
      "type": "function",
      "constant": true
    },
    {
      "inputs": [
        {
          "internalType": "int256",
          "name": "index",
          "type": "int256"
        }
      ],
      "name": "execute_upkeep",
      "outputs": [],
      "stateMutability": "nonpayable",
      "type": "function"
    }
  ],
  "bytecode": "0x60806040526000600a5534801561001557600080fd5b506040516119f83803806119f8833981810160405260a081101561003857600080fd5b810190808051906020019092919080519060200190929190805190602001909291908051906020019092919080519060200190929190505050336000806101000a81548173ffffffffffffffffffffffffffffffffffffffff021916908373ffffffffffffffffffffffffffffffffffffffff16021790555084600160006101000a81548173ffffffffffffffffffffffffffffffffffffffff021916908373ffffffffffffffffffffffffffffffffffffffff16021790555083600260006101000a81548173ffffffffffffffffffffffffffffffffffffffff021916908373ffffffffffffffffffffffffffffffffffffffff16021790555082600360006101000a81548173ffffffffffffffffffffffffffffffffffffffff021916908373ffffffffffffffffffffffffffffffffffffffff16021790555081600560006101000a81548160ff021916908360ff16021790555080600681905550505050505061184e806101aa6000396000f3fe608060405234801561001057600080fd5b506004361061010b5760003560e01c80634fc13fde116100a2578063ab7272ea11610071578063ab7272ea146103ff578063c7b4c5bf14610433578063c970bdf4146104ae578063d25564e2146104f7578063dfad049e146105255761010b565b80634fc13fde14610361578063830807041461037f5780638da5cb5b146103ad5780638f5899bc146103e15761010b565b80632068a843116100de5780632068a8431461027f5780632e7e0c291461029d5780633219c4df146102ff5780634582a8c5146103335761010b565b806302c0ab3b1461011057806304ecb844146101cb5780631255c189146101ec57806319e5481214610220575b600080fd5b6101c96004803603602081101561012657600080fd5b810190808035906020019064010000000081111561014357600080fd5b82018360208201111561015557600080fd5b8035906020019184600183028401116401000000008311171561017757600080fd5b91908080601f016020809104026020016040519081016040528093929190818152602001838380828437600081840152601f19601f82011690508083019250505050505050919291929050505061057d565b005b6101d36106af565b604051808260ff16815260200191505060405180910390f35b6101f46106c2565b604051808273ffffffffffffffffffffffffffffffffffffffff16815260200191505060405180910390f35b61024c6004803603602081101561023657600080fd5b81019080803590602001909291905050506106e8565b604051808373ffffffffffffffffffffffffffffffffffffffff1681526020018281526020019250505060405180910390f35b61028761072c565b6040518082815260200191505060405180910390f35b6102e9600480360360408110156102b357600080fd5b81019080803573ffffffffffffffffffffffffffffffffffffffff16906020019092919080359060200190929190505050610732565b6040518082815260200191505060405180910390f35b61030761090f565b604051808273ffffffffffffffffffffffffffffffffffffffff16815260200191505060405180910390f35b61035f6004803603602081101561034957600080fd5b8101908080359060200190929190505050610935565b005b610369610a00565b6040518082815260200191505060405180910390f35b6103ab6004803603602081101561039557600080fd5b8101908080359060200190929190505050610a8e565b005b6103b5610c1b565b604051808273ffffffffffffffffffffffffffffffffffffffff16815260200191505060405180910390f35b6103e9610c3f565b6040518082815260200191505060405180910390f35b610407610c45565b604051808273ffffffffffffffffffffffffffffffffffffffff16815260200191505060405180910390f35b6104ac6004803603608081101561044957600080fd5b81019080803573ffffffffffffffffffffffffffffffffffffffff169060200190929190803573ffffffffffffffffffffffffffffffffffffffff169060200190929190803560ff16906020019092919080359060200190929190505050610c6b565b005b6104da600480360360208110156104c457600080fd5b8101908080359060200190929190505050610dd6565b604051808381526020018281526020019250505060405180910390f35b6105236004803603602081101561050d57600080fd5b8101908080359060200190929190505050610e07565b005b6105676004803603602081101561053b57600080fd5b81019080803573ffffffffffffffffffffffffffffffffffffffff1690602001909291905050506111ad565b6040518082815260200191505060405180910390f35b600360009054906101000a900473ffffffffffffffffffffffffffffffffffffffff1673ffffffffffffffffffffffffffffffffffffffff163373ffffffffffffffffffffffffffffffffffffffff1614610623576040517f08c379a00000000000000000000000000000000000000000000000000000000081526004018080602001828103825260218152602001806117f86021913960400191505060405180910390fd5b60006106396000836111c590919063ffffffff16565b905060006106516014846112de90919063ffffffff16565b90506003818161065d57fe5b04600760008473ffffffffffffffffffffffffffffffffffffffff1673ffffffffffffffffffffffffffffffffffffffff16815260200190815260200160002060008282540192505081905550505050565b600560009054906101000a900460ff1681565b600260009054906101000a900473ffffffffffffffffffffffffffffffffffffffff1681565b60086020528060005260406000206000915090508060000160009054906101000a900473ffffffffffffffffffffffffffffffffffffffff16908060010154905082565b60065481565b600080838342600a54604051602001808573ffffffffffffffffffffffffffffffffffffffff168152602001848152602001838152602001828152602001945050505050604051602081830303815290604052805190602001209050600a60008154809291906001019190505550836008600083815260200190815260200160002060000160006101000a81548173ffffffffffffffffffffffffffffffffffffffff021916908373ffffffffffffffffffffffffffffffffffffffff16021790555082600860008381526020019081526020016000206001018190555061083e600160009054906101000a900473ffffffffffffffffffffffffffffffffffffffff168530866113e8565b6108466117da565b60405180604001604052808381526020014281525090506009819080600181540180825580915050600190039060005260206000209060020201600090919091909150600082015181600001556020820151816001015550507f1008429730dc0e33a6e63ee42972c220ab8becaf21d29983a99a80f45efa060b82868642604051808581526020018473ffffffffffffffffffffffffffffffffffffffff16815260200183815260200182815260200194505050505060405180910390a1819250505092915050565b600160009054906101000a900473ffffffffffffffffffffffffffffffffffffffff1681565b60008054906101000a900473ffffffffffffffffffffffffffffffffffffffff1673ffffffffffffffffffffffffffffffffffffffff163373ffffffffffffffffffffffffffffffffffffffff16146109f6576040517f08c379a000000000000000000000000000000000000000000000000000000000815260040180806020018281038252601a8152602001807f41646d696e206f6e6c792063616c6c6564206279206f776e657200000000000081525060200191505060405180910390fd5b8060048190555050565b6000806009805490501415610a37577fffffffffffffffffffffffffffffffffffffffffffffffffffffffffffffffff9050610a8b565b60005b6009805490508114610a89574260045460098381548110610a5757fe5b906000526020600020906002020160010154011115610a7c5760018103915050610a8b565b8080600101915050610a3a565b505b90565b6000600760003373ffffffffffffffffffffffffffffffffffffffff1673ffffffffffffffffffffffffffffffffffffffff16815260200190815260200160002054905081811015610b48576040517f08c379a00000000000000000000000000000000000000000000000000000000081526004018080602001828103825260178152602001807f596f752068617665206e6f20656e6f75676820504c475200000000000000000081525060200191505060405180910390fd5b81600760003373ffffffffffffffffffffffffffffffffffffffff1673ffffffffffffffffffffffffffffffffffffffff16815260200190815260200160002060008282540392505081905550610bc2600160009054906101000a900473ffffffffffffffffffffffffffffffffffffffff163384611400565b7f67081655db492a9224c5bc8d7d3ccadb8bb37d603b8697c1cb2081a6825138543383604051808373ffffffffffffffffffffffffffffffffffffffff1681526020018281526020019250505060405180910390a15050565b60008054906101000a900473ffffffffffffffffffffffffffffffffffffffff1681565b60045481565b600360009054906101000a900473ffffffffffffffffffffffffffffffffffffffff1681565b60008054906101000a900473ffffffffffffffffffffffffffffffffffffffff1673ffffffffffffffffffffffffffffffffffffffff163373ffffffffffffffffffffffffffffffffffffffff1614610d2c576040517f08c379a000000000000000000000000000000000000000000000000000000000815260040180806020018281038252601a8152602001807f41646d696e206f6e6c792063616c6c6564206279206f776e657200000000000081525060200191505060405180910390fd5b83600260006101000a81548173ffffffffffffffffffffffffffffffffffffffff021916908373ffffffffffffffffffffffffffffffffffffffff16021790555082600360006101000a81548173ffffffffffffffffffffffffffffffffffffffff021916908373ffffffffffffffffffffffffffffffffffffffff16021790555081600560006101000a81548160ff021916908360ff1602179055508060068190555050505050565b60098181548110610de357fe5b90600052602060002090600202016000915090508060000154908060010154905082565b6000600182019050606081604051602001808281526020019150506040516020818303038152906040529050600083126111a85760005b838111610fc257600060098281548110610e5457fe5b906000526020600020906002020160000154905060606008600083815260200190815260200160002060000160009054906101000a900473ffffffffffffffffffffffffffffffffffffffff16604051602001808273ffffffffffffffffffffffffffffffffffffffff1660601b81526014019150506040516020818303038152906040529050610eee818561141690919063ffffffff16565b935060606008600084815260200190815260200160002060010154604051602001808281526020019150506040516020818303038152906040529050610f3d818661141690919063ffffffff16565b945060086000848152602001908152602001600020600080820160006101000a81549073ffffffffffffffffffffffffffffffffffffffff02191690556001820160009055505060098481548110610f9157fe5b9060005260206000209060020201600080820160009055600182016000905550505050508080600101915050610e3e565b506060816040516020018080602001828103825283818151815260200191508051906020019080838360005b83811015611009578082015181840152602081019050610fee565b50505050905090810190601f1680156110365780820380516001836020036101000a031916815260200191505b50925050506040516020818303038152906040529050606081516040516020018082815260200191505060405160208183030381529060405290506060611086838361141690919063ffffffff16565b90506000600260009054906101000a900473ffffffffffffffffffffffffffffffffffffffff1690508073ffffffffffffffffffffffffffffffffffffffff166305e2ca17600560009054906101000a900460ff16600654856040518463ffffffff1660e01b8152600401808460ff16815260200183815260200180602001828103825283818151815260200191508051906020019080838360005b8381101561113d578082015181840152602081019050611122565b50505050905090810190601f16801561116a5780820380516001836020036101000a031916815260200191505b50945050505050600060405180830381600087803b15801561118b57600080fd5b505af115801561119f573d6000803e3d6000fd5b50505050505050505b505050565b60076020528060005260406000206000915090505481565b600081601483011015611240576040517f08c379a00000000000000000000000000000000000000000000000000000000081526004018080602001828103825260128152602001807f746f416464726573735f6f766572666c6f77000000000000000000000000000081525060200191505060405180910390fd5b60148201835110156112ba576040517f08c379a00000000000000000000000000000000000000000000000000000000081526004018080602001828103825260158152602001807f746f416464726573735f6f75744f66426f756e6473000000000000000000000081525060200191505060405180910390fd5b60006c01000000000000000000000000836020860101510490508091505092915050565b600081602083011015611359576040517f08c379a00000000000000000000000000000000000000000000000000000000081526004018080602001828103825260128152602001807f746f55696e743235365f6f766572666c6f77000000000000000000000000000081525060200191505060405180910390fd5b60208201835110156113d3576040517f08c379a00000000000000000000000000000000000000000000000000000000081526004018080602001828103825260158152602001807f746f55696e743235365f6f75744f66426f756e6473000000000000000000000081525060200191505060405180910390fd5b60008260208501015190508091505092915050565b60008490506113f9818585856114a0565b5050505050565b6000839050611410818484611561565b50505050565b6060806040519050835180825260208201818101602087015b8183101561144c578051835260208301925060208101905061142f565b50855192508351830184528091508282019050602086015b818310156114815780518352602083019250602081019050611464565b50601f19601f8851850115830101166040525050508091505092915050565b61155b846323b872dd60e01b858585604051602401808473ffffffffffffffffffffffffffffffffffffffff1681526020018373ffffffffffffffffffffffffffffffffffffffff1681526020018281526020019350505050604051602081830303815290604052907bffffffffffffffffffffffffffffffffffffffffffffffffffffffff19166020820180517bffffffffffffffffffffffffffffffffffffffffffffffffffffffff8381831617835250505050611603565b50505050565b6115fe8363a9059cbb60e01b8484604051602401808373ffffffffffffffffffffffffffffffffffffffff16815260200182815260200192505050604051602081830303815290604052907bffffffffffffffffffffffffffffffffffffffffffffffffffffffff19166020820180517bffffffffffffffffffffffffffffffffffffffffffffffffffffffff8381831617835250505050611603565b505050565b600060608373ffffffffffffffffffffffffffffffffffffffff16836040518082805190602001908083835b60208310611652578051825260208201915060208101905060208303925061162f565b6001836020036101000a0380198251168184511680821785525050505050509050019150506000604051808303816000865af19150503d80600081146116b4576040519150601f19603f3d011682016040523d82523d6000602084013e6116b9565b606091505b509150915081611731576040517f08c379a00000000000000000000000000000000000000000000000000000000081526004018080602001828103825260128152602001807f45524332303a2063616c6c206661696c6564000000000000000000000000000081525060200191505060405180910390fd5b6000815111156117d45780806020019051602081101561175057600080fd5b81019080805190602001909291905050506117d3576040517f08c379a00000000000000000000000000000000000000000000000000000000081526004018080602001828103825260208152602001807f45524332303a206f7065726174696f6e20646964206e6f74207375636365656481525060200191505060405180910390fd5b5b50505050565b60405180604001604052806000801916815260200160008152509056fe546869732066756e6374696f6e206f6e6c7920627920636861696e627269646765a264697066735822122079b80809762d33957ae36366d9c9f113effe21e6bae87c0b8cdb58b7a5cc9d6164736f6c634300060c0033",
  "immutableReferences": {},
  "source": "// SPDX-License-Identifier: LGPL-3.0-only\npragma solidity ^0.6.12;\n\nimport './ERC20Safe.sol';\nimport 'solidity-bytes-utils/contracts/BytesLib.sol';\n\ninterface IBridge {\n    function deposit(uint8 destinationDomainID, bytes32 resourceID, bytes calldata data) external payable;\n}\n\ncontract PledgerBridgeBSC is ERC20Safe {\n    using BytesLib for bytes;\n\n    address public owner;\n\n    address public plgr_address;\n\n    address public bridge_address;\n\n    address public handler_address;\n\n    uint256 public wait_time;\n\n    // Arguments for chainbridge.\n    uint8 public cb_ddid;\n    bytes32 public cb_rid;\n\n    struct LockedPLGRTx {\n        address owner;\n        uint256 amount;\n    }\n\n    struct LockInfo {\n        bytes32 txid;\n        uint256 time;\n    }\n\n    mapping (address => uint256) public plgr_amounts;\n\n    mapping (bytes32 => LockedPLGRTx) public locked_plgr_tx;\n\n    LockInfo[] public locked_infos;\n\n    uint256 plgr_lock_nonce = 0;\n\n    event DepositPLGR(bytes32 txid, address owner, uint256 amount, uint time);\n\n    event WithdrawPLGR(address owner, uint256 amount);\n\n    constructor(address _plgr_address, address _bridge_address, address _handler_address, uint8 _cb_ddid, bytes32 _cb_rid) public {\n        owner = msg.sender;\n        plgr_address = _plgr_address;\n        bridge_address = _bridge_address;\n        handler_address = _handler_address;\n        cb_ddid = _cb_ddid;\n        cb_rid = _cb_rid;\n    }\n\n    function admin_update_configure(uint256 _wait_time) external {\n        require(msg.sender == owner, \"Admin only called by owner\");\n\n        wait_time = _wait_time;\n    }\n\n    function admin_update_bridge(address _bridge_address, address _handler_address, uint8 _cb_ddid, bytes32 _cb_rid) external {\n        require(msg.sender == owner, \"Admin only called by owner\");\n\n        bridge_address = _bridge_address;\n        handler_address = _handler_address;\n        cb_ddid = _cb_ddid;\n        cb_rid = _cb_rid;\n    }\n\n    // User call this function on BSC to deposit PLGR.\n    function deposit_plgr(address _owner, uint256 amount) external returns(bytes32) {\n\n        bytes32 txid = keccak256(abi.encode(_owner, amount, now, plgr_lock_nonce));\n        plgr_lock_nonce ++;\n\n        locked_plgr_tx[txid].owner = _owner;\n        locked_plgr_tx[txid].amount = amount;\n\n        lockERC20(plgr_address, _owner, address(this), amount);\n\n        LockInfo memory lock_info = LockInfo (txid, now);\n\n        locked_infos.push(lock_info);\n\n        emit DepositPLGR(txid, _owner, amount, now);\n\n        return txid;\n    }\n\n    // User call this function on BSC to widthdraw PLGR.\n    function widthdraw_plgr(uint256 amount) external {\n        uint256 value = plgr_amounts[msg.sender];\n\n        require(value >= amount, \"You have no enough PLGR\");\n\n        plgr_amounts[msg.sender]  -= amount;\n\n        releaseERC20(plgr_address, msg.sender, amount);\n\n        emit WithdrawPLGR(msg.sender, amount);\n    }\n\n    // Chainbridge call this function on BSC\n    function deposit_mplgr_bridge(bytes memory data) external {\n        require(msg.sender == handler_address, \"This function only by chainbridge\");\n\n        address addr = data.toAddress(0);\n        uint256 amount = data.toUint256(20);\n\n        plgr_amounts[addr] += amount / 3;\n    }\n\n    function check_upkeep() view public returns (int256) {\n        if (locked_infos.length == 0) {\n            return -1;\n        }\n\n        for(uint i = 0; i != locked_infos.length; i ++) {\n            if (locked_infos[i].time + wait_time > now) {\n                return int256(i) - 1;\n            }\n        }\n    }\n\n    function execute_upkeep(int256 index) external {\n        uint256 count = uint256(index) + 1;\n\n        bytes memory rdata = abi.encode(count);\n\n        if (index >= 0) {\n            for (uint i = 0; i <= uint256(index); i ++) {\n                bytes32 txid = locked_infos[i].txid;\n\n                bytes memory addr = abi.encodePacked(locked_plgr_tx[txid].owner);\n                rdata = rdata.concat(addr);\n\n                bytes memory amount = abi.encode(locked_plgr_tx[txid].amount);\n\n                rdata = rdata.concat(amount);\n\n                delete locked_plgr_tx[txid];\n                delete locked_infos[i];\n            }\n\n            bytes memory args_bytes = abi.encode(rdata);\n\n            bytes memory length = abi.encode(args_bytes.length);\n\n            bytes memory args = length.concat(args_bytes);\n\n            IBridge bridge = IBridge(bridge_address);\n\n            bridge.deposit(cb_ddid, cb_rid, args);\n        }\n    }\n}\n",
  "sourcePath": "/home/u20/codespace/pledge-backend/bridge-backend/contracts/BridgeBSC.sol",
  "compiler": {
    "name": "solc",
    "version": "0.6.12+commit.27d51765.Emscripten.clang"
  },
  "schemaVersion": "3.4.3",
  "updatedAt": "2021-12-30T01:29:01.257Z",
  "networkType": "ethereum",
  "devdoc": {
    "kind": "dev",
    "methods": {},
    "version": 1
  },
  "userdoc": {
    "kind": "user",
    "methods": {},
    "version": 1
  }
}