{
  "contractName": "PledgerBridgeETH",
  "abi": [
    {
      "inputs": [
        {
          "internalType": "address",
          "name": "_bridge_address",
          "type": "address"
        },
        {
          "internalType": "address",
          "name": "_handler_address",
          "type": "address"
        },
        {
          "internalType": "address",
          "name": "_mplgr_address",
          "type": "address"
        },
        {
          "internalType": "uint8",
          "name": "_cb_ddid",
          "type": "uint8"
        },
        {
          "internalType": "bytes32",
          "name": "_cb_rid",
          "type": "bytes32"
        }
      ],
      "stateMutability": "nonpayable",
      "type": "constructor"
    },
    {
      "anonymous": false,
      "inputs": [
        {
          "indexed": false,
          "internalType": "bytes",
          "name": "data",
          "type": "bytes"
        }
      ],
      "name": "DebugDepositMPLGR",
      "type": "event"
    },
    {
      "anonymous": false,
      "inputs": [
        {
          "indexed": false,
          "internalType": "address",
          "name": "owner",
          "type": "address"
        },
        {
          "indexed": false,
          "internalType": "uint256",
          "name": "amount",
          "type": "uint256"
        }
      ],
      "name": "DepositMPLGR",
      "type": "event"
    },
    {
      "anonymous": false,
      "inputs": [
        {
          "indexed": false,
          "internalType": "address",
          "name": "owner",
          "type": "address"
        },
        {
          "indexed": false,
          "internalType": "uint256",
          "name": "amount",
          "type": "uint256"
        }
      ],
      "name": "DepositMPLGRBridge",
      "type": "event"
    },
    {
      "anonymous": false,
      "inputs": [
        {
          "indexed": false,
          "internalType": "address",
          "name": "recipient",
          "type": "address"
        },
        {
          "indexed": false,
          "internalType": "uint256",
          "name": "amount",
          "type": "uint256"
        }
      ],
      "name": "WithdrawMPLGR",
      "type": "event"
    },
    {
      "inputs": [],
      "name": "bridge_address",
      "outputs": [
        {
          "internalType": "address",
          "name": "",
          "type": "address"
        }
      ],
      "stateMutability": "view",
      "type": "function"
    },
    {
      "inputs": [],
      "name": "cb_ddid",
      "outputs": [
        {
          "internalType": "uint8",
          "name": "",
          "type": "uint8"
        }
      ],
      "stateMutability": "view",
      "type": "function"
    },
    {
      "inputs": [],
      "name": "cb_rid",
      "outputs": [
        {
          "internalType": "bytes32",
          "name": "",
          "type": "bytes32"
        }
      ],
      "stateMutability": "view",
      "type": "function"
    },
    {
      "inputs": [],
      "name": "handler_address",
      "outputs": [
        {
          "internalType": "address",
          "name": "",
          "type": "address"
        }
      ],
      "stateMutability": "view",
      "type": "function"
    },
    {
      "inputs": [],
      "name": "mplgr_address",
      "outputs": [
        {
          "internalType": "address",
          "name": "",
          "type": "address"
        }
      ],
      "stateMutability": "view",
      "type": "function"
    },
    {
      "inputs": [
        {
          "internalType": "address",
          "name": "",
          "type": "address"
        }
      ],
      "name": "mplgr_amounts",
      "outputs": [
        {
          "internalType": "uint256",
          "name": "",
          "type": "uint256"
        }
      ],
      "stateMutability": "view",
      "type": "function"
    },
    {
      "inputs": [],
      "name": "owner",
      "outputs": [
        {
          "internalType": "address",
          "name": "",
          "type": "address"
        }
      ],
      "stateMutability": "view",
      "type": "function"
    },
    {
      "inputs": [
        {
          "internalType": "address",
          "name": "_bridge_address",
          "type": "address"
        },
        {
          "internalType": "address",
          "name": "_handler_address",
          "type": "address"
        },
        {
          "internalType": "uint8",
          "name": "_cb_ddid",
          "type": "uint8"
        },
        {
          "internalType": "bytes32",
          "name": "_cb_rid",
          "type": "bytes32"
        }
      ],
      "name": "admin_update_bridge",
      "outputs": [],
      "stateMutability": "nonpayable",
      "type": "function"
    },
    {
      "inputs": [
        {
          "internalType": "bytes",
          "name": "data",
          "type": "bytes"
        }
      ],
      "name": "deposit_mplgr_bridge",
      "outputs": [],
      "stateMutability": "nonpayable",
      "type": "function"
    },
    {
      "inputs": [
        {
          "internalType": "uint256",
          "name": "amount",
          "type": "uint256"
        }
      ],
      "name": "widthdraw_mplgr",
      "outputs": [],
      "stateMutability": "nonpayable",
      "type": "function"
    },
    {
      "inputs": [
        {
          "internalType": "address",
          "name": "_owner",
          "type": "address"
        },
        {
          "internalType": "uint256",
          "name": "amount",
          "type": "uint256"
        }
      ],
      "name": "deposit_mplgr",
      "outputs": [],
      "stateMutability": "nonpayable",
      "type": "function"
    }
  ],
  "bytecode": "0x608060405234801561001057600080fd5b5060405161161d38038061161d833981810160405260a081101561003357600080fd5b81019080805190602001909291908051906020019092919080519060200190929190805190602001909291908051906020019092919050505033600260006101000a81548173ffffffffffffffffffffffffffffffffffffffff021916908373ffffffffffffffffffffffffffffffffffffffff160217905550846000806101000a81548173ffffffffffffffffffffffffffffffffffffffff021916908373ffffffffffffffffffffffffffffffffffffffff16021790555083600160006101000a81548173ffffffffffffffffffffffffffffffffffffffff021916908373ffffffffffffffffffffffffffffffffffffffff16021790555082600360006101000a81548173ffffffffffffffffffffffffffffffffffffffff021916908373ffffffffffffffffffffffffffffffffffffffff16021790555081600360146101000a81548160ff021916908360ff160217905550806004819055505050505050611478806101a56000396000f3fe608060405234801561001057600080fd5b50600436106100a85760003560e01c80635b1cf3d2116100715780635b1cf3d2146102335780638da5cb5b14610261578063ab7272ea14610295578063b285a9c1146102c9578063c7b4c5bf14610317578063f8f1603e14610392576100a8565b806216a071146100ad57806302c0ab3b1461010557806304ecb844146101c05780631255c189146101e15780632068a84314610215575b600080fd5b6100ef600480360360208110156100c357600080fd5b81019080803573ffffffffffffffffffffffffffffffffffffffff1690602001909291905050506103c6565b6040518082815260200191505060405180910390f35b6101be6004803603602081101561011b57600080fd5b810190808035906020019064010000000081111561013857600080fd5b82018360208201111561014a57600080fd5b8035906020019184600183028401116401000000008311171561016c57600080fd5b91908080601f016020809104026020016040519081016040528093929190818152602001838380828437600081840152601f19601f8201169050808301925050505050505091929192905050506103de565b005b6101c861066d565b604051808260ff16815260200191505060405180910390f35b6101e9610680565b604051808273ffffffffffffffffffffffffffffffffffffffff16815260200191505060405180910390f35b61021d6106a4565b6040518082815260200191505060405180910390f35b61025f6004803603602081101561024957600080fd5b81019080803590602001909291905050506106aa565b005b610269610830565b604051808273ffffffffffffffffffffffffffffffffffffffff16815260200191505060405180910390f35b61029d610856565b604051808273ffffffffffffffffffffffffffffffffffffffff16815260200191505060405180910390f35b610315600480360360408110156102df57600080fd5b81019080803573ffffffffffffffffffffffffffffffffffffffff1690602001909291908035906020019092919050505061087c565b005b6103906004803603608081101561032d57600080fd5b81019080803573ffffffffffffffffffffffffffffffffffffffff169060200190929190803573ffffffffffffffffffffffffffffffffffffffff169060200190929190803560ff16906020019092919080359060200190929190505050610b06565b005b61039a610c72565b604051808273ffffffffffffffffffffffffffffffffffffffff16815260200191505060405180910390f35b60056020528060005260406000206000915090505481565b600160009054906101000a900473ffffffffffffffffffffffffffffffffffffffff1673ffffffffffffffffffffffffffffffffffffffff163373ffffffffffffffffffffffffffffffffffffffff1614610484576040517f08c379a000000000000000000000000000000000000000000000000000000000815260040180806020018281038252602581526020018061141e6025913960400191505060405180910390fd5b7f28df32dd70ae590e6391db741d3f5890440105eb3645092993a488ee1ba573de816040518080602001828103825283818151815260200191508051906020019080838360005b838110156104e65780820151818401526020810190506104cb565b50505050905090810190601f1680156105135780820380516001836020036101000a031916815260200191505b509250505060405180910390a16000606082806020019051602081101561053957600080fd5b8101908080519060200190929190505050915061056560206034840285610c989092919063ffffffff16565b90506000806000806014905060005b8681146106635760348102925060348102601401915061059d8387610e0890919063ffffffff16565b94506105b28287610f2190919063ffffffff16565b935083600560008773ffffffffffffffffffffffffffffffffffffffff1673ffffffffffffffffffffffffffffffffffffffff168152602001908152602001600020600082825401925050819055507f7913b5c1ff9a95dd5f46c9ffdaec78cd8b8a88cad0a011de4f70383ac4155ec78585604051808373ffffffffffffffffffffffffffffffffffffffff1681526020018281526020019250505060405180910390a18080600101915050610574565b5050505050505050565b600360149054906101000a900460ff1681565b60008054906101000a900473ffffffffffffffffffffffffffffffffffffffff1681565b60045481565b6000600560003373ffffffffffffffffffffffffffffffffffffffff1673ffffffffffffffffffffffffffffffffffffffff16815260200190815260200160002054905081811015610764576040517f08c379a00000000000000000000000000000000000000000000000000000000081526004018080602001828103825260188152602001807f596f752068617665206e6f20656e6f756768204d504c4752000000000000000081525060200191505060405180910390fd5b818103600560003373ffffffffffffffffffffffffffffffffffffffff1673ffffffffffffffffffffffffffffffffffffffff168152602001908152602001600020819055506107d7600360009054906101000a900473ffffffffffffffffffffffffffffffffffffffff16338461102b565b7f2a6c9f7fc2e6de3721bffcd5fa4eb025b223d57905c95dbdfcadab0eb63103353383604051808373ffffffffffffffffffffffffffffffffffffffff1681526020018281526020019250505060405180910390a15050565b600260009054906101000a900473ffffffffffffffffffffffffffffffffffffffff1681565b600160009054906101000a900473ffffffffffffffffffffffffffffffffffffffff1681565b6108aa600360009054906101000a900473ffffffffffffffffffffffffffffffffffffffff16833084611041565b606081604051602001808281526020019150506040516020818303038152906040529050606083604051602001808273ffffffffffffffffffffffffffffffffffffffff1660601b815260140191505060405160208183030381529060405290506060610920838361105990919063ffffffff16565b6040516020018080602001828103825283818151815260200191508051906020019080838360005b83811015610963578082015181840152602081019050610948565b50505050905090810190601f1680156109905780820380516001836020036101000a031916815260200191505b509250505060405160208183030381529060405290506060815160405160200180828152602001915050604051602081830303815290604052905060606109e0838361105990919063ffffffff16565b905060008060009054906101000a900473ffffffffffffffffffffffffffffffffffffffff1690508073ffffffffffffffffffffffffffffffffffffffff166305e2ca17600360149054906101000a900460ff16600454856040518463ffffffff1660e01b8152600401808460ff16815260200183815260200180602001828103825283818151815260200191508051906020019080838360005b83811015610a96578082015181840152602081019050610a7b565b50505050905090810190601f168015610ac35780820380516001836020036101000a031916815260200191505b50945050505050600060405180830381600087803b158015610ae457600080fd5b505af1158015610af8573d6000803e3d6000fd5b505050505050505050505050565b600260009054906101000a900473ffffffffffffffffffffffffffffffffffffffff1673ffffffffffffffffffffffffffffffffffffffff163373ffffffffffffffffffffffffffffffffffffffff1614610bc9576040517f08c379a000000000000000000000000000000000000000000000000000000000815260040180806020018281038252601a8152602001807f41646d696e206f6e6c792063616c6c6564206279206f776e657200000000000081525060200191505060405180910390fd5b836000806101000a81548173ffffffffffffffffffffffffffffffffffffffff021916908373ffffffffffffffffffffffffffffffffffffffff16021790555082600160006101000a81548173ffffffffffffffffffffffffffffffffffffffff021916908373ffffffffffffffffffffffffffffffffffffffff16021790555081600360146101000a81548160ff021916908360ff1602179055508060048190555050505050565b600360009054906101000a900473ffffffffffffffffffffffffffffffffffffffff1681565b606082601f838501011015610d15576040517f08c379a000000000000000000000000000000000000000000000000000000000815260040180806020018281038252600e8152602001807f736c6963655f6f766572666c6f7700000000000000000000000000000000000081525060200191505060405180910390fd5b81830184511015610d8e576040517f08c379a00000000000000000000000000000000000000000000000000000000081526004018080602001828103825260118152602001807f736c6963655f6f75744f66426f756e647300000000000000000000000000000081525060200191505060405180910390fd5b6060821560008114610dab57604051915060208201604052610dfc565b6040519150601f8416801560200281840101858101878315602002848b0101015b81831015610de95780518352602083019250602081019050610dcc565b50868552601f19601f8301166040525050505b50809150509392505050565b600081601483011015610e83576040517f08c379a00000000000000000000000000000000000000000000000000000000081526004018080602001828103825260128152602001807f746f416464726573735f6f766572666c6f77000000000000000000000000000081525060200191505060405180910390fd5b6014820183511015610efd576040517f08c379a00000000000000000000000000000000000000000000000000000000081526004018080602001828103825260158152602001807f746f416464726573735f6f75744f66426f756e6473000000000000000000000081525060200191505060405180910390fd5b60006c01000000000000000000000000836020860101510490508091505092915050565b600081602083011015610f9c576040517f08c379a00000000000000000000000000000000000000000000000000000000081526004018080602001828103825260128152602001807f746f55696e743235365f6f766572666c6f77000000000000000000000000000081525060200191505060405180910390fd5b6020820183511015611016576040517f08c379a00000000000000000000000000000000000000000000000000000000081526004018080602001828103825260158152602001807f746f55696e743235365f6f75744f66426f756e6473000000000000000000000081525060200191505060405180910390fd5b60008260208501015190508091505092915050565b600083905061103b8184846110e3565b50505050565b600084905061105281858585611185565b5050505050565b6060806040519050835180825260208201818101602087015b8183101561108f5780518352602083019250602081019050611072565b50855192508351830184528091508282019050602086015b818310156110c457805183526020830192506020810190506110a7565b50601f19601f8851850115830101166040525050508091505092915050565b6111808363a9059cbb60e01b8484604051602401808373ffffffffffffffffffffffffffffffffffffffff16815260200182815260200192505050604051602081830303815290604052907bffffffffffffffffffffffffffffffffffffffffffffffffffffffff19166020820180517bffffffffffffffffffffffffffffffffffffffffffffffffffffffff8381831617835250505050611246565b505050565b611240846323b872dd60e01b858585604051602401808473ffffffffffffffffffffffffffffffffffffffff1681526020018373ffffffffffffffffffffffffffffffffffffffff1681526020018281526020019350505050604051602081830303815290604052907bffffffffffffffffffffffffffffffffffffffffffffffffffffffff19166020820180517bffffffffffffffffffffffffffffffffffffffffffffffffffffffff8381831617835250505050611246565b50505050565b600060608373ffffffffffffffffffffffffffffffffffffffff16836040518082805190602001908083835b602083106112955780518252602082019150602081019050602083039250611272565b6001836020036101000a0380198251168184511680821785525050505050509050019150506000604051808303816000865af19150503d80600081146112f7576040519150601f19603f3d011682016040523d82523d6000602084013e6112fc565b606091505b509150915081611374576040517f08c379a00000000000000000000000000000000000000000000000000000000081526004018080602001828103825260128152602001807f45524332303a2063616c6c206661696c6564000000000000000000000000000081525060200191505060405180910390fd5b6000815111156114175780806020019051602081101561139357600080fd5b8101908080519060200190929190505050611416576040517f08c379a00000000000000000000000000000000000000000000000000000000081526004018080602001828103825260208152602001807f45524332303a206f7065726174696f6e20646964206e6f74207375636365656481525060200191505060405180910390fd5b5b5050505056fe7769647468647261775f6d706c6772206f6e6c792063616c6c656420627920627269646765a2646970667358221220c26581b79d7f4ded05b639be2e2697e1404eaaf92f8864bacd4fd2ecabc3005c64736f6c634300060c0033",
  "immutableReferences": {},
  "source": "// SPDX-License-Identifier: LGPL-3.0-only\npragma solidity ^0.6.12;\n\nimport './ERC20Safe.sol';\nimport 'solidity-bytes-utils/contracts/BytesLib.sol';\n\ninterface IBridge {\n    function deposit(uint8 destinationDomainID, bytes32 resourceID, bytes calldata data) external payable;\n}\n\ncontract PledgerBridgeETH is ERC20Safe {\n    using BytesLib for bytes;\n\n    address public bridge_address;\n\n    address public handler_address;\n\n    address public owner;\n\n    address public mplgr_address;\n\n    // Arguments for chainbridge.\n    uint8 public cb_ddid;\n    bytes32 public cb_rid;\n\n    // Store mplgr amounts by address.\n    mapping(address => uint256) public mplgr_amounts;\n\n    event WithdrawMPLGR(address recipient, uint256 amount);\n\n    event DepositMPLGR(address owner, uint256 amount);\n\n    event DepositMPLGRBridge(address owner, uint256 amount);\n\n    event DebugDepositMPLGR(bytes data);\n\n    constructor(address _bridge_address, address _handler_address, address _mplgr_address, uint8 _cb_ddid, bytes32 _cb_rid) public {\n        owner = msg.sender;\n        bridge_address = _bridge_address;\n        handler_address = _handler_address;\n        mplgr_address = _mplgr_address;\n        cb_ddid = _cb_ddid;\n        cb_rid = _cb_rid;\n    }\n\n    function admin_update_bridge(address _bridge_address, address _handler_address, uint8 _cb_ddid, bytes32 _cb_rid) public {\n        require(msg.sender == owner, \"Admin only called by owner\");\n\n        bridge_address = _bridge_address;\n        handler_address = _handler_address;\n        cb_ddid = _cb_ddid;\n        cb_rid = _cb_rid;\n    }\n\n    // Chainbridge call this function on ETH\n    function deposit_mplgr_bridge(bytes memory data) external {\n        require(msg.sender == handler_address, \"widthdraw_mplgr only called by bridge\");\n\n        emit DebugDepositMPLGR(data);\n\n        uint256 amountCount;\n        bytes memory mplgr_amounts_bytes;\n\n        amountCount = abi.decode(data, (uint256));\n        mplgr_amounts_bytes = data.slice(32, amountCount * ( 20 + 32));\n\n        address addr;\n        uint256 amount;\n\n        uint offset_begin = 0;\n        uint offset_middle = 20;\n\n        for (uint i = 0; i != amountCount; i ++) {\n            offset_begin = i * (20 + 32);\n            offset_middle = 20 + i * (20 + 32);\n\n            addr = mplgr_amounts_bytes.toAddress(offset_begin);\n            amount = mplgr_amounts_bytes.toUint256(offset_middle);\n\n            mplgr_amounts[addr] += amount;\n\n            emit DepositMPLGRBridge(addr, amount);\n        }\n    }\n\n    // User call this function on ETH to widthdraw MPLGR.\n    function widthdraw_mplgr(uint256 amount) external {\n        uint256 value = mplgr_amounts[msg.sender];\n\n        require(value >= amount, \"You have no enough MPLGR\");\n\n        mplgr_amounts[msg.sender] = value - amount;\n\n        releaseERC20(mplgr_address, msg.sender, amount);\n\n        emit WithdrawMPLGR(msg.sender, amount);\n    }\n\n    // Call bridge\n    function deposit_mplgr(address _owner, uint256 amount) external {\n        lockERC20(mplgr_address, _owner, address(this), amount);\n\n        bytes memory amount_bytes = abi.encode(amount);\n\n        bytes memory addr_bytes = abi.encodePacked(_owner);\n\n        bytes memory args_bytes = abi.encode(addr_bytes.concat(amount_bytes));\n\n        bytes memory length = abi.encode(args_bytes.length);\n\n        bytes memory args = length.concat(args_bytes);\n\n        IBridge bridge = IBridge(bridge_address);\n\n        bridge.deposit(cb_ddid, cb_rid, args);\n    }\n}\n",
  "sourcePath": "/home/u20/codespace/pledge-backend/bridge-backend/contracts/BridgeETH.sol",
  "compiler": {
    "name": "solc",
    "version": "0.6.12+commit.27d51765.Emscripten.clang"
  },
  "schemaVersion": "3.4.3",
  "updatedAt": "2021-12-28T02:56:06.121Z",
  "devdoc": {
    "kind": "dev",
    "methods": {},
    "version": 1
  },
  "userdoc": {
    "kind": "user",
    "methods": {},
    "version": 1
  }
}