{
  "contractName": "PledgerBridgeETH",
  "abi": [
    {
      "inputs": [
        {
          "internalType": "address",
          "name": "_bridge_address",
          "type": "address"
        },
        {
          "internalType": "address",
          "name": "_handler_address",
          "type": "address"
        },
        {
          "internalType": "address",
          "name": "_mplgr_address",
          "type": "address"
        },
        {
          "internalType": "uint8",
          "name": "_cb_ddid",
          "type": "uint8"
        },
        {
          "internalType": "bytes32",
          "name": "_cb_rid",
          "type": "bytes32"
        }
      ],
      "stateMutability": "nonpayable",
      "type": "constructor"
    },
    {
      "anonymous": false,
      "inputs": [
        {
          "indexed": false,
          "internalType": "bytes",
          "name": "data",
          "type": "bytes"
        }
      ],
      "name": "DebugDepositMPLGR",
      "type": "event"
    },
    {
      "anonymous": false,
      "inputs": [
        {
          "indexed": false,
          "internalType": "address",
          "name": "owner",
          "type": "address"
        },
        {
          "indexed": false,
          "internalType": "uint256",
          "name": "amount",
          "type": "uint256"
        }
      ],
      "name": "DepositMPLGR",
      "type": "event"
    },
    {
      "anonymous": false,
      "inputs": [
        {
          "indexed": false,
          "internalType": "address",
          "name": "owner",
          "type": "address"
        },
        {
          "indexed": false,
          "internalType": "uint256",
          "name": "amount",
          "type": "uint256"
        }
      ],
      "name": "DepositMPLGRBridge",
      "type": "event"
    },
    {
      "anonymous": false,
      "inputs": [
        {
          "indexed": false,
          "internalType": "address",
          "name": "recipient",
          "type": "address"
        },
        {
          "indexed": false,
          "internalType": "uint256",
          "name": "amount",
          "type": "uint256"
        }
      ],
      "name": "WithdrawMPLGR",
      "type": "event"
    },
    {
      "inputs": [],
      "name": "bridge_address",
      "outputs": [
        {
          "internalType": "address",
          "name": "",
          "type": "address"
        }
      ],
      "stateMutability": "view",
      "type": "function"
    },
    {
      "inputs": [],
      "name": "cb_ddid",
      "outputs": [
        {
          "internalType": "uint8",
          "name": "",
          "type": "uint8"
        }
      ],
      "stateMutability": "view",
      "type": "function"
    },
    {
      "inputs": [],
      "name": "cb_rid",
      "outputs": [
        {
          "internalType": "bytes32",
          "name": "",
          "type": "bytes32"
        }
      ],
      "stateMutability": "view",
      "type": "function"
    },
    {
      "inputs": [],
      "name": "handler_address",
      "outputs": [
        {
          "internalType": "address",
          "name": "",
          "type": "address"
        }
      ],
      "stateMutability": "view",
      "type": "function"
    },
    {
      "inputs": [],
      "name": "mplgr_address",
      "outputs": [
        {
          "internalType": "address",
          "name": "",
          "type": "address"
        }
      ],
      "stateMutability": "view",
      "type": "function"
    },
    {
      "inputs": [
        {
          "internalType": "address",
          "name": "",
          "type": "address"
        }
      ],
      "name": "mplgr_amounts",
      "outputs": [
        {
          "internalType": "uint256",
          "name": "",
          "type": "uint256"
        }
      ],
      "stateMutability": "view",
      "type": "function"
    },
    {
      "inputs": [],
      "name": "owner",
      "outputs": [
        {
          "internalType": "address",
          "name": "",
          "type": "address"
        }
      ],
      "stateMutability": "view",
      "type": "function"
    },
    {
      "inputs": [
        {
          "internalType": "address",
          "name": "_bridge_address",
          "type": "address"
        },
        {
          "internalType": "address",
          "name": "_handler_address",
          "type": "address"
        },
        {
          "internalType": "uint8",
          "name": "_cb_ddid",
          "type": "uint8"
        },
        {
          "internalType": "bytes32",
          "name": "_cb_rid",
          "type": "bytes32"
        }
      ],
      "name": "admin_update_bridge",
      "outputs": [],
      "stateMutability": "nonpayable",
      "type": "function"
    },
    {
      "inputs": [
        {
          "internalType": "bytes",
          "name": "data",
          "type": "bytes"
        }
      ],
      "name": "deposit_mplgr_bridge",
      "outputs": [],
      "stateMutability": "nonpayable",
      "type": "function"
    },
    {
      "inputs": [
        {
          "internalType": "uint256",
          "name": "amount",
          "type": "uint256"
        }
      ],
      "name": "widthdraw_mplgr",
      "outputs": [],
      "stateMutability": "nonpayable",
      "type": "function"
    },
    {
      "inputs": [
        {
          "internalType": "address",
          "name": "_owner",
          "type": "address"
        },
        {
          "internalType": "uint256",
          "name": "amount",
          "type": "uint256"
        }
      ],
      "name": "deposit_mplgr",
      "outputs": [],
      "stateMutability": "nonpayable",
      "type": "function"
    }
  ],
  "bytecode": "0x60806040523480156200001157600080fd5b5060405162001c6b38038062001c6b8339818101604052810190620000379190620001ac565b33600260006101000a81548173ffffffffffffffffffffffffffffffffffffffff021916908373ffffffffffffffffffffffffffffffffffffffff160217905550846000806101000a81548173ffffffffffffffffffffffffffffffffffffffff021916908373ffffffffffffffffffffffffffffffffffffffff16021790555083600160006101000a81548173ffffffffffffffffffffffffffffffffffffffff021916908373ffffffffffffffffffffffffffffffffffffffff16021790555082600360006101000a81548173ffffffffffffffffffffffffffffffffffffffff021916908373ffffffffffffffffffffffffffffffffffffffff16021790555081600360146101000a81548160ff021916908360ff160217905550806004819055505050505050620002c7565b600081519050620001788162000279565b92915050565b6000815190506200018f8162000293565b92915050565b600081519050620001a681620002ad565b92915050565b600080600080600060a08688031215620001c557600080fd5b6000620001d58882890162000167565b9550506020620001e88882890162000167565b9450506040620001fb8882890162000167565b93505060606200020e8882890162000195565b925050608062000221888289016200017e565b9150509295509295909350565b60006200023b826200024c565b9050919050565b6000819050919050565b600073ffffffffffffffffffffffffffffffffffffffff82169050919050565b600060ff82169050919050565b62000284816200022e565b81146200029057600080fd5b50565b6200029e8162000242565b8114620002aa57600080fd5b50565b620002b8816200026c565b8114620002c457600080fd5b50565b61199480620002d76000396000f3fe608060405234801561001057600080fd5b50600436106100a85760003560e01c80635b1cf3d2116100715780635b1cf3d2146101535780638da5cb5b1461016f578063ab7272ea1461018d578063b285a9c1146101ab578063c7b4c5bf146101c7578063f8f1603e146101e3576100a8565b806216a071146100ad57806302c0ab3b146100dd57806304ecb844146100f95780631255c189146101175780632068a84314610135575b600080fd5b6100c760048036038101906100c29190610ebf565b610201565b6040516100d49190611570565b60405180910390f35b6100f760048036038101906100f29190610fb0565b610219565b005b610101610444565b60405161010e919061158b565b60405180910390f35b61011f610457565b60405161012c9190611398565b60405180910390f35b61013d61047b565b60405161014a9190611413565b60405180910390f35b61016d60048036038101906101689190610ff1565b610481565b005b6101776105c1565b6040516101849190611398565b60405180910390f35b6101956105e7565b6040516101a29190611398565b60405180910390f35b6101c560048036038101906101c09190610f4b565b61060d565b005b6101e160048036038101906101dc9190610ee8565b6107a5565b005b6101eb6108de565b6040516101f89190611398565b60405180910390f35b60056020528060005260406000206000915090505481565b600160009054906101000a900473ffffffffffffffffffffffffffffffffffffffff1673ffffffffffffffffffffffffffffffffffffffff163373ffffffffffffffffffffffffffffffffffffffff16146102a9576040517f08c379a00000000000000000000000000000000000000000000000000000000081526004016102a090611470565b60405180910390fd5b7f28df32dd70ae590e6391db741d3f5890440105eb3645092993a488ee1ba573de816040516102d8919061142e565b60405180910390a160006060828060200190518101906102f8919061101a565b915061031c602060348461030c91906116d3565b856109049092919063ffffffff16565b90506000806000806014905060005b86811461043a5760348161033f91906116d3565b925060348161034e91906116d3565b601461035a919061167d565b915061036f8387610a2290919063ffffffff16565b94506000600190508061038b8489610a9890919063ffffffff16565b61039591906116d3565b945084600560008873ffffffffffffffffffffffffffffffffffffffff1673ffffffffffffffffffffffffffffffffffffffff16815260200190815260200160002060008282546103e6919061167d565b925050819055507f7913b5c1ff9a95dd5f46c9ffdaec78cd8b8a88cad0a011de4f70383ac4155ec7868660405161041e9291906113ea565b60405180910390a150808061043290611802565b91505061032b565b5050505050505050565b600360149054906101000a900460ff1681565b60008054906101000a900473ffffffffffffffffffffffffffffffffffffffff1681565b60045481565b6000600560003373ffffffffffffffffffffffffffffffffffffffff1673ffffffffffffffffffffffffffffffffffffffff16815260200190815260200160002054905081811015610508576040517f08c379a00000000000000000000000000000000000000000000000000000000081526004016104ff90611530565b60405180910390fd5b8181610514919061172d565b600560003373ffffffffffffffffffffffffffffffffffffffff1673ffffffffffffffffffffffffffffffffffffffff16815260200190815260200160002081905550610584600360009054906101000a900473ffffffffffffffffffffffffffffffffffffffff163384610aff565b7f2a6c9f7fc2e6de3721bffcd5fa4eb025b223d57905c95dbdfcadab0eb631033533836040516105b59291906113ea565b60405180910390a15050565b600260009054906101000a900473ffffffffffffffffffffffffffffffffffffffff1681565b600160009054906101000a900473ffffffffffffffffffffffffffffffffffffffff1681565b61063b600360009054906101000a900473ffffffffffffffffffffffffffffffffffffffff16833084610b15565b60008160405160200161064e9190611570565b60405160208183030381529060405290506000836040516020016106729190611366565b604051602081830303815290604052905060006106988383610b2d90919063ffffffff16565b6040516020016106a8919061142e565b6040516020818303038152906040529050600081516040516020016106cd9190611570565b604051602081830303815290604052905060006106f38383610b2d90919063ffffffff16565b905060008060009054906101000a900473ffffffffffffffffffffffffffffffffffffffff1690508073ffffffffffffffffffffffffffffffffffffffff166305e2ca17600360149054906101000a900460ff16600454856040518463ffffffff1660e01b8152600401610769939291906115a6565b600060405180830381600087803b15801561078357600080fd5b505af1158015610797573d6000803e3d6000fd5b505050505050505050505050565b600260009054906101000a900473ffffffffffffffffffffffffffffffffffffffff1673ffffffffffffffffffffffffffffffffffffffff163373ffffffffffffffffffffffffffffffffffffffff1614610835576040517f08c379a000000000000000000000000000000000000000000000000000000000815260040161082c906114d0565b60405180910390fd5b836000806101000a81548173ffffffffffffffffffffffffffffffffffffffff021916908373ffffffffffffffffffffffffffffffffffffffff16021790555082600160006101000a81548173ffffffffffffffffffffffffffffffffffffffff021916908373ffffffffffffffffffffffffffffffffffffffff16021790555081600360146101000a81548160ff021916908360ff1602179055508060048190555050505050565b600360009054906101000a900473ffffffffffffffffffffffffffffffffffffffff1681565b606081601f83610914919061167d565b1015610955576040517f08c379a000000000000000000000000000000000000000000000000000000000815260040161094c906114b0565b60405180910390fd5b8183610961919061167d565b845110156109a4576040517f08c379a000000000000000000000000000000000000000000000000000000000815260040161099b90611550565b60405180910390fd5b60608215600081146109c55760405191506000825260208201604052610a16565b6040519150601f8416801560200281840101858101878315602002848b0101015b81831015610a0357805183526020830192506020810190506109e6565b50868552601f19601f8301166040525050505b50809150509392505050565b6000601482610a31919061167d565b83511015610a74576040517f08c379a0000000000000000000000000000000000000000000000000000000008152600401610a6b90611510565b60405180910390fd5b60006c01000000000000000000000000836020860101510490508091505092915050565b6000602082610aa7919061167d565b83511015610aea576040517f08c379a0000000000000000000000000000000000000000000000000000000008152600401610ae1906114f0565b60405180910390fd5b60008260208501015190508091505092915050565b6000839050610b0f818484610bb7565b50505050565b6000849050610b2681858585610c3d565b5050505050565b6060806040519050835180825260208201818101602087015b81831015610b635780518352602083019250602081019050610b46565b50855192508351830184528091508282019050602086015b81831015610b985780518352602083019250602081019050610b7b565b50601f19601f8851850115830101166040525050508091505092915050565b610c388363a9059cbb60e01b8484604051602401610bd69291906113ea565b604051602081830303815290604052907bffffffffffffffffffffffffffffffffffffffffffffffffffffffff19166020820180517bffffffffffffffffffffffffffffffffffffffffffffffffffffffff8381831617835250505050610cc6565b505050565b610cc0846323b872dd60e01b858585604051602401610c5e939291906113b3565b604051602081830303815290604052907bffffffffffffffffffffffffffffffffffffffffffffffffffffffff19166020820180517bffffffffffffffffffffffffffffffffffffffffffffffffffffffff8381831617835250505050610cc6565b50505050565b6000808373ffffffffffffffffffffffffffffffffffffffff1683604051610cee9190611381565b6000604051808303816000865af19150503d8060008114610d2b576040519150601f19603f3d011682016040523d82523d6000602084013e610d30565b606091505b509150915081610d75576040517f08c379a0000000000000000000000000000000000000000000000000000000008152600401610d6c90611490565b60405180910390fd5b600081511115610dd35780806020019051810190610d939190610f87565b610dd2576040517f08c379a0000000000000000000000000000000000000000000000000000000008152600401610dc990611450565b60405180910390fd5b5b50505050565b6000610dec610de784611615565b6115e4565b905082815260208101848484011115610e0457600080fd5b610e0f8482856117c0565b509392505050565b600081359050610e26816118eb565b92915050565b600081519050610e3b81611902565b92915050565b600081359050610e5081611919565b92915050565b600082601f830112610e6757600080fd5b8135610e77848260208601610dd9565b91505092915050565b600081359050610e8f81611930565b92915050565b600081519050610ea481611930565b92915050565b600081359050610eb981611947565b92915050565b600060208284031215610ed157600080fd5b6000610edf84828501610e17565b91505092915050565b60008060008060808587031215610efe57600080fd5b6000610f0c87828801610e17565b9450506020610f1d87828801610e17565b9350506040610f2e87828801610eaa565b9250506060610f3f87828801610e41565b91505092959194509250565b60008060408385031215610f5e57600080fd5b6000610f6c85828601610e17565b9250506020610f7d85828601610e80565b9150509250929050565b600060208284031215610f9957600080fd5b6000610fa784828501610e2c565b91505092915050565b600060208284031215610fc257600080fd5b600082013567ffffffffffffffff811115610fdc57600080fd5b610fe884828501610e56565b91505092915050565b60006020828403121561100357600080fd5b600061101184828501610e80565b91505092915050565b60006020828403121561102c57600080fd5b600061103a84828501610e95565b91505092915050565b61104c81611761565b82525050565b61106361105e82611761565b61184b565b82525050565b6110728161177f565b82525050565b600061108382611645565b61108d8185611650565b935061109d8185602086016117cf565b6110a6816118cd565b840191505092915050565b60006110bc82611645565b6110c68185611661565b93506110d68185602086016117cf565b80840191505092915050565b60006110ef60208361166c565b91507f45524332303a206f7065726174696f6e20646964206e6f7420737563636565646000830152602082019050919050565b600061112f60258361166c565b91507f7769647468647261775f6d706c6772206f6e6c792063616c6c6564206279206260008301527f72696467650000000000000000000000000000000000000000000000000000006020830152604082019050919050565b600061119560128361166c565b91507f45524332303a2063616c6c206661696c656400000000000000000000000000006000830152602082019050919050565b60006111d5600e8361166c565b91507f736c6963655f6f766572666c6f770000000000000000000000000000000000006000830152602082019050919050565b6000611215601a8361166c565b91507f41646d696e206f6e6c792063616c6c6564206279206f776e65720000000000006000830152602082019050919050565b600061125560158361166c565b91507f746f55696e743235365f6f75744f66426f756e647300000000000000000000006000830152602082019050919050565b600061129560158361166c565b91507f746f416464726573735f6f75744f66426f756e647300000000000000000000006000830152602082019050919050565b60006112d560188361166c565b91507f596f752068617665206e6f20656e6f756768204d504c475200000000000000006000830152602082019050919050565b600061131560118361166c565b91507f736c6963655f6f75744f66426f756e64730000000000000000000000000000006000830152602082019050919050565b611351816117a9565b82525050565b611360816117b3565b82525050565b60006113728284611052565b60148201915081905092915050565b600061138d82846110b1565b915081905092915050565b60006020820190506113ad6000830184611043565b92915050565b60006060820190506113c86000830186611043565b6113d56020830185611043565b6113e26040830184611348565b949350505050565b60006040820190506113ff6000830185611043565b61140c6020830184611348565b9392505050565b60006020820190506114286000830184611069565b92915050565b600060208201905081810360008301526114488184611078565b905092915050565b60006020820190508181036000830152611469816110e2565b9050919050565b6000602082019050818103600083015261148981611122565b9050919050565b600060208201905081810360008301526114a981611188565b9050919050565b600060208201905081810360008301526114c9816111c8565b9050919050565b600060208201905081810360008301526114e981611208565b9050919050565b6000602082019050818103600083015261150981611248565b9050919050565b6000602082019050818103600083015261152981611288565b9050919050565b60006020820190508181036000830152611549816112c8565b9050919050565b6000602082019050818103600083015261156981611308565b9050919050565b60006020820190506115856000830184611348565b92915050565b60006020820190506115a06000830184611357565b92915050565b60006060820190506115bb6000830186611357565b6115c86020830185611069565b81810360408301526115da8184611078565b9050949350505050565b6000604051905081810181811067ffffffffffffffff8211171561160b5761160a61189e565b5b8060405250919050565b600067ffffffffffffffff8211156116305761162f61189e565b5b601f19601f8301169050602081019050919050565b600081519050919050565b600082825260208201905092915050565b600081905092915050565b600082825260208201905092915050565b6000611688826117a9565b9150611693836117a9565b9250827fffffffffffffffffffffffffffffffffffffffffffffffffffffffffffffffff038211156116c8576116c761186f565b5b828201905092915050565b60006116de826117a9565b91506116e9836117a9565b9250817fffffffffffffffffffffffffffffffffffffffffffffffffffffffffffffffff04831182151516156117225761172161186f565b5b828202905092915050565b6000611738826117a9565b9150611743836117a9565b9250828210156117565761175561186f565b5b828203905092915050565b600061176c82611789565b9050919050565b60008115159050919050565b6000819050919050565b600073ffffffffffffffffffffffffffffffffffffffff82169050919050565b6000819050919050565b600060ff82169050919050565b82818337600083830152505050565b60005b838110156117ed5780820151818401526020810190506117d2565b838111156117fc576000848401525b50505050565b600061180d826117a9565b91507fffffffffffffffffffffffffffffffffffffffffffffffffffffffffffffffff8214156118405761183f61186f565b5b600182019050919050565b60006118568261185d565b9050919050565b6000611868826118de565b9050919050565b7f4e487b7100000000000000000000000000000000000000000000000000000000600052601160045260246000fd5b7f4e487b7100000000000000000000000000000000000000000000000000000000600052604160045260246000fd5b6000601f19601f8301169050919050565b60008160601b9050919050565b6118f481611761565b81146118ff57600080fd5b50565b61190b81611773565b811461191657600080fd5b50565b6119228161177f565b811461192d57600080fd5b50565b611939816117a9565b811461194457600080fd5b50565b611950816117b3565b811461195b57600080fd5b5056fea2646970667358221220f9e3409a6f4bf50446a2d1c2621b38ca9d0cc2739e47d329e86be36e2ce6c1d764736f6c63430008000033",
  "immutableReferences": {},
  "source": "// SPDX-License-Identifier: LGPL-3.0-only\npragma solidity ^0.8.0;\n\nimport './ERC20Safe.sol';\nimport 'solidity-bytes-utils/contracts/BytesLib.sol';\n\ninterface IBridge {\n    function deposit(uint8 destinationDomainID, bytes32 resourceID, bytes calldata data) external payable;\n}\n\ncontract PledgerBridgeETH is ERC20Safe {\n    using BytesLib for bytes;\n\n    address public bridge_address;\n\n    address public handler_address;\n\n    address public owner;\n\n    address public mplgr_address;\n\n    // Arguments for chainbridge.\n    uint8 public cb_ddid;\n    bytes32 public cb_rid;\n\n    // Store mplgr amounts by address.\n    mapping(address => uint256) public mplgr_amounts;\n\n    event WithdrawMPLGR(address recipient, uint256 amount);\n\n    event DepositMPLGR(address owner, uint256 amount);\n\n    event DepositMPLGRBridge(address owner, uint256 amount);\n\n    event DebugDepositMPLGR(bytes data);\n\n    constructor(address _bridge_address, address _handler_address, address _mplgr_address, uint8 _cb_ddid, bytes32 _cb_rid) public {\n        owner = msg.sender;\n        bridge_address = _bridge_address;\n        handler_address = _handler_address;\n        mplgr_address = _mplgr_address;\n        cb_ddid = _cb_ddid;\n        cb_rid = _cb_rid;\n    }\n\n    function admin_update_bridge(address _bridge_address, address _handler_address, uint8 _cb_ddid, bytes32 _cb_rid) public {\n        require(msg.sender == owner, \"Admin only called by owner\");\n\n        bridge_address = _bridge_address;\n        handler_address = _handler_address;\n        cb_ddid = _cb_ddid;\n        cb_rid = _cb_rid;\n    }\n\n    // Chainbridge call this function on ETH\n    function deposit_mplgr_bridge(bytes memory data) external {\n        require(msg.sender == handler_address, \"widthdraw_mplgr only called by bridge\");\n\n        emit DebugDepositMPLGR(data);\n\n        uint256 amountCount;\n        bytes memory mplgr_amounts_bytes;\n\n        amountCount = abi.decode(data, (uint256));\n        mplgr_amounts_bytes = data.slice(32, amountCount * ( 20 + 32));\n\n        address addr;\n        uint256 amount;\n\n        uint offset_begin = 0;\n        uint offset_middle = 20;\n\n        for (uint i = 0; i != amountCount; i ++) {\n            offset_begin = i * (20 + 32);\n            offset_middle = 20 + i * (20 + 32);\n\n            addr = mplgr_amounts_bytes.toAddress(offset_begin);\n\n            uint256 decimals = 1;//10 ** uint256(18);\n            amount = mplgr_amounts_bytes.toUint256(offset_middle) * decimals;\n\n            mplgr_amounts[addr] += amount;\n\n            emit DepositMPLGRBridge(addr, amount);\n        }\n    }\n\n    // User call this function on ETH to widthdraw MPLGR.\n    function widthdraw_mplgr(uint256 amount) external {\n        uint256 value = mplgr_amounts[msg.sender];\n\n        require(value >= amount, \"You have no enough MPLGR\");\n\n        mplgr_amounts[msg.sender] = value - amount;\n\n        releaseERC20(mplgr_address, msg.sender, amount);\n\n        emit WithdrawMPLGR(msg.sender, amount);\n    }\n\n    // Call bridge\n    function deposit_mplgr(address _owner, uint256 amount) external {\n        lockERC20(mplgr_address, _owner, address(this), amount);\n\n        bytes memory amount_bytes = abi.encode(amount);\n\n        bytes memory addr_bytes = abi.encodePacked(_owner);\n\n        bytes memory args_bytes = abi.encode(addr_bytes.concat(amount_bytes));\n\n        bytes memory length = abi.encode(args_bytes.length);\n\n        bytes memory args = length.concat(args_bytes);\n\n        IBridge bridge = IBridge(bridge_address);\n\n        bridge.deposit(cb_ddid, cb_rid, args);\n    }\n}\n",
  "sourcePath": "/home/u20/codespace/pledge-backend/bridge-backend/contracts/BridgeETH.sol",
  "compiler": {
    "name": "solc",
    "version": "0.8.0+commit.c7dfd78e.Emscripten.clang"
  },
  "schemaVersion": "3.3.1",
  "updatedAt": "2022-01-06T08:32:33.899Z",
  "devdoc": {
    "kind": "dev",
    "methods": {},
    "version": 1
  },
  "userdoc": {
    "kind": "user",
    "methods": {},
    "version": 1
  }
}