{
  "contractName": "PledgerBridgeETH",
  "abi": [
    {
      "inputs": [
        {
          "internalType": "address",
          "name": "_bridge_address",
          "type": "address"
        },
        {
          "internalType": "address",
          "name": "_handler_address",
          "type": "address"
        },
        {
          "internalType": "address",
          "name": "_mplgr_address",
          "type": "address"
        },
        {
          "internalType": "uint8",
          "name": "_cb_ddid",
          "type": "uint8"
        },
        {
          "internalType": "bytes32",
          "name": "_cb_rid",
          "type": "bytes32"
        }
      ],
      "stateMutability": "nonpayable",
      "type": "constructor"
    },
    {
      "anonymous": false,
      "inputs": [
        {
          "indexed": false,
          "internalType": "bytes",
          "name": "data",
          "type": "bytes"
        }
      ],
      "name": "DebugDepositMPLGR",
      "type": "event"
    },
    {
      "anonymous": false,
      "inputs": [
        {
          "indexed": false,
          "internalType": "address",
          "name": "owner",
          "type": "address"
        },
        {
          "indexed": false,
          "internalType": "uint256",
          "name": "amount",
          "type": "uint256"
        }
      ],
      "name": "DepositMPLGR",
      "type": "event"
    },
    {
      "anonymous": false,
      "inputs": [
        {
          "indexed": false,
          "internalType": "address",
          "name": "owner",
          "type": "address"
        },
        {
          "indexed": false,
          "internalType": "uint256",
          "name": "amount",
          "type": "uint256"
        }
      ],
      "name": "DepositMPLGRBridge",
      "type": "event"
    },
    {
      "anonymous": false,
      "inputs": [
        {
          "indexed": false,
          "internalType": "address",
          "name": "recipient",
          "type": "address"
        },
        {
          "indexed": false,
          "internalType": "uint256",
          "name": "amount",
          "type": "uint256"
        }
      ],
      "name": "WithdrawMPLGR",
      "type": "event"
    },
    {
      "inputs": [
        {
          "internalType": "address",
          "name": "",
          "type": "address"
        }
      ],
      "name": "balances",
      "outputs": [
        {
          "internalType": "uint256",
          "name": "",
          "type": "uint256"
        }
      ],
      "stateMutability": "view",
      "type": "function"
    },
    {
      "inputs": [],
      "name": "bridge_address",
      "outputs": [
        {
          "internalType": "address",
          "name": "",
          "type": "address"
        }
      ],
      "stateMutability": "view",
      "type": "function"
    },
    {
      "inputs": [],
      "name": "bridge_gas_fee",
      "outputs": [
        {
          "internalType": "uint256",
          "name": "",
          "type": "uint256"
        }
      ],
      "stateMutability": "view",
      "type": "function"
    },
    {
      "inputs": [],
      "name": "cb_ddid",
      "outputs": [
        {
          "internalType": "uint8",
          "name": "",
          "type": "uint8"
        }
      ],
      "stateMutability": "view",
      "type": "function"
    },
    {
      "inputs": [],
      "name": "cb_rid",
      "outputs": [
        {
          "internalType": "bytes32",
          "name": "",
          "type": "bytes32"
        }
      ],
      "stateMutability": "view",
      "type": "function"
    },
    {
      "inputs": [],
      "name": "handler_address",
      "outputs": [
        {
          "internalType": "address",
          "name": "",
          "type": "address"
        }
      ],
      "stateMutability": "view",
      "type": "function"
    },
    {
      "inputs": [],
      "name": "mplgr_address",
      "outputs": [
        {
          "internalType": "address",
          "name": "",
          "type": "address"
        }
      ],
      "stateMutability": "view",
      "type": "function"
    },
    {
      "inputs": [
        {
          "internalType": "address",
          "name": "",
          "type": "address"
        }
      ],
      "name": "mplgr_amounts",
      "outputs": [
        {
          "internalType": "uint256",
          "name": "",
          "type": "uint256"
        }
      ],
      "stateMutability": "view",
      "type": "function"
    },
    {
      "inputs": [],
      "name": "owner",
      "outputs": [
        {
          "internalType": "address",
          "name": "",
          "type": "address"
        }
      ],
      "stateMutability": "view",
      "type": "function"
    },
    {
      "inputs": [
        {
          "internalType": "address",
          "name": "_bridge_address",
          "type": "address"
        },
        {
          "internalType": "address",
          "name": "_handler_address",
          "type": "address"
        },
        {
          "internalType": "uint8",
          "name": "_cb_ddid",
          "type": "uint8"
        },
        {
          "internalType": "bytes32",
          "name": "_cb_rid",
          "type": "bytes32"
        }
      ],
      "name": "admin_update_bridge",
      "outputs": [],
      "stateMutability": "nonpayable",
      "type": "function"
    },
    {
      "inputs": [
        {
          "internalType": "uint256",
          "name": "_bridge_gas_fee",
          "type": "uint256"
        }
      ],
      "name": "set_bridge_gas_fee",
      "outputs": [],
      "stateMutability": "nonpayable",
      "type": "function"
    },
    {
      "inputs": [
        {
          "internalType": "bytes",
          "name": "data",
          "type": "bytes"
        }
      ],
      "name": "deposit_mplgr_bridge",
      "outputs": [],
      "stateMutability": "nonpayable",
      "type": "function"
    },
    {
      "inputs": [
        {
          "internalType": "uint256",
          "name": "amount",
          "type": "uint256"
        }
      ],
      "name": "widthdraw_mplgr",
      "outputs": [],
      "stateMutability": "nonpayable",
      "type": "function"
    },
    {
      "inputs": [
        {
          "internalType": "address",
          "name": "_owner",
          "type": "address"
        },
        {
          "internalType": "uint256",
          "name": "amount",
          "type": "uint256"
        }
      ],
      "name": "deposit_mplgr",
      "outputs": [],
      "stateMutability": "payable",
      "type": "function"
    }
  ],
  "bytecode": "0x60806040526611c37937e080006006553480156200001c57600080fd5b5060405162001f7e38038062001f7e8339818101604052810190620000429190620001b7565b33600460006101000a81548173ffffffffffffffffffffffffffffffffffffffff021916908373ffffffffffffffffffffffffffffffffffffffff16021790555084600160006101000a81548173ffffffffffffffffffffffffffffffffffffffff021916908373ffffffffffffffffffffffffffffffffffffffff16021790555083600260006101000a81548173ffffffffffffffffffffffffffffffffffffffff021916908373ffffffffffffffffffffffffffffffffffffffff160217905550826000806101000a81548173ffffffffffffffffffffffffffffffffffffffff021916908373ffffffffffffffffffffffffffffffffffffffff16021790555081600260146101000a81548160ff021916908360ff160217905550806003819055505050505050620002d2565b600081519050620001838162000284565b92915050565b6000815190506200019a816200029e565b92915050565b600081519050620001b181620002b8565b92915050565b600080600080600060a08688031215620001d057600080fd5b6000620001e08882890162000172565b9550506020620001f38882890162000172565b9450506040620002068882890162000172565b93505060606200021988828901620001a0565b92505060806200022c8882890162000189565b9150509295509295909350565b6000620002468262000257565b9050919050565b6000819050919050565b600073ffffffffffffffffffffffffffffffffffffffff82169050919050565b600060ff82169050919050565b6200028f8162000239565b81146200029b57600080fd5b50565b620002a9816200024d565b8114620002b557600080fd5b50565b620002c38162000277565b8114620002cf57600080fd5b50565b611c9c80620002e26000396000f3fe6080604052600436106100dc5760003560e01c806344434d941161007f578063ab7272ea11610059578063ab7272ea146102ad578063b285a9c1146102d8578063c7b4c5bf146102f4578063f8f1603e1461031d576100dc565b806344434d94146102305780635b1cf3d2146102595780638da5cb5b14610282576100dc565b80631255c189116100bb5780631255c18914610172578063176a78bb1461019d5780632068a843146101c857806327e235e3146101f3576100dc565b806216a071146100e157806302c0ab3b1461011e57806304ecb84414610147575b600080fd5b3480156100ed57600080fd5b5061010860048036038101906101039190611167565b610348565b6040516101159190611878565b60405180910390f35b34801561012a57600080fd5b5061014560048036038101906101409190611258565b610360565b005b34801561015357600080fd5b5061015c610579565b6040516101699190611893565b60405180910390f35b34801561017e57600080fd5b5061018761058c565b6040516101949190611680565b60405180910390f35b3480156101a957600080fd5b506101b26105b2565b6040516101bf9190611878565b60405180910390f35b3480156101d457600080fd5b506101dd6105b8565b6040516101ea91906116fb565b60405180910390f35b3480156101ff57600080fd5b5061021a60048036038101906102159190611167565b6105be565b6040516102279190611878565b60405180910390f35b34801561023c57600080fd5b5061025760048036038101906102529190611299565b6105d6565b005b34801561026557600080fd5b50610280600480360381019061027b9190611299565b610670565b005b34801561028e57600080fd5b506102976107ae565b6040516102a49190611680565b60405180910390f35b3480156102b957600080fd5b506102c26107d4565b6040516102cf9190611680565b60405180910390f35b6102f260048036038101906102ed91906111f3565b6107fa565b005b34801561030057600080fd5b5061031b60048036038101906103169190611190565b610a4e565b005b34801561032957600080fd5b50610332610b88565b60405161033f9190611680565b60405180910390f35b60056020528060005260406000206000915090505481565b600260009054906101000a900473ffffffffffffffffffffffffffffffffffffffff1673ffffffffffffffffffffffffffffffffffffffff163373ffffffffffffffffffffffffffffffffffffffff16146103f0576040517f08c379a00000000000000000000000000000000000000000000000000000000081526004016103e790611758565b60405180910390fd5b7f28df32dd70ae590e6391db741d3f5890440105eb3645092993a488ee1ba573de8160405161041f9190611716565b60405180910390a1600060608280602001905181019061043f91906112c2565b9150610463602060348461045391906119db565b85610bac9092919063ffffffff16565b90506000806000806014905060005b86811461056f5760348161048691906119db565b925060348161049591906119db565b60146104a19190611985565b91506104b68387610cca90919063ffffffff16565b94506104cb8287610d4090919063ffffffff16565b935083600560008773ffffffffffffffffffffffffffffffffffffffff1673ffffffffffffffffffffffffffffffffffffffff168152602001908152602001600020600082825461051c9190611985565b925050819055507f7913b5c1ff9a95dd5f46c9ffdaec78cd8b8a88cad0a011de4f70383ac4155ec785856040516105549291906116d2565b60405180910390a1808061056790611b0a565b915050610472565b5050505050505050565b600260149054906101000a900460ff1681565b600160009054906101000a900473ffffffffffffffffffffffffffffffffffffffff1681565b60065481565b60035481565b60076020528060005260406000206000915090505481565b600460009054906101000a900473ffffffffffffffffffffffffffffffffffffffff1673ffffffffffffffffffffffffffffffffffffffff163373ffffffffffffffffffffffffffffffffffffffff1614610666576040517f08c379a000000000000000000000000000000000000000000000000000000000815260040161065d90611858565b60405180910390fd5b8060068190555050565b6000600560003373ffffffffffffffffffffffffffffffffffffffff1673ffffffffffffffffffffffffffffffffffffffff168152602001908152602001600020549050818110156106f7576040517f08c379a00000000000000000000000000000000000000000000000000000000081526004016106ee90611818565b60405180910390fd5b81816107039190611a35565b600560003373ffffffffffffffffffffffffffffffffffffffff1673ffffffffffffffffffffffffffffffffffffffff1681526020019081526020016000208190555061077160008054906101000a900473ffffffffffffffffffffffffffffffffffffffff163384610da7565b7f2a6c9f7fc2e6de3721bffcd5fa4eb025b223d57905c95dbdfcadab0eb631033533836040516107a29291906116d2565b60405180910390a15050565b600460009054906101000a900473ffffffffffffffffffffffffffffffffffffffff1681565b600260009054906101000a900473ffffffffffffffffffffffffffffffffffffffff1681565b60065434101561083f576040517f08c379a000000000000000000000000000000000000000000000000000000000815260040161083690611778565b60405180910390fd5b3460076000600460009054906101000a900473ffffffffffffffffffffffffffffffffffffffff1673ffffffffffffffffffffffffffffffffffffffff1673ffffffffffffffffffffffffffffffffffffffff16815260200190815260200160002060008282546108b09190611985565b925050819055506108e360008054906101000a900473ffffffffffffffffffffffffffffffffffffffff16833084610dbd565b6000816040516020016108f69190611878565b604051602081830303815290604052905060008360405160200161091a919061164e565b604051602081830303815290604052905060006109408383610dd590919063ffffffff16565b6040516020016109509190611716565b6040516020818303038152906040529050600081516040516020016109759190611878565b6040516020818303038152906040529050600061099b8383610dd590919063ffffffff16565b90506000600160009054906101000a900473ffffffffffffffffffffffffffffffffffffffff1690508073ffffffffffffffffffffffffffffffffffffffff166305e2ca17600260149054906101000a900460ff16600354856040518463ffffffff1660e01b8152600401610a12939291906118ae565b600060405180830381600087803b158015610a2c57600080fd5b505af1158015610a40573d6000803e3d6000fd5b505050505050505050505050565b600460009054906101000a900473ffffffffffffffffffffffffffffffffffffffff1673ffffffffffffffffffffffffffffffffffffffff163373ffffffffffffffffffffffffffffffffffffffff1614610ade576040517f08c379a0000000000000000000000000000000000000000000000000000000008152600401610ad590611858565b60405180910390fd5b83600160006101000a81548173ffffffffffffffffffffffffffffffffffffffff021916908373ffffffffffffffffffffffffffffffffffffffff16021790555082600260006101000a81548173ffffffffffffffffffffffffffffffffffffffff021916908373ffffffffffffffffffffffffffffffffffffffff16021790555081600260146101000a81548160ff021916908360ff1602179055508060038190555050505050565b60008054906101000a900473ffffffffffffffffffffffffffffffffffffffff1681565b606081601f83610bbc9190611985565b1015610bfd576040517f08c379a0000000000000000000000000000000000000000000000000000000008152600401610bf4906117b8565b60405180910390fd5b8183610c099190611985565b84511015610c4c576040517f08c379a0000000000000000000000000000000000000000000000000000000008152600401610c4390611838565b60405180910390fd5b6060821560008114610c6d5760405191506000825260208201604052610cbe565b6040519150601f8416801560200281840101858101878315602002848b0101015b81831015610cab5780518352602083019250602081019050610c8e565b50868552601f19601f8301166040525050505b50809150509392505050565b6000601482610cd99190611985565b83511015610d1c576040517f08c379a0000000000000000000000000000000000000000000000000000000008152600401610d13906117f8565b60405180910390fd5b60006c01000000000000000000000000836020860101510490508091505092915050565b6000602082610d4f9190611985565b83511015610d92576040517f08c379a0000000000000000000000000000000000000000000000000000000008152600401610d89906117d8565b60405180910390fd5b60008260208501015190508091505092915050565b6000839050610db7818484610e5f565b50505050565b6000849050610dce81858585610ee5565b5050505050565b6060806040519050835180825260208201818101602087015b81831015610e0b5780518352602083019250602081019050610dee565b50855192508351830184528091508282019050602086015b81831015610e405780518352602083019250602081019050610e23565b50601f19601f8851850115830101166040525050508091505092915050565b610ee08363a9059cbb60e01b8484604051602401610e7e9291906116d2565b604051602081830303815290604052907bffffffffffffffffffffffffffffffffffffffffffffffffffffffff19166020820180517bffffffffffffffffffffffffffffffffffffffffffffffffffffffff8381831617835250505050610f6e565b505050565b610f68846323b872dd60e01b858585604051602401610f069392919061169b565b604051602081830303815290604052907bffffffffffffffffffffffffffffffffffffffffffffffffffffffff19166020820180517bffffffffffffffffffffffffffffffffffffffffffffffffffffffff8381831617835250505050610f6e565b50505050565b6000808373ffffffffffffffffffffffffffffffffffffffff1683604051610f969190611669565b6000604051808303816000865af19150503d8060008114610fd3576040519150601f19603f3d011682016040523d82523d6000602084013e610fd8565b606091505b50915091508161101d576040517f08c379a000000000000000000000000000000000000000000000000000000000815260040161101490611798565b60405180910390fd5b60008151111561107b578080602001905181019061103b919061122f565b61107a576040517f08c379a000000000000000000000000000000000000000000000000000000000815260040161107190611738565b60405180910390fd5b5b50505050565b600061109461108f8461191d565b6118ec565b9050828152602081018484840111156110ac57600080fd5b6110b7848285611ac8565b509392505050565b6000813590506110ce81611bf3565b92915050565b6000815190506110e381611c0a565b92915050565b6000813590506110f881611c21565b92915050565b600082601f83011261110f57600080fd5b813561111f848260208601611081565b91505092915050565b60008135905061113781611c38565b92915050565b60008151905061114c81611c38565b92915050565b60008135905061116181611c4f565b92915050565b60006020828403121561117957600080fd5b6000611187848285016110bf565b91505092915050565b600080600080608085870312156111a657600080fd5b60006111b4878288016110bf565b94505060206111c5878288016110bf565b93505060406111d687828801611152565b92505060606111e7878288016110e9565b91505092959194509250565b6000806040838503121561120657600080fd5b6000611214858286016110bf565b925050602061122585828601611128565b9150509250929050565b60006020828403121561124157600080fd5b600061124f848285016110d4565b91505092915050565b60006020828403121561126a57600080fd5b600082013567ffffffffffffffff81111561128457600080fd5b611290848285016110fe565b91505092915050565b6000602082840312156112ab57600080fd5b60006112b984828501611128565b91505092915050565b6000602082840312156112d457600080fd5b60006112e28482850161113d565b91505092915050565b6112f481611a69565b82525050565b61130b61130682611a69565b611b53565b82525050565b61131a81611a87565b82525050565b600061132b8261194d565b6113358185611958565b9350611345818560208601611ad7565b61134e81611bd5565b840191505092915050565b60006113648261194d565b61136e8185611969565b935061137e818560208601611ad7565b80840191505092915050565b6000611397602083611974565b91507f45524332303a206f7065726174696f6e20646964206e6f7420737563636565646000830152602082019050919050565b60006113d7602583611974565b91507f7769647468647261775f6d706c6772206f6e6c792063616c6c6564206279206260008301527f72696467650000000000000000000000000000000000000000000000000000006020830152604082019050919050565b600061143d601e83611974565b91507f427269646765206761732066656520697320696e73756666696369656e7400006000830152602082019050919050565b600061147d601283611974565b91507f45524332303a2063616c6c206661696c656400000000000000000000000000006000830152602082019050919050565b60006114bd600e83611974565b91507f736c6963655f6f766572666c6f770000000000000000000000000000000000006000830152602082019050919050565b60006114fd601583611974565b91507f746f55696e743235365f6f75744f66426f756e647300000000000000000000006000830152602082019050919050565b600061153d601583611974565b91507f746f416464726573735f6f75744f66426f756e647300000000000000000000006000830152602082019050919050565b600061157d601883611974565b91507f596f752068617665206e6f20656e6f756768204d504c475200000000000000006000830152602082019050919050565b60006115bd601183611974565b91507f736c6963655f6f75744f66426f756e64730000000000000000000000000000006000830152602082019050919050565b60006115fd601483611974565b91507f4f6e6c792063616c6c6564206279206f776e65720000000000000000000000006000830152602082019050919050565b61163981611ab1565b82525050565b61164881611abb565b82525050565b600061165a82846112fa565b60148201915081905092915050565b60006116758284611359565b915081905092915050565b600060208201905061169560008301846112eb565b92915050565b60006060820190506116b060008301866112eb565b6116bd60208301856112eb565b6116ca6040830184611630565b949350505050565b60006040820190506116e760008301856112eb565b6116f46020830184611630565b9392505050565b60006020820190506117106000830184611311565b92915050565b600060208201905081810360008301526117308184611320565b905092915050565b600060208201905081810360008301526117518161138a565b9050919050565b60006020820190508181036000830152611771816113ca565b9050919050565b6000602082019050818103600083015261179181611430565b9050919050565b600060208201905081810360008301526117b181611470565b9050919050565b600060208201905081810360008301526117d1816114b0565b9050919050565b600060208201905081810360008301526117f1816114f0565b9050919050565b6000602082019050818103600083015261181181611530565b9050919050565b6000602082019050818103600083015261183181611570565b9050919050565b60006020820190508181036000830152611851816115b0565b9050919050565b60006020820190508181036000830152611871816115f0565b9050919050565b600060208201905061188d6000830184611630565b92915050565b60006020820190506118a8600083018461163f565b92915050565b60006060820190506118c3600083018661163f565b6118d06020830185611311565b81810360408301526118e28184611320565b9050949350505050565b6000604051905081810181811067ffffffffffffffff8211171561191357611912611ba6565b5b8060405250919050565b600067ffffffffffffffff82111561193857611937611ba6565b5b601f19601f8301169050602081019050919050565b600081519050919050565b600082825260208201905092915050565b600081905092915050565b600082825260208201905092915050565b600061199082611ab1565b915061199b83611ab1565b9250827fffffffffffffffffffffffffffffffffffffffffffffffffffffffffffffffff038211156119d0576119cf611b77565b5b828201905092915050565b60006119e682611ab1565b91506119f183611ab1565b9250817fffffffffffffffffffffffffffffffffffffffffffffffffffffffffffffffff0483118215151615611a2a57611a29611b77565b5b828202905092915050565b6000611a4082611ab1565b9150611a4b83611ab1565b925082821015611a5e57611a5d611b77565b5b828203905092915050565b6000611a7482611a91565b9050919050565b60008115159050919050565b6000819050919050565b600073ffffffffffffffffffffffffffffffffffffffff82169050919050565b6000819050919050565b600060ff82169050919050565b82818337600083830152505050565b60005b83811015611af5578082015181840152602081019050611ada565b83811115611b04576000848401525b50505050565b6000611b1582611ab1565b91507fffffffffffffffffffffffffffffffffffffffffffffffffffffffffffffffff821415611b4857611b47611b77565b5b600182019050919050565b6000611b5e82611b65565b9050919050565b6000611b7082611be6565b9050919050565b7f4e487b7100000000000000000000000000000000000000000000000000000000600052601160045260246000fd5b7f4e487b7100000000000000000000000000000000000000000000000000000000600052604160045260246000fd5b6000601f19601f8301169050919050565b60008160601b9050919050565b611bfc81611a69565b8114611c0757600080fd5b50565b611c1381611a7b565b8114611c1e57600080fd5b50565b611c2a81611a87565b8114611c3557600080fd5b50565b611c4181611ab1565b8114611c4c57600080fd5b50565b611c5881611abb565b8114611c6357600080fd5b5056fea2646970667358221220bbc913866eff06f6464e2237e9e8a266f9759ce29a4c4731d6d16d0efa17003164736f6c63430008000033",
  "immutableReferences": {},
  "source": "// SPDX-License-Identifier: LGPL-3.0-only\npragma solidity ^0.8.0;\n\nimport './ERC20Safe.sol';\nimport 'solidity-bytes-utils/contracts/BytesLib.sol';\n\ninterface IBridge {\n    function deposit(uint8 destinationDomainID, bytes32 resourceID, bytes calldata data) external payable;\n}\n\ncontract PledgerBridgeETH is ERC20Safe {\n    using BytesLib for bytes;\n\n    // Bridge\n    address public mplgr_address;\n    address public bridge_address;\n    address public handler_address;\n    uint8 public cb_ddid;\n    bytes32 public cb_rid;\n\n    address public owner;\n\n    mapping(address => uint256) public mplgr_amounts;\n\n    // []\n    // fee\n    // 0.005 ETH\n    uint256 public bridge_gas_fee = 0.005 * 10 ** 18;\n    // bridge gas fee\n    mapping(address => uint256) public balances;\n\n    event WithdrawMPLGR(address recipient, uint256 amount);\n    event DepositMPLGR(address owner, uint256 amount);\n    event DepositMPLGRBridge(address owner, uint256 amount);\n    event DebugDepositMPLGR(bytes data);\n\n    constructor(address _bridge_address, address _handler_address, address _mplgr_address, uint8 _cb_ddid, bytes32 _cb_rid) {\n        owner = msg.sender;\n        bridge_address = _bridge_address;\n        handler_address = _handler_address;\n        mplgr_address = _mplgr_address;\n        cb_ddid = _cb_ddid;\n        cb_rid = _cb_rid;\n    }\n\n    // : Bridge\n    function admin_update_bridge(address _bridge_address, address _handler_address, uint8 _cb_ddid, bytes32 _cb_rid) public {\n        require(msg.sender == owner, \"Only called by owner\");\n\n        bridge_address = _bridge_address;\n        handler_address = _handler_address;\n        cb_ddid = _cb_ddid;\n        cb_rid = _cb_rid;\n    }\n\n    // gas fee\n    function set_bridge_gas_fee(uint256 _bridge_gas_fee) public {\n        require(msg.sender == owner, \"Only called by owner\");\n\n        bridge_gas_fee = _bridge_gas_fee;    \n    }\n\n    // Chainbridge call this function on ETH\n    function deposit_mplgr_bridge(bytes memory data) external {\n        require(msg.sender == handler_address, \"widthdraw_mplgr only called by bridge\");\n\n        emit DebugDepositMPLGR(data);\n\n        uint256 amountCount;\n        bytes memory mplgr_amounts_bytes;\n\n        amountCount = abi.decode(data, (uint256));\n        mplgr_amounts_bytes = data.slice(32, amountCount * ( 20 + 32));\n\n        address addr;\n        uint256 amount;\n\n        uint offset_begin = 0;\n        uint offset_middle = 20;\n\n        for (uint i = 0; i != amountCount; i ++) {\n            offset_begin = i * (20 + 32);\n            offset_middle = 20 + i * (20 + 32);\n\n            addr = mplgr_amounts_bytes.toAddress(offset_begin);\n\n            amount = mplgr_amounts_bytes.toUint256(offset_middle);\n\n            mplgr_amounts[addr] += amount;\n\n            emit DepositMPLGRBridge(addr, amount);\n        }\n    }\n\n    // User call this function on ETH to widthdraw MPLGR.\n    function widthdraw_mplgr(uint256 amount) external {\n        uint256 value = mplgr_amounts[msg.sender];\n\n        require(value >= amount, \"You have no enough MPLGR\");\n\n        mplgr_amounts[msg.sender] = value - amount;\n\n        releaseERC20(mplgr_address, msg.sender, amount);\n\n        emit WithdrawMPLGR(msg.sender, amount);\n    }\n\n    // Call bridge\n    function deposit_mplgr(address _owner, uint256 amount) external payable {\n        require(msg.value >= bridge_gas_fee, \"Bridge gas fee is insufficient\");\n        balances[owner] += msg.value;\n\n        lockERC20(mplgr_address, _owner, address(this), amount);\n\n        bytes memory amount_bytes = abi.encode(amount);\n\n        bytes memory addr_bytes = abi.encodePacked(_owner);\n\n        bytes memory args_bytes = abi.encode(addr_bytes.concat(amount_bytes));\n\n        bytes memory length = abi.encode(args_bytes.length);\n\n        bytes memory args = length.concat(args_bytes);\n\n        IBridge bridge = IBridge(bridge_address);\n\n        bridge.deposit(cb_ddid, cb_rid, args);\n    }\n}\n",
  "sourcePath": "/Users/cisco/Desktop/workspace/node/bridge-backend/contracts/BridgeETH.sol",
  "compiler": {
    "name": "solc",
    "version": "0.8.0+commit.c7dfd78e.Emscripten.clang"
  },
  "schemaVersion": "3.3.1",
  "updatedAt": "2022-03-10T15:51:40.932Z",
  "devdoc": {
    "kind": "dev",
    "methods": {},
    "version": 1
  },
  "userdoc": {
    "kind": "user",
    "methods": {},
    "version": 1
  }
}