{
  "contractName": "PledgerBridgeBSCTest",
  "abi": [
    {
      "inputs": [
        {
          "internalType": "address",
          "name": "_plgr_address",
          "type": "address"
        },
        {
          "internalType": "address",
          "name": "_bridge_address",
          "type": "address"
        },
        {
          "internalType": "address",
          "name": "_handler_address",
          "type": "address"
        },
        {
          "internalType": "uint8",
          "name": "_cb_ddid",
          "type": "uint8"
        },
        {
          "internalType": "bytes32",
          "name": "_cb_rid",
          "type": "bytes32"
        }
      ],
      "stateMutability": "nonpayable",
      "type": "constructor"
    },
    {
      "anonymous": false,
      "inputs": [
        {
          "indexed": false,
          "internalType": "bytes32",
          "name": "txid",
          "type": "bytes32"
        },
        {
          "indexed": false,
          "internalType": "address",
          "name": "owner",
          "type": "address"
        },
        {
          "indexed": false,
          "internalType": "uint256",
          "name": "amount",
          "type": "uint256"
        },
        {
          "indexed": false,
          "internalType": "uint256",
          "name": "time",
          "type": "uint256"
        }
      ],
      "name": "DepositPLGR",
      "type": "event"
    },
    {
      "anonymous": false,
      "inputs": [
        {
          "indexed": false,
          "internalType": "address",
          "name": "owner",
          "type": "address"
        },
        {
          "indexed": false,
          "internalType": "uint256",
          "name": "amount",
          "type": "uint256"
        }
      ],
      "name": "WithdrawPLGR",
      "type": "event"
    },
    {
      "inputs": [
        {
          "internalType": "address",
          "name": "",
          "type": "address"
        }
      ],
      "name": "balances",
      "outputs": [
        {
          "internalType": "uint256",
          "name": "",
          "type": "uint256"
        }
      ],
      "stateMutability": "view",
      "type": "function"
    },
    {
      "inputs": [],
      "name": "bridge_address",
      "outputs": [
        {
          "internalType": "address",
          "name": "",
          "type": "address"
        }
      ],
      "stateMutability": "view",
      "type": "function"
    },
    {
      "inputs": [],
      "name": "bridge_gas_fee",
      "outputs": [
        {
          "internalType": "uint256",
          "name": "",
          "type": "uint256"
        }
      ],
      "stateMutability": "view",
      "type": "function"
    },
    {
      "inputs": [
        {
          "internalType": "address",
          "name": "",
          "type": "address"
        }
      ],
      "name": "can_release",
      "outputs": [
        {
          "internalType": "address",
          "name": "owner",
          "type": "address"
        },
        {
          "internalType": "uint256",
          "name": "amount",
          "type": "uint256"
        }
      ],
      "stateMutability": "view",
      "type": "function"
    },
    {
      "inputs": [],
      "name": "cb_ddid",
      "outputs": [
        {
          "internalType": "uint8",
          "name": "",
          "type": "uint8"
        }
      ],
      "stateMutability": "view",
      "type": "function"
    },
    {
      "inputs": [],
      "name": "cb_rid",
      "outputs": [
        {
          "internalType": "bytes32",
          "name": "",
          "type": "bytes32"
        }
      ],
      "stateMutability": "view",
      "type": "function"
    },
    {
      "inputs": [],
      "name": "factor",
      "outputs": [
        {
          "internalType": "uint256",
          "name": "",
          "type": "uint256"
        }
      ],
      "stateMutability": "view",
      "type": "function"
    },
    {
      "inputs": [],
      "name": "handler_address",
      "outputs": [
        {
          "internalType": "address",
          "name": "",
          "type": "address"
        }
      ],
      "stateMutability": "view",
      "type": "function"
    },
    {
      "inputs": [
        {
          "internalType": "uint256",
          "name": "",
          "type": "uint256"
        }
      ],
      "name": "locked_infos",
      "outputs": [
        {
          "internalType": "address",
          "name": "owner",
          "type": "address"
        },
        {
          "internalType": "uint256",
          "name": "amount",
          "type": "uint256"
        }
      ],
      "stateMutability": "view",
      "type": "function"
    },
    {
      "inputs": [
        {
          "internalType": "address",
          "name": "",
          "type": "address"
        }
      ],
      "name": "locked_plgr_tx",
      "outputs": [
        {
          "internalType": "address",
          "name": "owner",
          "type": "address"
        },
        {
          "internalType": "uint256",
          "name": "amount",
          "type": "uint256"
        }
      ],
      "stateMutability": "view",
      "type": "function"
    },
    {
      "inputs": [],
      "name": "owner",
      "outputs": [
        {
          "internalType": "address",
          "name": "",
          "type": "address"
        }
      ],
      "stateMutability": "view",
      "type": "function"
    },
    {
      "inputs": [],
      "name": "plgr_address",
      "outputs": [
        {
          "internalType": "address",
          "name": "",
          "type": "address"
        }
      ],
      "stateMutability": "view",
      "type": "function"
    },
    {
      "inputs": [
        {
          "internalType": "address",
          "name": "",
          "type": "address"
        }
      ],
      "name": "plgr_amounts",
      "outputs": [
        {
          "internalType": "uint256",
          "name": "",
          "type": "uint256"
        }
      ],
      "stateMutability": "view",
      "type": "function"
    },
    {
      "inputs": [],
      "name": "total_mplgr_release",
      "outputs": [
        {
          "internalType": "uint256",
          "name": "",
          "type": "uint256"
        }
      ],
      "stateMutability": "view",
      "type": "function"
    },
    {
      "inputs": [],
      "name": "total_plgr_locked",
      "outputs": [
        {
          "internalType": "uint256",
          "name": "",
          "type": "uint256"
        }
      ],
      "stateMutability": "view",
      "type": "function"
    },
    {
      "inputs": [
        {
          "internalType": "address",
          "name": "_bridge_address",
          "type": "address"
        },
        {
          "internalType": "address",
          "name": "_handler_address",
          "type": "address"
        },
        {
          "internalType": "uint8",
          "name": "_cb_ddid",
          "type": "uint8"
        },
        {
          "internalType": "bytes32",
          "name": "_cb_rid",
          "type": "bytes32"
        }
      ],
      "name": "admin_update_bridge",
      "outputs": [],
      "stateMutability": "nonpayable",
      "type": "function"
    },
    {
      "inputs": [
        {
          "internalType": "uint256",
          "name": "_bridge_gas_fee",
          "type": "uint256"
        }
      ],
      "name": "set_bridge_gas_fee",
      "outputs": [],
      "stateMutability": "nonpayable",
      "type": "function"
    },
    {
      "inputs": [
        {
          "internalType": "uint256",
          "name": "_total_mplgr_release",
          "type": "uint256"
        }
      ],
      "name": "set_total_release",
      "outputs": [],
      "stateMutability": "nonpayable",
      "type": "function"
    },
    {
      "inputs": [
        {
          "internalType": "address",
          "name": "_owner",
          "type": "address"
        },
        {
          "internalType": "uint256",
          "name": "amount",
          "type": "uint256"
        }
      ],
      "name": "deposit_plgr",
      "outputs": [],
      "stateMutability": "payable",
      "type": "function"
    },
    {
      "inputs": [],
      "name": "get_deposit_plgr_amount",
      "outputs": [
        {
          "internalType": "uint256",
          "name": "",
          "type": "uint256"
        }
      ],
      "stateMutability": "view",
      "type": "function"
    },
    {
      "inputs": [
        {
          "internalType": "uint256",
          "name": "amount",
          "type": "uint256"
        }
      ],
      "name": "widthdraw_plgr",
      "outputs": [],
      "stateMutability": "nonpayable",
      "type": "function"
    },
    {
      "inputs": [
        {
          "internalType": "bytes",
          "name": "data",
          "type": "bytes"
        }
      ],
      "name": "deposit_mplgr_bridge",
      "outputs": [],
      "stateMutability": "nonpayable",
      "type": "function"
    },
    {
      "inputs": [],
      "name": "is_release_all_locked_plgr",
      "outputs": [
        {
          "internalType": "bool",
          "name": "",
          "type": "bool"
        }
      ],
      "stateMutability": "view",
      "type": "function"
    },
    {
      "inputs": [],
      "name": "execute_upkeep",
      "outputs": [],
      "stateMutability": "nonpayable",
      "type": "function"
    }
  ],
  "bytecode": "0x6080604052670de0b6b3a764000060055566b1a2bc2ec5000060065560036008553480156200002d57600080fd5b5060405162002dc138038062002dc18339818101604052810190620000539190620001c8565b336000806101000a81548173ffffffffffffffffffffffffffffffffffffffff021916908373ffffffffffffffffffffffffffffffffffffffff16021790555084600160006101000a81548173ffffffffffffffffffffffffffffffffffffffff021916908373ffffffffffffffffffffffffffffffffffffffff16021790555083600260006101000a81548173ffffffffffffffffffffffffffffffffffffffff021916908373ffffffffffffffffffffffffffffffffffffffff16021790555082600360006101000a81548173ffffffffffffffffffffffffffffffffffffffff021916908373ffffffffffffffffffffffffffffffffffffffff16021790555081600360146101000a81548160ff021916908360ff160217905550806004819055505050505050620002e3565b600081519050620001948162000295565b92915050565b600081519050620001ab81620002af565b92915050565b600081519050620001c281620002c9565b92915050565b600080600080600060a08688031215620001e157600080fd5b6000620001f18882890162000183565b9550506020620002048882890162000183565b9450506040620002178882890162000183565b93505060606200022a88828901620001b1565b92505060806200023d888289016200019a565b9150509295509295909350565b6000620002578262000268565b9050919050565b6000819050919050565b600073ffffffffffffffffffffffffffffffffffffffff82169050919050565b600060ff82169050919050565b620002a0816200024a565b8114620002ac57600080fd5b50565b620002ba816200025e565b8114620002c657600080fd5b50565b620002d48162000288565b8114620002e057600080fd5b50565b612ace80620002f36000396000f3fe60806040526004361061014b5760003560e01c80636da538ec116100b6578063b6990f8a1161006f578063b6990f8a14610450578063b9e778731461047b578063bb837979146104b9578063c7b4c5bf146104e4578063c970bdf41461050d578063dfad049e1461054b5761014b565b80636da538ec146103515780637742cffa1461038f57806383080704146103ba5780638da5cb5b146103e3578063ab7272ea1461040e578063add8bb96146104395761014b565b80632e7e0c29116101085780632e7e0c29146102625780633219c4df1461027e57806344434d94146102a957806354f703f8146102d2578063585fb29d146102fd5780635ca65060146103285761014b565b806302c0ab3b1461015057806304ecb844146101795780631255c189146101a4578063176a78bb146101cf5780632068a843146101fa57806327e235e314610225575b600080fd5b34801561015c57600080fd5b5061017760048036038101906101729190612063565b610588565b005b34801561018557600080fd5b5061018e6106b0565b60405161019b9190612665565b60405180910390f35b3480156101b057600080fd5b506101b96106c3565b6040516101c69190612457565b60405180910390f35b3480156101db57600080fd5b506101e46106e9565b6040516101f1919061264a565b60405180910390f35b34801561020657600080fd5b5061020f6106ef565b60405161021c91906124ed565b60405180910390f35b34801561023157600080fd5b5061024c60048036038101906102479190611f72565b6106f5565b604051610259919061264a565b60405180910390f35b61027c60048036038101906102779190611ffe565b61070d565b005b34801561028a57600080fd5b50610293610b03565b6040516102a09190612457565b60405180910390f35b3480156102b557600080fd5b506102d060048036038101906102cb91906120a4565b610b29565b005b3480156102de57600080fd5b506102e7610bc1565b6040516102f4919061264a565b60405180910390f35b34801561030957600080fd5b50610312610bc7565b60405161031f919061264a565b60405180910390f35b34801561033457600080fd5b5061034f600480360381019061034a91906120a4565b610bcd565b005b34801561035d57600080fd5b5061037860048036038101906103739190611f72565b610ca9565b6040516103869291906124a9565b60405180910390f35b34801561039b57600080fd5b506103a4610ced565b6040516103b191906124d2565b60405180910390f35b3480156103c657600080fd5b506103e160048036038101906103dc91906120a4565b610d19565b005b3480156103ef57600080fd5b506103f8610e60565b6040516104059190612457565b60405180910390f35b34801561041a57600080fd5b50610423610e84565b6040516104309190612457565b60405180910390f35b34801561044557600080fd5b5061044e610eaa565b005b34801561045c57600080fd5b50610465611778565b604051610472919061264a565b60405180910390f35b34801561048757600080fd5b506104a2600480360381019061049d9190611f72565b6118fc565b6040516104b09291906124a9565b60405180910390f35b3480156104c557600080fd5b506104ce611940565b6040516104db919061264a565b60405180910390f35b3480156104f057600080fd5b5061050b60048036038101906105069190611f9b565b611946565b005b34801561051957600080fd5b50610534600480360381019061052f91906120a4565b611a7e565b6040516105429291906124a9565b60405180910390f35b34801561055757600080fd5b50610572600480360381019061056d9190611f72565b611ad2565b60405161057f919061264a565b60405180910390f35b600360009054906101000a900473ffffffffffffffffffffffffffffffffffffffff1673ffffffffffffffffffffffffffffffffffffffff163373ffffffffffffffffffffffffffffffffffffffff1614610618576040517f08c379a000000000000000000000000000000000000000000000000000000000815260040161060f9061258a565b60405180910390fd5b600061062e600083611aea90919063ffffffff16565b90506000610646601484611b6090919063ffffffff16565b90506008548161065691906127de565b600b60008473ffffffffffffffffffffffffffffffffffffffff1673ffffffffffffffffffffffffffffffffffffffff16815260200190815260200160002060008282546106a49190612757565b92505081905550505050565b600360149054906101000a900460ff1681565b600260009054906101000a900473ffffffffffffffffffffffffffffffffffffffff1681565b60065481565b60045481565b60076020528060005260406000206000915090505481565b600654341015610752576040517f08c379a00000000000000000000000000000000000000000000000000000000081526004016107499061254a565b60405180910390fd5b34600760008060009054906101000a900473ffffffffffffffffffffffffffffffffffffffff1673ffffffffffffffffffffffffffffffffffffffff1673ffffffffffffffffffffffffffffffffffffffff16815260200190815260200160002060008282546107c29190612757565b925050819055508173ffffffffffffffffffffffffffffffffffffffff16600c60008473ffffffffffffffffffffffffffffffffffffffff1673ffffffffffffffffffffffffffffffffffffffff16815260200190815260200160002060000160009054906101000a900473ffffffffffffffffffffffffffffffffffffffff1673ffffffffffffffffffffffffffffffffffffffff1614156108fe576000600c60008473ffffffffffffffffffffffffffffffffffffffff1673ffffffffffffffffffffffffffffffffffffffff16815260200190815260200160002060010154905081816108b29190612757565b600c60008573ffffffffffffffffffffffffffffffffffffffff1673ffffffffffffffffffffffffffffffffffffffff16815260200190815260200160002060010181905550506109c7565b81600c60008473ffffffffffffffffffffffffffffffffffffffff1673ffffffffffffffffffffffffffffffffffffffff16815260200190815260200160002060000160006101000a81548173ffffffffffffffffffffffffffffffffffffffff021916908373ffffffffffffffffffffffffffffffffffffffff16021790555080600c60008473ffffffffffffffffffffffffffffffffffffffff1673ffffffffffffffffffffffffffffffffffffffff168152602001908152602001600020600101819055505b6109f5600160009054906101000a900473ffffffffffffffffffffffffffffffffffffffff16833084611bc7565b600060405180604001604052808473ffffffffffffffffffffffffffffffffffffffff168152602001600c60008673ffffffffffffffffffffffffffffffffffffffff1673ffffffffffffffffffffffffffffffffffffffff168152602001908152602001600020600101548152509050600a81908060018154018082558091505060019003906000526020600020906002020160009091909190915060008201518160000160006101000a81548173ffffffffffffffffffffffffffffffffffffffff021916908373ffffffffffffffffffffffffffffffffffffffff1602179055506020820151816001015550508160096000828254610af79190612757565b92505081905550505050565b600160009054906101000a900473ffffffffffffffffffffffffffffffffffffffff1681565b60008054906101000a900473ffffffffffffffffffffffffffffffffffffffff1673ffffffffffffffffffffffffffffffffffffffff163373ffffffffffffffffffffffffffffffffffffffff1614610bb7576040517f08c379a0000000000000000000000000000000000000000000000000000000008152600401610bae9061262a565b60405180910390fd5b8060068190555050565b60085481565b60055481565b60008054906101000a900473ffffffffffffffffffffffffffffffffffffffff1673ffffffffffffffffffffffffffffffffffffffff163373ffffffffffffffffffffffffffffffffffffffff1614610c5b576040517f08c379a0000000000000000000000000000000000000000000000000000000008152600401610c529061262a565b60405180910390fd5b6001811015610c9f576040517f08c379a0000000000000000000000000000000000000000000000000000000008152600401610c96906125aa565b60405180910390fd5b8060058190555050565b600c6020528060005260406000206000915090508060000160009054906101000a900473ffffffffffffffffffffffffffffffffffffffff16908060010154905082565b60008060019050600854600554610d0491906127de565b6009541115610d1257600090505b8091505090565b6000600b60003373ffffffffffffffffffffffffffffffffffffffff1673ffffffffffffffffffffffffffffffffffffffff16815260200190815260200160002054905081811015610da0576040517f08c379a0000000000000000000000000000000000000000000000000000000008152600401610d97906125ea565b60405180910390fd5b81600b60003373ffffffffffffffffffffffffffffffffffffffff1673ffffffffffffffffffffffffffffffffffffffff1681526020019081526020016000206000828254610def9190612838565b92505081905550610e23600160009054906101000a900473ffffffffffffffffffffffffffffffffffffffff163384611bdf565b7f67081655db492a9224c5bc8d7d3ccadb8bb37d603b8697c1cb2081a6825138543383604051610e549291906124a9565b60405180910390a15050565b60008054906101000a900473ffffffffffffffffffffffffffffffffffffffff1681565b600360009054906101000a900473ffffffffffffffffffffffffffffffffffffffff1681565b60008054906101000a900473ffffffffffffffffffffffffffffffffffffffff1673ffffffffffffffffffffffffffffffffffffffff163373ffffffffffffffffffffffffffffffffffffffff1614610f38576040517f08c379a0000000000000000000000000000000000000000000000000000000008152600401610f2f9061262a565b60405180910390fd5b60016005541015610f7e576040517f08c379a0000000000000000000000000000000000000000000000000000000008152600401610f75906125aa565b60405180910390fd5b6000610f88610ced565b90506000600a80549050905060005b81811015611233576000600a8281548110610fdb577f4e487b7100000000000000000000000000000000000000000000000000000000600052603260045260246000fd5b906000526020600020906002020160000160009054906101000a900473ffffffffffffffffffffffffffffffffffffffff1690506000600c60008373ffffffffffffffffffffffffffffffffffffffff1673ffffffffffffffffffffffffffffffffffffffff16815260200190815260200160002060010154905060008561108a576008546005546009548461107191906127ad565b61107b91906127de565b61108591906127de565b61108c565b815b905060006008548261109e91906127ad565b9050600c60008573ffffffffffffffffffffffffffffffffffffffff1673ffffffffffffffffffffffffffffffffffffffff16815260200190815260200160002060000160009054906101000a900473ffffffffffffffffffffffffffffffffffffffff16600d60008673ffffffffffffffffffffffffffffffffffffffff1673ffffffffffffffffffffffffffffffffffffffff16815260200190815260200160002060000160006101000a81548173ffffffffffffffffffffffffffffffffffffffff021916908373ffffffffffffffffffffffffffffffffffffffff16021790555080600d60008673ffffffffffffffffffffffffffffffffffffffff1673ffffffffffffffffffffffffffffffffffffffff1681526020019081526020016000206001018190555081836111d69190612838565b600c60008673ffffffffffffffffffffffffffffffffffffffff1673ffffffffffffffffffffffffffffffffffffffff1681526020019081526020016000206001018190555050505050808061122b9061290d565b915050610f97565b508161125b5760085460055461124991906127de565b6009546112569190612838565b61125e565b60005b600981905550600081604051602001611277919061264a565b604051602081830303815290604052905060005b8281101561142f576000600a82815481106112cf577f4e487b7100000000000000000000000000000000000000000000000000000000600052603260045260246000fd5b906000526020600020906002020160000160009054906101000a900473ffffffffffffffffffffffffffffffffffffffff1690506000600d60008373ffffffffffffffffffffffffffffffffffffffff1673ffffffffffffffffffffffffffffffffffffffff16815260200190815260200160002060000160009054906101000a900473ffffffffffffffffffffffffffffffffffffffff166040516020016113789190612425565b604051602081830303815290604052905061139c8185611bf590919063ffffffff16565b93506000600d60008473ffffffffffffffffffffffffffffffffffffffff1673ffffffffffffffffffffffffffffffffffffffff168152602001908152602001600020600101546040516020016113f3919061264a565b60405160208183030381529060405290506114178186611bf590919063ffffffff16565b945050505080806114279061290d565b91505061128b565b5060005b82811015611667576000600a8281548110611477577f4e487b7100000000000000000000000000000000000000000000000000000000600052603260045260246000fd5b906000526020600020906002020160000160009054906101000a900473ffffffffffffffffffffffffffffffffffffffff169050600d60008273ffffffffffffffffffffffffffffffffffffffff1673ffffffffffffffffffffffffffffffffffffffff168152602001908152602001600020600080820160006101000a81549073ffffffffffffffffffffffffffffffffffffffff0219169055600182016000905550506000600c60008373ffffffffffffffffffffffffffffffffffffffff1673ffffffffffffffffffffffffffffffffffffffff16815260200190815260200160002060010154141561165357600c60008273ffffffffffffffffffffffffffffffffffffffff1673ffffffffffffffffffffffffffffffffffffffff168152602001908152602001600020600080820160006101000a81549073ffffffffffffffffffffffffffffffffffffffff021916905560018201600090555050600a8281548110611612577f4e487b7100000000000000000000000000000000000000000000000000000000600052603260045260246000fd5b9060005260206000209060020201600080820160006101000a81549073ffffffffffffffffffffffffffffffffffffffff0219169055600182016000905550505b50808061165f9061290d565b915050611433565b5060008160405160200161167b9190612508565b6040516020818303038152906040529050600081516040516020016116a0919061264a565b604051602081830303815290604052905060006116c68383611bf590919063ffffffff16565b90506000600260009054906101000a900473ffffffffffffffffffffffffffffffffffffffff1690508073ffffffffffffffffffffffffffffffffffffffff166305e2ca17600360149054906101000a900460ff16600454856040518463ffffffff1660e01b815260040161173d93929190612680565b600060405180830381600087803b15801561175757600080fd5b505af115801561176b573d6000803e3d6000fd5b5050505050505050505050565b60008060009054906101000a900473ffffffffffffffffffffffffffffffffffffffff1673ffffffffffffffffffffffffffffffffffffffff163373ffffffffffffffffffffffffffffffffffffffff1614611809576040517f08c379a00000000000000000000000000000000000000000000000000000000081526004016118009061262a565b60405180910390fd5b6000600a8054905090506000805b828110156118f3576000600a828154811061185b577f4e487b7100000000000000000000000000000000000000000000000000000000600052603260045260246000fd5b906000526020600020906002020160000160009054906101000a900473ffffffffffffffffffffffffffffffffffffffff169050600c60008273ffffffffffffffffffffffffffffffffffffffff1673ffffffffffffffffffffffffffffffffffffffff16815260200190815260200160002060010154836118dd9190612757565b92505080806118eb9061290d565b915050611817565b50809250505090565b600d6020528060005260406000206000915090508060000160009054906101000a900473ffffffffffffffffffffffffffffffffffffffff16908060010154905082565b60095481565b60008054906101000a900473ffffffffffffffffffffffffffffffffffffffff1673ffffffffffffffffffffffffffffffffffffffff163373ffffffffffffffffffffffffffffffffffffffff16146119d4576040517f08c379a00000000000000000000000000000000000000000000000000000000081526004016119cb9061262a565b60405180910390fd5b83600260006101000a81548173ffffffffffffffffffffffffffffffffffffffff021916908373ffffffffffffffffffffffffffffffffffffffff16021790555082600360006101000a81548173ffffffffffffffffffffffffffffffffffffffff021916908373ffffffffffffffffffffffffffffffffffffffff16021790555081600360146101000a81548160ff021916908360ff1602179055508060048190555050505050565b600a8181548110611a8e57600080fd5b90600052602060002090600202016000915090508060000160009054906101000a900473ffffffffffffffffffffffffffffffffffffffff16908060010154905082565b600b6020528060005260406000206000915090505481565b6000601482611af99190612757565b83511015611b3c576040517f08c379a0000000000000000000000000000000000000000000000000000000008152600401611b339061260a565b60405180910390fd5b60006c01000000000000000000000000836020860101510490508091505092915050565b6000602082611b6f9190612757565b83511015611bb2576040517f08c379a0000000000000000000000000000000000000000000000000000000008152600401611ba9906125ca565b60405180910390fd5b60008260208501015190508091505092915050565b6000849050611bd881858585611c7f565b5050505050565b6000839050611bef818484611d08565b50505050565b6060806040519050835180825260208201818101602087015b81831015611c2b5780518352602083019250602081019050611c0e565b50855192508351830184528091508282019050602086015b81831015611c605780518352602083019250602081019050611c43565b50601f19601f8851850115830101166040525050508091505092915050565b611d02846323b872dd60e01b858585604051602401611ca093929190612472565b604051602081830303815290604052907bffffffffffffffffffffffffffffffffffffffffffffffffffffffff19166020820180517bffffffffffffffffffffffffffffffffffffffffffffffffffffffff8381831617835250505050611d8e565b50505050565b611d898363a9059cbb60e01b8484604051602401611d279291906124a9565b604051602081830303815290604052907bffffffffffffffffffffffffffffffffffffffffffffffffffffffff19166020820180517bffffffffffffffffffffffffffffffffffffffffffffffffffffffff8381831617835250505050611d8e565b505050565b6000808373ffffffffffffffffffffffffffffffffffffffff1683604051611db69190612440565b6000604051808303816000865af19150503d8060008114611df3576040519150601f19603f3d011682016040523d82523d6000602084013e611df8565b606091505b509150915081611e3d576040517f08c379a0000000000000000000000000000000000000000000000000000000008152600401611e349061256a565b60405180910390fd5b600081511115611e9b5780806020019051810190611e5b919061203a565b611e9a576040517f08c379a0000000000000000000000000000000000000000000000000000000008152600401611e919061252a565b60405180910390fd5b5b50505050565b6000611eb4611eaf846126ef565b6126be565b905082815260208101848484011115611ecc57600080fd5b611ed78482856128cb565b509392505050565b600081359050611eee81612a25565b92915050565b600081519050611f0381612a3c565b92915050565b600081359050611f1881612a53565b92915050565b600082601f830112611f2f57600080fd5b8135611f3f848260208601611ea1565b91505092915050565b600081359050611f5781612a6a565b92915050565b600081359050611f6c81612a81565b92915050565b600060208284031215611f8457600080fd5b6000611f9284828501611edf565b91505092915050565b60008060008060808587031215611fb157600080fd5b6000611fbf87828801611edf565b9450506020611fd087828801611edf565b9350506040611fe187828801611f5d565b9250506060611ff287828801611f09565b91505092959194509250565b6000806040838503121561201157600080fd5b600061201f85828601611edf565b925050602061203085828601611f48565b9150509250929050565b60006020828403121561204c57600080fd5b600061205a84828501611ef4565b91505092915050565b60006020828403121561207557600080fd5b600082013567ffffffffffffffff81111561208f57600080fd5b61209b84828501611f1e565b91505092915050565b6000602082840312156120b657600080fd5b60006120c484828501611f48565b91505092915050565b6120d68161286c565b82525050565b6120ed6120e88261286c565b612956565b82525050565b6120fc8161287e565b82525050565b61210b8161288a565b82525050565b600061211c8261271f565b612126818561272a565b93506121368185602086016128da565b61213f81612a07565b840191505092915050565b60006121558261271f565b61215f818561273b565b935061216f8185602086016128da565b80840191505092915050565b6000612188602083612746565b91507f45524332303a206f7065726174696f6e20646964206e6f7420737563636565646000830152602082019050919050565b60006121c8601e83612746565b91507f427269646765206761732066656520697320696e73756666696369656e7400006000830152602082019050919050565b6000612208601283612746565b91507f45524332303a2063616c6c206661696c656400000000000000000000000000006000830152602082019050919050565b6000612248602183612746565b91507f546869732066756e6374696f6e206f6e6c7920627920636861696e627269646760008301527f65000000000000000000000000000000000000000000000000000000000000006020830152604082019050919050565b60006122ae602283612746565b91507f746f74616c5f6d706c67725f72656c65617365206973206c657373207468616e60008301527f20310000000000000000000000000000000000000000000000000000000000006020830152604082019050919050565b6000612314601583612746565b91507f746f55696e743235365f6f75744f66426f756e647300000000000000000000006000830152602082019050919050565b6000612354601783612746565b91507f596f752068617665206e6f20656e6f75676820504c47520000000000000000006000830152602082019050919050565b6000612394601583612746565b91507f746f416464726573735f6f75744f66426f756e647300000000000000000000006000830152602082019050919050565b60006123d4601483612746565b91507f4f6e6c792063616c6c6564206279206f776e65720000000000000000000000006000830152602082019050919050565b612410816128b4565b82525050565b61241f816128be565b82525050565b600061243182846120dc565b60148201915081905092915050565b600061244c828461214a565b915081905092915050565b600060208201905061246c60008301846120cd565b92915050565b600060608201905061248760008301866120cd565b61249460208301856120cd565b6124a16040830184612407565b949350505050565b60006040820190506124be60008301856120cd565b6124cb6020830184612407565b9392505050565b60006020820190506124e760008301846120f3565b92915050565b60006020820190506125026000830184612102565b92915050565b600060208201905081810360008301526125228184612111565b905092915050565b600060208201905081810360008301526125438161217b565b9050919050565b60006020820190508181036000830152612563816121bb565b9050919050565b60006020820190508181036000830152612583816121fb565b9050919050565b600060208201905081810360008301526125a38161223b565b9050919050565b600060208201905081810360008301526125c3816122a1565b9050919050565b600060208201905081810360008301526125e381612307565b9050919050565b6000602082019050818103600083015261260381612347565b9050919050565b6000602082019050818103600083015261262381612387565b9050919050565b60006020820190508181036000830152612643816123c7565b9050919050565b600060208201905061265f6000830184612407565b92915050565b600060208201905061267a6000830184612416565b92915050565b60006060820190506126956000830186612416565b6126a26020830185612102565b81810360408301526126b48184612111565b9050949350505050565b6000604051905081810181811067ffffffffffffffff821117156126e5576126e46129d8565b5b8060405250919050565b600067ffffffffffffffff82111561270a576127096129d8565b5b601f19601f8301169050602081019050919050565b600081519050919050565b600082825260208201905092915050565b600081905092915050565b600082825260208201905092915050565b6000612762826128b4565b915061276d836128b4565b9250827fffffffffffffffffffffffffffffffffffffffffffffffffffffffffffffffff038211156127a2576127a161297a565b5b828201905092915050565b60006127b8826128b4565b91506127c3836128b4565b9250826127d3576127d26129a9565b5b828204905092915050565b60006127e9826128b4565b91506127f4836128b4565b9250817fffffffffffffffffffffffffffffffffffffffffffffffffffffffffffffffff048311821515161561282d5761282c61297a565b5b828202905092915050565b6000612843826128b4565b915061284e836128b4565b9250828210156128615761286061297a565b5b828203905092915050565b600061287782612894565b9050919050565b60008115159050919050565b6000819050919050565b600073ffffffffffffffffffffffffffffffffffffffff82169050919050565b6000819050919050565b600060ff82169050919050565b82818337600083830152505050565b60005b838110156128f85780820151818401526020810190506128dd565b83811115612907576000848401525b50505050565b6000612918826128b4565b91507fffffffffffffffffffffffffffffffffffffffffffffffffffffffffffffffff82141561294b5761294a61297a565b5b600182019050919050565b600061296182612968565b9050919050565b600061297382612a18565b9050919050565b7f4e487b7100000000000000000000000000000000000000000000000000000000600052601160045260246000fd5b7f4e487b7100000000000000000000000000000000000000000000000000000000600052601260045260246000fd5b7f4e487b7100000000000000000000000000000000000000000000000000000000600052604160045260246000fd5b6000601f19601f8301169050919050565b60008160601b9050919050565b612a2e8161286c565b8114612a3957600080fd5b50565b612a458161287e565b8114612a5057600080fd5b50565b612a5c8161288a565b8114612a6757600080fd5b50565b612a73816128b4565b8114612a7e57600080fd5b50565b612a8a816128be565b8114612a9557600080fd5b5056fea2646970667358221220885ddce20680dcd18387b8cf1c6054990005056249920a8f409213227182274b64736f6c63430008000033",
  "immutableReferences": {},
  "source": "// SPDX-License-Identifier: LGPL-3.0-only\npragma solidity ^0.8.0;\n\nimport './ERC20Safe.sol';\nimport 'solidity-bytes-utils/contracts/BytesLib.sol';\n\ninterface IBridge {\n    function deposit(uint8 destinationDomainID, bytes32 resourceID, bytes calldata data) external payable;\n}\n\ncontract PledgerBridgeBSCTest is ERC20Safe {\n    using BytesLib for bytes;\n\n    // \n    address public owner;\n\n    // []\n    // \n    address public plgr_address;\n    address public bridge_address;\n    address public handler_address;\n    // ETH bridgeID\n    uint8 public cb_ddid;\n    // resourceID\n    bytes32 public cb_rid;\n\n    // []\n    // MPLGR\n    // 1MPLGR \n    uint256 public total_mplgr_release = 1 * 10 ** 18;\n\n    // []\n    // fee\n    // 0.05 BNB\n    uint256 public bridge_gas_fee = 0.05 * 10 ** 18;\n    // bridge gas fee\n    mapping(address => uint256) public balances;\n\n    // PLGR  MPLGR \n    // PLGR <=> mplgr | 3 <=> 1 \n    uint256 public factor = 3;\n\n    // PLGR\n    uint256 public total_plgr_locked;\n\n    struct LockedPLGRTx {\n        address owner;\n        uint256 amount;\n    }\n    // struct LockInfo {\n    //     bytes32 txid;\n    //     uint256 time;\n    // }\n    // LockInfo[] public locked_infos;\n    LockedPLGRTx[] public locked_infos;\n\n    mapping(address => uint256) public plgr_amounts;\n    // mapping (bytes32 => LockedPLGRTx) public locked_plgr_tx;\n    // mapping (bytes32 => LockedPLGRTx) public can_release;\n    // mapping(bytes32 => uint256) txid_release_amount;\n    mapping(address => LockedPLGRTx) public locked_plgr_tx;\n    mapping(address => LockedPLGRTx) public can_release;\n\n    // uint256 plgr_lock_nonce = 0;\n\n    event DepositPLGR(bytes32 txid, address owner, uint256 amount, uint time);\n    event WithdrawPLGR(address owner, uint256 amount);\n\n    constructor(address _plgr_address, address _bridge_address, address _handler_address, uint8 _cb_ddid, bytes32 _cb_rid) {\n        owner = msg.sender;\n\n        plgr_address = _plgr_address;\n        bridge_address = _bridge_address;\n        handler_address = _handler_address;\n        cb_ddid = _cb_ddid;\n        cb_rid = _cb_rid;\n    }\n\n    // : Bridge\n    function admin_update_bridge(address _bridge_address, address _handler_address, uint8 _cb_ddid, bytes32 _cb_rid) external {\n        require(msg.sender == owner, \"Only called by owner\");\n\n        bridge_address = _bridge_address;\n        handler_address = _handler_address;\n        cb_ddid = _cb_ddid;\n        cb_rid = _cb_rid;\n    }\n\n    // gas fee\n    function set_bridge_gas_fee(uint256 _bridge_gas_fee) public {\n        require(msg.sender == owner, \"Only called by owner\");\n\n        bridge_gas_fee = _bridge_gas_fee;\n    }\n\n    //  MPLGR \n    function set_total_release(uint256 _total_mplgr_release) external {\n        require(msg.sender == owner, \"Only called by owner\");\n        require(_total_mplgr_release >= 1, \"total_mplgr_release is less than 1\");\n\n        total_mplgr_release = _total_mplgr_release;\n    }\n\n    // User call this function on BSC to deposit PLGR.\n    // gas fee\n    function deposit_plgr(address _owner, uint256 amount) external payable {\n        // function deposit_plgr(address _owner, uint256 amount) external payable returns(bytes32) {\n        require(msg.value >= bridge_gas_fee, \"Bridge gas fee is insufficient\");\n        balances[owner] += msg.value;\n\n        // bytes32 txid = keccak256(abi.encode(_owner, amount, block.timestamp, plgr_lock_nonce));\n        // plgr_lock_nonce ++;\n\n        // amount\n        //  map\n        // bytes32 txid = keccak256(abi.encode(_owner));\n        if (locked_plgr_tx[_owner].owner == _owner) {\n            // locked_plgr_tx[txid].owner = _owner;\n\n            // Append  \n            uint256 user_current_locked = locked_plgr_tx[_owner].amount;\n            locked_plgr_tx[_owner].amount = user_current_locked + amount;\n        } else {\n            locked_plgr_tx[_owner].owner = _owner;\n            locked_plgr_tx[_owner].amount = amount;\n        }\n\n        lockERC20(plgr_address, _owner, address(this), amount);\n\n        LockedPLGRTx memory lock_info = LockedPLGRTx(_owner, locked_plgr_tx[_owner].amount);\n        locked_infos.push(lock_info);\n\n        // PLGR\n        total_plgr_locked += amount;\n\n        // emit DepositPLGR(txid, _owner, amount, block.timestamp);\n\n        // return txid;\n    }\n    // User call this function on BSC to deposit PLGR.\n\n    // PLGR\n    function get_deposit_plgr_amount() public view returns (uint256)  {\n\n        require(msg.sender == owner, \"Only called by owner\");\n        uint256 count = locked_infos.length;\n        uint256 total_amount = 0;\n        for (uint i = 0; i < count; i++) {\n            address txid = locked_infos[i].owner;\n\n            // PLGR\n            total_amount += locked_plgr_tx[txid].amount;\n        }\n\n        return total_amount;\n    }\n\n    // User call this function on BSC to widthdraw PLGR.\n    function widthdraw_plgr(uint256 amount) external {\n        uint256 value = plgr_amounts[msg.sender];\n        require(value >= amount, \"You have no enough PLGR\");\n\n        plgr_amounts[msg.sender] -= amount;\n\n        releaseERC20(plgr_address, msg.sender, amount);\n\n        emit WithdrawPLGR(msg.sender, amount);\n    }\n\n    // Chainbridge call this function on BSC\n    function deposit_mplgr_bridge(bytes memory data) external {\n        require(msg.sender == handler_address, \"This function only by chainbridge\");\n\n        address addr = data.toAddress(0);\n        uint256 amount = data.toUint256(20);\n\n        //  MPLGR  PLGR\n        plgr_amounts[addr] += amount * factor;\n    }\n\n    //  [PLGR] <= [MPLGR ] * factor  => PLGR\n    //  [PLGR] > [MPLGR ] * factor =>  ( [PLGR] / [PLGR]) * [MPLGR ] \n    function is_release_all_locked_plgr() public view returns (bool) {\n        bool release_all_locked_plgr = true;\n        if (total_plgr_locked > total_mplgr_release * factor) {\n            release_all_locked_plgr = false;\n        }\n\n        return release_all_locked_plgr;\n    }\n\n    function execute_upkeep() external {\n        require(msg.sender == owner, \"Only called by owner\");\n        require(total_mplgr_release >= 1, \"total_mplgr_release is less than 1\");\n\n        bool release_all_locked_plgr = is_release_all_locked_plgr();\n\n        uint256 count = locked_infos.length;\n        for (uint i = 0; i < count; i++) {\n            address txid = locked_infos[i].owner;\n\n            // PLGR\n            uint256 user_plgr_locked = locked_plgr_tx[txid].amount;\n\n            // PLGR\n            uint256 user_plgr_crossed = release_all_locked_plgr ? user_plgr_locked : (user_plgr_locked / total_plgr_locked) * total_mplgr_release * factor;\n\n            //  MPLGR \n            uint256 user_mplgr_crossed = user_plgr_crossed / factor;\n\n            // PLGR[PLGR - PLGR]\n            can_release[txid].owner = locked_plgr_tx[txid].owner;\n            can_release[txid].amount = user_mplgr_crossed;\n\n            // update locked_plgr_tx\n            locked_plgr_tx[txid].amount = user_plgr_locked - user_plgr_crossed;\n        }\n        // PLGR\n        total_plgr_locked = release_all_locked_plgr ? 0 : (total_plgr_locked - total_mplgr_release * factor);\n\n        // ABI\n        bytes memory rdata = abi.encode(count);\n        for (uint i = 0; i < count; i ++) {\n            address txid = locked_infos[i].owner;\n\n            bytes memory addr = abi.encodePacked(can_release[txid].owner);\n            rdata = rdata.concat(addr);\n\n            bytes memory amount = abi.encode(can_release[txid].amount);\n            rdata = rdata.concat(amount);\n        }\n\n        // \n        for (uint i = 0; i < count; i++) {\n            address txid = locked_infos[i].owner;\n\n            // MPLGR\n            delete can_release[txid];\n\n            // PLGR\n            if (locked_plgr_tx[txid].amount == 0) {\n                delete locked_plgr_tx[txid];\n                delete locked_infos[i];\n            }\n        }\n\n        // \n        bytes memory args_bytes = abi.encode(rdata);\n        bytes memory length = abi.encode(args_bytes.length);\n        bytes memory args = length.concat(args_bytes);\n\n        IBridge bridge = IBridge(bridge_address);\n        bridge.deposit(cb_ddid, cb_rid, args);\n    }\n}",
  "sourcePath": "/Users/cisco/Desktop/workspace/node/bridge-backend/contracts/BridgeBSCTest.sol",
  "compiler": {
    "name": "solc",
    "version": "0.8.0+commit.c7dfd78e.Emscripten.clang"
  },
  "schemaVersion": "3.3.1",
  "updatedAt": "2022-03-10T15:57:19.491Z",
  "devdoc": {
    "kind": "dev",
    "methods": {},
    "version": 1
  },
  "userdoc": {
    "kind": "user",
    "methods": {},
    "version": 1
  }
}