{
  "contractName": "PledgerBridgeBSC",
  "abi": [
    {
      "inputs": [
        {
          "internalType": "address",
          "name": "_plgr_address",
          "type": "address"
        },
        {
          "internalType": "address",
          "name": "_bridge_address",
          "type": "address"
        },
        {
          "internalType": "address",
          "name": "_handler_address",
          "type": "address"
        },
        {
          "internalType": "uint8",
          "name": "_cb_ddid",
          "type": "uint8"
        },
        {
          "internalType": "bytes32",
          "name": "_cb_rid",
          "type": "bytes32"
        }
      ],
      "stateMutability": "nonpayable",
      "type": "constructor"
    },
    {
      "anonymous": false,
      "inputs": [
        {
          "indexed": false,
          "internalType": "bytes32",
          "name": "txid",
          "type": "bytes32"
        },
        {
          "indexed": false,
          "internalType": "address",
          "name": "owner",
          "type": "address"
        },
        {
          "indexed": false,
          "internalType": "uint256",
          "name": "amount",
          "type": "uint256"
        },
        {
          "indexed": false,
          "internalType": "uint256",
          "name": "time",
          "type": "uint256"
        }
      ],
      "name": "DepositPLGR",
      "type": "event"
    },
    {
      "anonymous": false,
      "inputs": [
        {
          "indexed": false,
          "internalType": "address",
          "name": "owner",
          "type": "address"
        },
        {
          "indexed": false,
          "internalType": "uint256",
          "name": "amount",
          "type": "uint256"
        }
      ],
      "name": "WithdrawPLGR",
      "type": "event"
    },
    {
      "inputs": [
        {
          "internalType": "address",
          "name": "",
          "type": "address"
        }
      ],
      "name": "balances",
      "outputs": [
        {
          "internalType": "uint256",
          "name": "",
          "type": "uint256"
        }
      ],
      "stateMutability": "view",
      "type": "function",
      "constant": true
    },
    {
      "inputs": [],
      "name": "bridge_address",
      "outputs": [
        {
          "internalType": "address",
          "name": "",
          "type": "address"
        }
      ],
      "stateMutability": "view",
      "type": "function",
      "constant": true
    },
    {
      "inputs": [],
      "name": "bridge_gas_fee",
      "outputs": [
        {
          "internalType": "uint256",
          "name": "",
          "type": "uint256"
        }
      ],
      "stateMutability": "view",
      "type": "function",
      "constant": true
    },
    {
      "inputs": [
        {
          "internalType": "address",
          "name": "",
          "type": "address"
        }
      ],
      "name": "can_release",
      "outputs": [
        {
          "internalType": "address",
          "name": "owner",
          "type": "address"
        },
        {
          "internalType": "uint256",
          "name": "amount",
          "type": "uint256"
        }
      ],
      "stateMutability": "view",
      "type": "function",
      "constant": true
    },
    {
      "inputs": [],
      "name": "cb_ddid",
      "outputs": [
        {
          "internalType": "uint8",
          "name": "",
          "type": "uint8"
        }
      ],
      "stateMutability": "view",
      "type": "function",
      "constant": true
    },
    {
      "inputs": [],
      "name": "cb_rid",
      "outputs": [
        {
          "internalType": "bytes32",
          "name": "",
          "type": "bytes32"
        }
      ],
      "stateMutability": "view",
      "type": "function",
      "constant": true
    },
    {
      "inputs": [],
      "name": "factor",
      "outputs": [
        {
          "internalType": "uint256",
          "name": "",
          "type": "uint256"
        }
      ],
      "stateMutability": "view",
      "type": "function",
      "constant": true
    },
    {
      "inputs": [],
      "name": "handler_address",
      "outputs": [
        {
          "internalType": "address",
          "name": "",
          "type": "address"
        }
      ],
      "stateMutability": "view",
      "type": "function",
      "constant": true
    },
    {
      "inputs": [
        {
          "internalType": "uint256",
          "name": "",
          "type": "uint256"
        }
      ],
      "name": "locked_infos",
      "outputs": [
        {
          "internalType": "address",
          "name": "owner",
          "type": "address"
        },
        {
          "internalType": "uint256",
          "name": "amount",
          "type": "uint256"
        }
      ],
      "stateMutability": "view",
      "type": "function",
      "constant": true
    },
    {
      "inputs": [
        {
          "internalType": "address",
          "name": "",
          "type": "address"
        }
      ],
      "name": "locked_plgr_tx",
      "outputs": [
        {
          "internalType": "address",
          "name": "owner",
          "type": "address"
        },
        {
          "internalType": "uint256",
          "name": "amount",
          "type": "uint256"
        }
      ],
      "stateMutability": "view",
      "type": "function",
      "constant": true
    },
    {
      "inputs": [],
      "name": "owner",
      "outputs": [
        {
          "internalType": "address",
          "name": "",
          "type": "address"
        }
      ],
      "stateMutability": "view",
      "type": "function",
      "constant": true
    },
    {
      "inputs": [],
      "name": "plgr_address",
      "outputs": [
        {
          "internalType": "address",
          "name": "",
          "type": "address"
        }
      ],
      "stateMutability": "view",
      "type": "function",
      "constant": true
    },
    {
      "inputs": [
        {
          "internalType": "address",
          "name": "",
          "type": "address"
        }
      ],
      "name": "plgr_amounts",
      "outputs": [
        {
          "internalType": "uint256",
          "name": "",
          "type": "uint256"
        }
      ],
      "stateMutability": "view",
      "type": "function",
      "constant": true
    },
    {
      "inputs": [],
      "name": "total_mplgr_release",
      "outputs": [
        {
          "internalType": "uint256",
          "name": "",
          "type": "uint256"
        }
      ],
      "stateMutability": "view",
      "type": "function",
      "constant": true
    },
    {
      "inputs": [],
      "name": "total_plgr_locked",
      "outputs": [
        {
          "internalType": "uint256",
          "name": "",
          "type": "uint256"
        }
      ],
      "stateMutability": "view",
      "type": "function",
      "constant": true
    },
    {
      "inputs": [
        {
          "internalType": "address",
          "name": "_bridge_address",
          "type": "address"
        },
        {
          "internalType": "address",
          "name": "_handler_address",
          "type": "address"
        },
        {
          "internalType": "uint8",
          "name": "_cb_ddid",
          "type": "uint8"
        },
        {
          "internalType": "bytes32",
          "name": "_cb_rid",
          "type": "bytes32"
        }
      ],
      "name": "admin_update_bridge",
      "outputs": [],
      "stateMutability": "nonpayable",
      "type": "function"
    },
    {
      "inputs": [
        {
          "internalType": "uint256",
          "name": "_bridge_gas_fee",
          "type": "uint256"
        }
      ],
      "name": "set_bridge_gas_fee",
      "outputs": [],
      "stateMutability": "nonpayable",
      "type": "function"
    },
    {
      "inputs": [
        {
          "internalType": "uint256",
          "name": "_total_mplgr_release",
          "type": "uint256"
        }
      ],
      "name": "set_total_release",
      "outputs": [],
      "stateMutability": "nonpayable",
      "type": "function"
    },
    {
      "inputs": [
        {
          "internalType": "address",
          "name": "_owner",
          "type": "address"
        },
        {
          "internalType": "uint256",
          "name": "amount",
          "type": "uint256"
        }
      ],
      "name": "deposit_plgr",
      "outputs": [],
      "stateMutability": "payable",
      "type": "function",
      "payable": true
    },
    {
      "inputs": [
        {
          "internalType": "uint256",
          "name": "amount",
          "type": "uint256"
        }
      ],
      "name": "widthdraw_plgr",
      "outputs": [],
      "stateMutability": "nonpayable",
      "type": "function"
    },
    {
      "inputs": [
        {
          "internalType": "bytes",
          "name": "data",
          "type": "bytes"
        }
      ],
      "name": "deposit_mplgr_bridge",
      "outputs": [],
      "stateMutability": "nonpayable",
      "type": "function"
    },
    {
      "inputs": [],
      "name": "is_release_all_locked_plgr",
      "outputs": [
        {
          "internalType": "bool",
          "name": "",
          "type": "bool"
        }
      ],
      "stateMutability": "view",
      "type": "function",
      "constant": true
    },
    {
      "inputs": [],
      "name": "execute_upkeep",
      "outputs": [],
      "stateMutability": "nonpayable",
      "type": "function"
    }
  ],
  "bytecode": "0x6080604052670de0b6b3a764000060055566b1a2bc2ec5000060065560036008553480156200002d57600080fd5b5060405162002c0738038062002c078339818101604052810190620000539190620001c8565b336000806101000a81548173ffffffffffffffffffffffffffffffffffffffff021916908373ffffffffffffffffffffffffffffffffffffffff16021790555084600160006101000a81548173ffffffffffffffffffffffffffffffffffffffff021916908373ffffffffffffffffffffffffffffffffffffffff16021790555083600260006101000a81548173ffffffffffffffffffffffffffffffffffffffff021916908373ffffffffffffffffffffffffffffffffffffffff16021790555082600360006101000a81548173ffffffffffffffffffffffffffffffffffffffff021916908373ffffffffffffffffffffffffffffffffffffffff16021790555081600360146101000a81548160ff021916908360ff160217905550806004819055505050505050620002e3565b600081519050620001948162000295565b92915050565b600081519050620001ab81620002af565b92915050565b600081519050620001c281620002c9565b92915050565b600080600080600060a08688031215620001e157600080fd5b6000620001f18882890162000183565b9550506020620002048882890162000183565b9450506040620002178882890162000183565b93505060606200022a88828901620001b1565b92505060806200023d888289016200019a565b9150509295509295909350565b6000620002578262000268565b9050919050565b6000819050919050565b600073ffffffffffffffffffffffffffffffffffffffff82169050919050565b600060ff82169050919050565b620002a0816200024a565b8114620002ac57600080fd5b50565b620002ba816200025e565b8114620002c657600080fd5b50565b620002d48162000288565b8114620002e057600080fd5b50565b61291480620002f36000396000f3fe6080604052600436106101405760003560e01c80635ca65060116100b6578063add8bb961161006f578063add8bb961461042e578063b9e7787314610445578063bb83797914610483578063c7b4c5bf146104ae578063c970bdf4146104d7578063dfad049e1461051557610140565b80635ca650601461031d5780636da538ec146103465780637742cffa1461038457806383080704146103af5780638da5cb5b146103d8578063ab7272ea1461040357610140565b806327e235e31161010857806327e235e31461021a5780632e7e0c29146102575780633219c4df1461027357806344434d941461029e57806354f703f8146102c7578063585fb29d146102f257610140565b806302c0ab3b1461014557806304ecb8441461016e5780631255c18914610199578063176a78bb146101c45780632068a843146101ef575b600080fd5b34801561015157600080fd5b5061016c60048036038101906101679190611ea9565b610552565b005b34801561017a57600080fd5b5061018361067a565b60405161019091906124ab565b60405180910390f35b3480156101a557600080fd5b506101ae61068d565b6040516101bb919061229d565b60405180910390f35b3480156101d057600080fd5b506101d96106b3565b6040516101e69190612490565b60405180910390f35b3480156101fb57600080fd5b506102046106b9565b6040516102119190612333565b60405180910390f35b34801561022657600080fd5b50610241600480360381019061023c9190611db8565b6106bf565b60405161024e9190612490565b60405180910390f35b610271600480360381019061026c9190611e44565b6106d7565b005b34801561027f57600080fd5b50610288610acd565b604051610295919061229d565b60405180910390f35b3480156102aa57600080fd5b506102c560048036038101906102c09190611eea565b610af3565b005b3480156102d357600080fd5b506102dc610b8b565b6040516102e99190612490565b60405180910390f35b3480156102fe57600080fd5b50610307610b91565b6040516103149190612490565b60405180910390f35b34801561032957600080fd5b50610344600480360381019061033f9190611eea565b610b97565b005b34801561035257600080fd5b5061036d60048036038101906103689190611db8565b610c73565b60405161037b9291906122ef565b60405180910390f35b34801561039057600080fd5b50610399610cb7565b6040516103a69190612318565b60405180910390f35b3480156103bb57600080fd5b506103d660048036038101906103d19190611eea565b610ce3565b005b3480156103e457600080fd5b506103ed610e2a565b6040516103fa919061229d565b60405180910390f35b34801561040f57600080fd5b50610418610e4e565b604051610425919061229d565b60405180910390f35b34801561043a57600080fd5b50610443610e74565b005b34801561045157600080fd5b5061046c60048036038101906104679190611db8565b611742565b60405161047a9291906122ef565b60405180910390f35b34801561048f57600080fd5b50610498611786565b6040516104a59190612490565b60405180910390f35b3480156104ba57600080fd5b506104d560048036038101906104d09190611de1565b61178c565b005b3480156104e357600080fd5b506104fe60048036038101906104f99190611eea565b6118c4565b60405161050c9291906122ef565b60405180910390f35b34801561052157600080fd5b5061053c60048036038101906105379190611db8565b611918565b6040516105499190612490565b60405180910390f35b600360009054906101000a900473ffffffffffffffffffffffffffffffffffffffff1673ffffffffffffffffffffffffffffffffffffffff163373ffffffffffffffffffffffffffffffffffffffff16146105e2576040517f08c379a00000000000000000000000000000000000000000000000000000000081526004016105d9906123d0565b60405180910390fd5b60006105f860008361193090919063ffffffff16565b905060006106106014846119a690919063ffffffff16565b9050600854816106209190612624565b600b60008473ffffffffffffffffffffffffffffffffffffffff1673ffffffffffffffffffffffffffffffffffffffff168152602001908152602001600020600082825461066e919061259d565b92505081905550505050565b600360149054906101000a900460ff1681565b600260009054906101000a900473ffffffffffffffffffffffffffffffffffffffff1681565b60065481565b60045481565b60076020528060005260406000206000915090505481565b60065434101561071c576040517f08c379a000000000000000000000000000000000000000000000000000000000815260040161071390612390565b60405180910390fd5b34600760008060009054906101000a900473ffffffffffffffffffffffffffffffffffffffff1673ffffffffffffffffffffffffffffffffffffffff1673ffffffffffffffffffffffffffffffffffffffff168152602001908152602001600020600082825461078c919061259d565b925050819055508173ffffffffffffffffffffffffffffffffffffffff16600c60008473ffffffffffffffffffffffffffffffffffffffff1673ffffffffffffffffffffffffffffffffffffffff16815260200190815260200160002060000160009054906101000a900473ffffffffffffffffffffffffffffffffffffffff1673ffffffffffffffffffffffffffffffffffffffff1614156108c8576000600c60008473ffffffffffffffffffffffffffffffffffffffff1673ffffffffffffffffffffffffffffffffffffffff168152602001908152602001600020600101549050818161087c919061259d565b600c60008573ffffffffffffffffffffffffffffffffffffffff1673ffffffffffffffffffffffffffffffffffffffff1681526020019081526020016000206001018190555050610991565b81600c60008473ffffffffffffffffffffffffffffffffffffffff1673ffffffffffffffffffffffffffffffffffffffff16815260200190815260200160002060000160006101000a81548173ffffffffffffffffffffffffffffffffffffffff021916908373ffffffffffffffffffffffffffffffffffffffff16021790555080600c60008473ffffffffffffffffffffffffffffffffffffffff1673ffffffffffffffffffffffffffffffffffffffff168152602001908152602001600020600101819055505b6109bf600160009054906101000a900473ffffffffffffffffffffffffffffffffffffffff16833084611a0d565b600060405180604001604052808473ffffffffffffffffffffffffffffffffffffffff168152602001600c60008673ffffffffffffffffffffffffffffffffffffffff1673ffffffffffffffffffffffffffffffffffffffff168152602001908152602001600020600101548152509050600a81908060018154018082558091505060019003906000526020600020906002020160009091909190915060008201518160000160006101000a81548173ffffffffffffffffffffffffffffffffffffffff021916908373ffffffffffffffffffffffffffffffffffffffff1602179055506020820151816001015550508160096000828254610ac1919061259d565b92505081905550505050565b600160009054906101000a900473ffffffffffffffffffffffffffffffffffffffff1681565b60008054906101000a900473ffffffffffffffffffffffffffffffffffffffff1673ffffffffffffffffffffffffffffffffffffffff163373ffffffffffffffffffffffffffffffffffffffff1614610b81576040517f08c379a0000000000000000000000000000000000000000000000000000000008152600401610b7890612470565b60405180910390fd5b8060068190555050565b60085481565b60055481565b60008054906101000a900473ffffffffffffffffffffffffffffffffffffffff1673ffffffffffffffffffffffffffffffffffffffff163373ffffffffffffffffffffffffffffffffffffffff1614610c25576040517f08c379a0000000000000000000000000000000000000000000000000000000008152600401610c1c90612470565b60405180910390fd5b6001811015610c69576040517f08c379a0000000000000000000000000000000000000000000000000000000008152600401610c60906123f0565b60405180910390fd5b8060058190555050565b600c6020528060005260406000206000915090508060000160009054906101000a900473ffffffffffffffffffffffffffffffffffffffff16908060010154905082565b60008060019050600854600554610cce9190612624565b6009541115610cdc57600090505b8091505090565b6000600b60003373ffffffffffffffffffffffffffffffffffffffff1673ffffffffffffffffffffffffffffffffffffffff16815260200190815260200160002054905081811015610d6a576040517f08c379a0000000000000000000000000000000000000000000000000000000008152600401610d6190612430565b60405180910390fd5b81600b60003373ffffffffffffffffffffffffffffffffffffffff1673ffffffffffffffffffffffffffffffffffffffff1681526020019081526020016000206000828254610db9919061267e565b92505081905550610ded600160009054906101000a900473ffffffffffffffffffffffffffffffffffffffff163384611a25565b7f67081655db492a9224c5bc8d7d3ccadb8bb37d603b8697c1cb2081a6825138543383604051610e1e9291906122ef565b60405180910390a15050565b60008054906101000a900473ffffffffffffffffffffffffffffffffffffffff1681565b600360009054906101000a900473ffffffffffffffffffffffffffffffffffffffff1681565b60008054906101000a900473ffffffffffffffffffffffffffffffffffffffff1673ffffffffffffffffffffffffffffffffffffffff163373ffffffffffffffffffffffffffffffffffffffff1614610f02576040517f08c379a0000000000000000000000000000000000000000000000000000000008152600401610ef990612470565b60405180910390fd5b60016005541015610f48576040517f08c379a0000000000000000000000000000000000000000000000000000000008152600401610f3f906123f0565b60405180910390fd5b6000610f52610cb7565b90506000600a80549050905060005b818110156111fd576000600a8281548110610fa5577f4e487b7100000000000000000000000000000000000000000000000000000000600052603260045260246000fd5b906000526020600020906002020160000160009054906101000a900473ffffffffffffffffffffffffffffffffffffffff1690506000600c60008373ffffffffffffffffffffffffffffffffffffffff1673ffffffffffffffffffffffffffffffffffffffff168152602001908152602001600020600101549050600085611054576008546005546009548461103b91906125f3565b6110459190612624565b61104f9190612624565b611056565b815b905060006008548261106891906125f3565b9050600c60008573ffffffffffffffffffffffffffffffffffffffff1673ffffffffffffffffffffffffffffffffffffffff16815260200190815260200160002060000160009054906101000a900473ffffffffffffffffffffffffffffffffffffffff16600d60008673ffffffffffffffffffffffffffffffffffffffff1673ffffffffffffffffffffffffffffffffffffffff16815260200190815260200160002060000160006101000a81548173ffffffffffffffffffffffffffffffffffffffff021916908373ffffffffffffffffffffffffffffffffffffffff16021790555080600d60008673ffffffffffffffffffffffffffffffffffffffff1673ffffffffffffffffffffffffffffffffffffffff1681526020019081526020016000206001018190555081836111a0919061267e565b600c60008673ffffffffffffffffffffffffffffffffffffffff1673ffffffffffffffffffffffffffffffffffffffff168152602001908152602001600020600101819055505050505080806111f590612753565b915050610f61565b5081611225576008546005546112139190612624565b600954611220919061267e565b611228565b60005b6009819055506000816040516020016112419190612490565b604051602081830303815290604052905060005b828110156113f9576000600a8281548110611299577f4e487b7100000000000000000000000000000000000000000000000000000000600052603260045260246000fd5b906000526020600020906002020160000160009054906101000a900473ffffffffffffffffffffffffffffffffffffffff1690506000600d60008373ffffffffffffffffffffffffffffffffffffffff1673ffffffffffffffffffffffffffffffffffffffff16815260200190815260200160002060000160009054906101000a900473ffffffffffffffffffffffffffffffffffffffff16604051602001611342919061226b565b60405160208183030381529060405290506113668185611a3b90919063ffffffff16565b93506000600d60008473ffffffffffffffffffffffffffffffffffffffff1673ffffffffffffffffffffffffffffffffffffffff168152602001908152602001600020600101546040516020016113bd9190612490565b60405160208183030381529060405290506113e18186611a3b90919063ffffffff16565b945050505080806113f190612753565b915050611255565b5060005b82811015611631576000600a8281548110611441577f4e487b7100000000000000000000000000000000000000000000000000000000600052603260045260246000fd5b906000526020600020906002020160000160009054906101000a900473ffffffffffffffffffffffffffffffffffffffff169050600d60008273ffffffffffffffffffffffffffffffffffffffff1673ffffffffffffffffffffffffffffffffffffffff168152602001908152602001600020600080820160006101000a81549073ffffffffffffffffffffffffffffffffffffffff0219169055600182016000905550506000600c60008373ffffffffffffffffffffffffffffffffffffffff1673ffffffffffffffffffffffffffffffffffffffff16815260200190815260200160002060010154141561161d57600c60008273ffffffffffffffffffffffffffffffffffffffff1673ffffffffffffffffffffffffffffffffffffffff168152602001908152602001600020600080820160006101000a81549073ffffffffffffffffffffffffffffffffffffffff021916905560018201600090555050600a82815481106115dc577f4e487b7100000000000000000000000000000000000000000000000000000000600052603260045260246000fd5b9060005260206000209060020201600080820160006101000a81549073ffffffffffffffffffffffffffffffffffffffff0219169055600182016000905550505b50808061162990612753565b9150506113fd565b50600081604051602001611645919061234e565b60405160208183030381529060405290506000815160405160200161166a9190612490565b604051602081830303815290604052905060006116908383611a3b90919063ffffffff16565b90506000600260009054906101000a900473ffffffffffffffffffffffffffffffffffffffff1690508073ffffffffffffffffffffffffffffffffffffffff166305e2ca17600360149054906101000a900460ff16600454856040518463ffffffff1660e01b8152600401611707939291906124c6565b600060405180830381600087803b15801561172157600080fd5b505af1158015611735573d6000803e3d6000fd5b5050505050505050505050565b600d6020528060005260406000206000915090508060000160009054906101000a900473ffffffffffffffffffffffffffffffffffffffff16908060010154905082565b60095481565b60008054906101000a900473ffffffffffffffffffffffffffffffffffffffff1673ffffffffffffffffffffffffffffffffffffffff163373ffffffffffffffffffffffffffffffffffffffff161461181a576040517f08c379a000000000000000000000000000000000000000000000000000000000815260040161181190612470565b60405180910390fd5b83600260006101000a81548173ffffffffffffffffffffffffffffffffffffffff021916908373ffffffffffffffffffffffffffffffffffffffff16021790555082600360006101000a81548173ffffffffffffffffffffffffffffffffffffffff021916908373ffffffffffffffffffffffffffffffffffffffff16021790555081600360146101000a81548160ff021916908360ff1602179055508060048190555050505050565b600a81815481106118d457600080fd5b90600052602060002090600202016000915090508060000160009054906101000a900473ffffffffffffffffffffffffffffffffffffffff16908060010154905082565b600b6020528060005260406000206000915090505481565b600060148261193f919061259d565b83511015611982576040517f08c379a000000000000000000000000000000000000000000000000000000000815260040161197990612450565b60405180910390fd5b60006c01000000000000000000000000836020860101510490508091505092915050565b60006020826119b5919061259d565b835110156119f8576040517f08c379a00000000000000000000000000000000000000000000000000000000081526004016119ef90612410565b60405180910390fd5b60008260208501015190508091505092915050565b6000849050611a1e81858585611ac5565b5050505050565b6000839050611a35818484611b4e565b50505050565b6060806040519050835180825260208201818101602087015b81831015611a715780518352602083019250602081019050611a54565b50855192508351830184528091508282019050602086015b81831015611aa65780518352602083019250602081019050611a89565b50601f19601f8851850115830101166040525050508091505092915050565b611b48846323b872dd60e01b858585604051602401611ae6939291906122b8565b604051602081830303815290604052907bffffffffffffffffffffffffffffffffffffffffffffffffffffffff19166020820180517bffffffffffffffffffffffffffffffffffffffffffffffffffffffff8381831617835250505050611bd4565b50505050565b611bcf8363a9059cbb60e01b8484604051602401611b6d9291906122ef565b604051602081830303815290604052907bffffffffffffffffffffffffffffffffffffffffffffffffffffffff19166020820180517bffffffffffffffffffffffffffffffffffffffffffffffffffffffff8381831617835250505050611bd4565b505050565b6000808373ffffffffffffffffffffffffffffffffffffffff1683604051611bfc9190612286565b6000604051808303816000865af19150503d8060008114611c39576040519150601f19603f3d011682016040523d82523d6000602084013e611c3e565b606091505b509150915081611c83576040517f08c379a0000000000000000000000000000000000000000000000000000000008152600401611c7a906123b0565b60405180910390fd5b600081511115611ce15780806020019051810190611ca19190611e80565b611ce0576040517f08c379a0000000000000000000000000000000000000000000000000000000008152600401611cd790612370565b60405180910390fd5b5b50505050565b6000611cfa611cf584612535565b612504565b905082815260208101848484011115611d1257600080fd5b611d1d848285612711565b509392505050565b600081359050611d348161286b565b92915050565b600081519050611d4981612882565b92915050565b600081359050611d5e81612899565b92915050565b600082601f830112611d7557600080fd5b8135611d85848260208601611ce7565b91505092915050565b600081359050611d9d816128b0565b92915050565b600081359050611db2816128c7565b92915050565b600060208284031215611dca57600080fd5b6000611dd884828501611d25565b91505092915050565b60008060008060808587031215611df757600080fd5b6000611e0587828801611d25565b9450506020611e1687828801611d25565b9350506040611e2787828801611da3565b9250506060611e3887828801611d4f565b91505092959194509250565b60008060408385031215611e5757600080fd5b6000611e6585828601611d25565b9250506020611e7685828601611d8e565b9150509250929050565b600060208284031215611e9257600080fd5b6000611ea084828501611d3a565b91505092915050565b600060208284031215611ebb57600080fd5b600082013567ffffffffffffffff811115611ed557600080fd5b611ee184828501611d64565b91505092915050565b600060208284031215611efc57600080fd5b6000611f0a84828501611d8e565b91505092915050565b611f1c816126b2565b82525050565b611f33611f2e826126b2565b61279c565b82525050565b611f42816126c4565b82525050565b611f51816126d0565b82525050565b6000611f6282612565565b611f6c8185612570565b9350611f7c818560208601612720565b611f858161284d565b840191505092915050565b6000611f9b82612565565b611fa58185612581565b9350611fb5818560208601612720565b80840191505092915050565b6000611fce60208361258c565b91507f45524332303a206f7065726174696f6e20646964206e6f7420737563636565646000830152602082019050919050565b600061200e601e8361258c565b91507f427269646765206761732066656520697320696e73756666696369656e7400006000830152602082019050919050565b600061204e60128361258c565b91507f45524332303a2063616c6c206661696c656400000000000000000000000000006000830152602082019050919050565b600061208e60218361258c565b91507f546869732066756e6374696f6e206f6e6c7920627920636861696e627269646760008301527f65000000000000000000000000000000000000000000000000000000000000006020830152604082019050919050565b60006120f460228361258c565b91507f746f74616c5f6d706c67725f72656c65617365206973206c657373207468616e60008301527f20310000000000000000000000000000000000000000000000000000000000006020830152604082019050919050565b600061215a60158361258c565b91507f746f55696e743235365f6f75744f66426f756e647300000000000000000000006000830152602082019050919050565b600061219a60178361258c565b91507f596f752068617665206e6f20656e6f75676820504c47520000000000000000006000830152602082019050919050565b60006121da60158361258c565b91507f746f416464726573735f6f75744f66426f756e647300000000000000000000006000830152602082019050919050565b600061221a60148361258c565b91507f4f6e6c792063616c6c6564206279206f776e65720000000000000000000000006000830152602082019050919050565b612256816126fa565b82525050565b61226581612704565b82525050565b60006122778284611f22565b60148201915081905092915050565b60006122928284611f90565b915081905092915050565b60006020820190506122b26000830184611f13565b92915050565b60006060820190506122cd6000830186611f13565b6122da6020830185611f13565b6122e7604083018461224d565b949350505050565b60006040820190506123046000830185611f13565b612311602083018461224d565b9392505050565b600060208201905061232d6000830184611f39565b92915050565b60006020820190506123486000830184611f48565b92915050565b600060208201905081810360008301526123688184611f57565b905092915050565b6000602082019050818103600083015261238981611fc1565b9050919050565b600060208201905081810360008301526123a981612001565b9050919050565b600060208201905081810360008301526123c981612041565b9050919050565b600060208201905081810360008301526123e981612081565b9050919050565b60006020820190508181036000830152612409816120e7565b9050919050565b600060208201905081810360008301526124298161214d565b9050919050565b600060208201905081810360008301526124498161218d565b9050919050565b60006020820190508181036000830152612469816121cd565b9050919050565b600060208201905081810360008301526124898161220d565b9050919050565b60006020820190506124a5600083018461224d565b92915050565b60006020820190506124c0600083018461225c565b92915050565b60006060820190506124db600083018661225c565b6124e86020830185611f48565b81810360408301526124fa8184611f57565b9050949350505050565b6000604051905081810181811067ffffffffffffffff8211171561252b5761252a61281e565b5b8060405250919050565b600067ffffffffffffffff8211156125505761254f61281e565b5b601f19601f8301169050602081019050919050565b600081519050919050565b600082825260208201905092915050565b600081905092915050565b600082825260208201905092915050565b60006125a8826126fa565b91506125b3836126fa565b9250827fffffffffffffffffffffffffffffffffffffffffffffffffffffffffffffffff038211156125e8576125e76127c0565b5b828201905092915050565b60006125fe826126fa565b9150612609836126fa565b925082612619576126186127ef565b5b828204905092915050565b600061262f826126fa565b915061263a836126fa565b9250817fffffffffffffffffffffffffffffffffffffffffffffffffffffffffffffffff0483118215151615612673576126726127c0565b5b828202905092915050565b6000612689826126fa565b9150612694836126fa565b9250828210156126a7576126a66127c0565b5b828203905092915050565b60006126bd826126da565b9050919050565b60008115159050919050565b6000819050919050565b600073ffffffffffffffffffffffffffffffffffffffff82169050919050565b6000819050919050565b600060ff82169050919050565b82818337600083830152505050565b60005b8381101561273e578082015181840152602081019050612723565b8381111561274d576000848401525b50505050565b600061275e826126fa565b91507fffffffffffffffffffffffffffffffffffffffffffffffffffffffffffffffff821415612791576127906127c0565b5b600182019050919050565b60006127a7826127ae565b9050919050565b60006127b98261285e565b9050919050565b7f4e487b7100000000000000000000000000000000000000000000000000000000600052601160045260246000fd5b7f4e487b7100000000000000000000000000000000000000000000000000000000600052601260045260246000fd5b7f4e487b7100000000000000000000000000000000000000000000000000000000600052604160045260246000fd5b6000601f19601f8301169050919050565b60008160601b9050919050565b612874816126b2565b811461287f57600080fd5b50565b61288b816126c4565b811461289657600080fd5b50565b6128a2816126d0565b81146128ad57600080fd5b50565b6128b9816126fa565b81146128c457600080fd5b50565b6128d081612704565b81146128db57600080fd5b5056fea2646970667358221220d3502ee52b5500fe1d97ed3789c9d22ee868ab001fececb4e163593e91e008ec64736f6c63430008000033",
  "immutableReferences": {},
  "source": "// SPDX-License-Identifier: LGPL-3.0-only\npragma solidity ^0.8.0;\n\nimport './ERC20Safe.sol';\nimport 'solidity-bytes-utils/contracts/BytesLib.sol';\n\ninterface IBridge {\n    function deposit(uint8 destinationDomainID, bytes32 resourceID, bytes calldata data) external payable;\n}\n\ncontract PledgerBridgeBSC is ERC20Safe {\n    using BytesLib for bytes;\n\n    // \n    address public owner;\n\n    // []\n    // \n    address public plgr_address;\n    address public bridge_address;\n    address public handler_address;\n    // ETH bridgeID\n    uint8 public cb_ddid; \n    // resourceID\n    bytes32 public cb_rid;\n\n    // []\n    // MPLGR\n    // 1MPLGR \n    uint256 public total_mplgr_release = 1 * 10 ** 18; \n\n    // []\n    // fee\n    // 0.05 BNB\n    uint256 public bridge_gas_fee = 0.05 * 10 ** 18;\n    // bridge gas fee\n    mapping(address => uint256) public balances;\n\n    // PLGR  MPLGR \n    // PLGR <=> mplgr | 3 <=> 1 \n    uint256 public factor = 3; \n\n    // PLGR\n    uint256 public total_plgr_locked;\n\n    struct LockedPLGRTx {\n        address owner;\n        uint256 amount;\n    }\n    // struct LockInfo {\n    //     bytes32 txid;\n    //     uint256 time;\n    // }\n    // LockInfo[] public locked_infos;\n    LockedPLGRTx[] public locked_infos;\n\n    mapping (address => uint256) public plgr_amounts;\n    // mapping (bytes32 => LockedPLGRTx) public locked_plgr_tx;\n    // mapping (bytes32 => LockedPLGRTx) public can_release;\n    // mapping(bytes32 => uint256) txid_release_amount;\n    mapping (address => LockedPLGRTx) public locked_plgr_tx;\n    mapping (address => LockedPLGRTx) public can_release;\n\n    // uint256 plgr_lock_nonce = 0;\n\n    event DepositPLGR(bytes32 txid, address owner, uint256 amount, uint time);\n    event WithdrawPLGR(address owner, uint256 amount);\n\n    constructor(address _plgr_address, address _bridge_address, address _handler_address, uint8 _cb_ddid, bytes32 _cb_rid) {\n        owner = msg.sender;\n\n        plgr_address = _plgr_address;\n        bridge_address = _bridge_address;\n        handler_address = _handler_address;\n        cb_ddid = _cb_ddid;\n        cb_rid = _cb_rid;\n    }\n\n    // : Bridge\n    function admin_update_bridge(address _bridge_address, address _handler_address, uint8 _cb_ddid, bytes32 _cb_rid) external {\n        require(msg.sender == owner, \"Only called by owner\");\n\n        bridge_address = _bridge_address;\n        handler_address = _handler_address;\n        cb_ddid = _cb_ddid;\n        cb_rid = _cb_rid;\n    }\n\n    // gas fee\n    function set_bridge_gas_fee(uint256 _bridge_gas_fee) public {\n        require(msg.sender == owner, \"Only called by owner\");\n\n        bridge_gas_fee = _bridge_gas_fee;    \n    }\n\n    //  MPLGR \n    function set_total_release(uint256 _total_mplgr_release) external {\n        require(msg.sender == owner, \"Only called by owner\");\n        require(_total_mplgr_release >= 1, \"total_mplgr_release is less than 1\");\n\n        total_mplgr_release = _total_mplgr_release;\n    }\n\n    // User call this function on BSC to deposit PLGR.\n    // gas fee\n    function deposit_plgr(address _owner, uint256 amount) external payable {\n    // function deposit_plgr(address _owner, uint256 amount) external payable returns(bytes32) {\n        require(msg.value >= bridge_gas_fee, \"Bridge gas fee is insufficient\");\n        balances[owner] += msg.value;\n\n        // bytes32 txid = keccak256(abi.encode(_owner, amount, block.timestamp, plgr_lock_nonce));\n        // plgr_lock_nonce ++;\n\n        // amount\n        //  map\n        // bytes32 txid = keccak256(abi.encode(_owner));\n        if (locked_plgr_tx[_owner].owner == _owner) {\n            // locked_plgr_tx[txid].owner = _owner;\n\n            // Append  \n            uint256 user_current_locked = locked_plgr_tx[_owner].amount;\n            locked_plgr_tx[_owner].amount = user_current_locked + amount;\n        } else {\n            locked_plgr_tx[_owner].owner = _owner;\n            locked_plgr_tx[_owner].amount = amount;\n        }\n\n        lockERC20(plgr_address, _owner, address(this), amount);\n\n        LockedPLGRTx memory lock_info = LockedPLGRTx (_owner, locked_plgr_tx[_owner].amount);\n        locked_infos.push(lock_info);\n\n        // PLGR\n        total_plgr_locked += amount;\n\n        // emit DepositPLGR(txid, _owner, amount, block.timestamp);\n\n        // return txid;\n    }\n\n    // User call this function on BSC to widthdraw PLGR.\n    function widthdraw_plgr(uint256 amount) external {\n        uint256 value = plgr_amounts[msg.sender];\n        require(value >= amount, \"You have no enough PLGR\");\n\n        plgr_amounts[msg.sender] -= amount;\n\n        releaseERC20(plgr_address, msg.sender, amount);\n\n        emit WithdrawPLGR(msg.sender, amount);\n    }\n\n    // Chainbridge call this function on BSC\n    function deposit_mplgr_bridge(bytes memory data) external {\n        require(msg.sender == handler_address, \"This function only by chainbridge\");\n\n        address addr = data.toAddress(0);\n        uint256 amount = data.toUint256(20);\n\n        //  MPLGR  PLGR\n        plgr_amounts[addr] += amount * factor;\n    }\n\n    //  [PLGR] <= [MPLGR ] * factor  => PLGR\n    //  [PLGR] > [MPLGR ] * factor =>  ( [PLGR] / [PLGR]) * [MPLGR ] \n    function is_release_all_locked_plgr() public view returns (bool) {\n        bool release_all_locked_plgr = true;\n        if (total_plgr_locked > total_mplgr_release * factor) {\n            release_all_locked_plgr = false;\n        }\n\n        return release_all_locked_plgr;\n    }\n\n    function execute_upkeep() external {\n        require(msg.sender == owner, \"Only called by owner\");\n        require(total_mplgr_release >= 1, \"total_mplgr_release is less than 1\");\n        \n        bool release_all_locked_plgr = is_release_all_locked_plgr();\n\n        uint256 count = locked_infos.length;\n        for (uint i = 0; i < count; i++) {\n            address txid = locked_infos[i].owner;\n\n            // PLGR\n            uint256 user_plgr_locked = locked_plgr_tx[txid].amount;\n\n            // PLGR\n            uint256 user_plgr_crossed = release_all_locked_plgr ? user_plgr_locked : (user_plgr_locked / total_plgr_locked) * total_mplgr_release * factor;\n\n            //  MPLGR \n            uint256 user_mplgr_crossed = user_plgr_crossed / factor;\n            \n            // PLGR[PLGR - PLGR]\n            can_release[txid].owner = locked_plgr_tx[txid].owner;\n            can_release[txid].amount = user_mplgr_crossed;\n\n            // update locked_plgr_tx\n            locked_plgr_tx[txid].amount = user_plgr_locked - user_plgr_crossed;\n        }\n        // PLGR\n        total_plgr_locked = release_all_locked_plgr ? 0 : (total_plgr_locked - total_mplgr_release * factor);\n\n        // ABI\n        bytes memory rdata = abi.encode(count);\n        for (uint i = 0; i < count; i ++) {\n            address txid = locked_infos[i].owner;\n\n            bytes memory addr = abi.encodePacked(can_release[txid].owner);\n            rdata = rdata.concat(addr);\n\n            bytes memory amount = abi.encode(can_release[txid].amount);\n            rdata = rdata.concat(amount);\n        }\n\n        // \n        for (uint i=0; i<count;i++) {\n            address txid = locked_infos[i].owner;\n\n            // MPLGR\n            delete can_release[txid];\n\n            // PLGR\n            if (locked_plgr_tx[txid].amount == 0) {\n                delete locked_plgr_tx[txid];\n                delete locked_infos[i];\n            }\n        }\n\n        // \n        bytes memory args_bytes = abi.encode(rdata);\n        bytes memory length = abi.encode(args_bytes.length);\n        bytes memory args = length.concat(args_bytes);\n        \n        IBridge bridge = IBridge(bridge_address);\n        bridge.deposit(cb_ddid, cb_rid, args);\n    }\n}",
  "sourcePath": "/home/u20/codespace/pledge-backend/bridge-backend/contracts/BridgeBSC.sol",
  "compiler": {
    "name": "solc",
    "version": "0.8.0+commit.c7dfd78e.Emscripten.clang"
  },
  "schemaVersion": "3.3.1",
  "updatedAt": "2022-01-20T06:35:05.360Z",
  "networkType": "ethereum",
  "devdoc": {
    "kind": "dev",
    "methods": {},
    "version": 1
  },
  "userdoc": {
    "kind": "user",
    "methods": {},
    "version": 1
  }
}